:03000000020D7A74
:0C0D7A00787FE4F6D8FD75817B020DC186
:0C114000C2A5C2A78980D2A77F017E0053
:10114C00D3EF9400EE9400400F7DC77C01DCFEDDF4
:08115C00FAEF1F70EB1E80E8A2
:011164002268
:10116500E4FBC2A6D2A5D2A77F01FE12114CE580F1
:1011750030E70C0BEBD3946440F4C2A77F0022C286
:03118500A77F0140
:011188002244
:081118002480FF1211207F80EA
:02112000A9071D
:10112200E4FA121165EF700E7F01FE12114C0AEA09
:0D113200D3946440ED22C2A6121140C2A762
:01113F00228D
:0A10C500AB08AA09A90A1209CEFF20
:0210CF00A9076F
:1010D100E4FA121165EF700E7F01FE12114C0AEA5B
:0D10E100D3946440ED22D2A6121140C2A7A4
:0110EE0022DF
:1010EF00E4FA121165EF70107F01FE12114C0AEA3B
:1010FF00D3946440ED7F0022D2A6D2A5C2A71211CD
:08110F0048121146AF80C2A78F
:0111170022B5
:10121200D2B2D2B47F301211207F0C1211207F0182
:0312220002112096
:101063007F34121120E4F50DE50D121118E4F50E8D
:10107300E4FF1210CF050EE50EC3942040F2050DD8
:10108300E50DC3942040E17F361211207F30021119
:01109300203C
:10000300EF70047F808013BF01047F90800CBF02D8
:10001300047F888005BF03027F98EF2DFF02112024
:060E81008B088A09890AB2
:100E87001210637F34121120E4F50BE50B121118D1
:100E9700E4F50C1210C57401250AF50AE43509F5C5
:100EA70009050CE50CC3941040E9050BE50BC39449
:100EB7002040D8E4F50BE50B2480FF1211207F8832
:100EC700121120E4F50C1210C57401250AF50AE485
:100ED7003509F509050CE50CC3941040E9050BE548
:100EE7000BC3942040D07F361211207F300211208F
:100C8C0046001DD0D5C3FB3A004600ADC9EDB8DF18
:100C9C003A0046003DD0D4B1F03A00460037D0F2CD
:100CAC00BAC53A00480023B7CEBBEEC1BF3A0046E6
:100CBC000000CCE5D6D83A00570006D3C5D0E3C126
:100CCC00BCBAC3BCB0B8F1B2BBBCB0B8F1BCABB22F
:100CDC00EE004F009EBBB6D3ADCAB9D3C3C7EBCBA6
:100CEC00A2BFA80060390043D1EEB3C92020C4D004
:100CFC003133303930303431303636C0EED6C7C7A8
:100D0C00DAC4D03133303930303431303331C2C0C1
:100D1C00D3D0B2C5C4D03133303930303431303324
:100D2C00394C002BE8BF75B9DC5784120CC78D12F7
:100D3C006022007C4865696768743A576569676822
:100D4C00743A4C756E6720766F6C756D653A72658A
:100D5C0073756C743A00014A0002260000044C00C2
:0D0D6C0000000002320000C182C100C10180
:1000260012121212118920004B7D02E4FF12000306
:10003600E4F550749E2550F582E43400F583E0FF24
:100046001210CF0550E550C3940840E77D037F01A9
:10005600120003755008749E2550F582E43400F5AD
:1000660083E0FF1210CF0550E550C3940E40E7120F
:1000760011AC80B27F011211201211E4E525600354
:100086000202411211ACE4FDFF120003E4F55074C4
:100096001D2550F582E43400F583E0FF1210CF05EC
:1000A60050E550C3940540E77F201210CFE4FD7F52
:1000B60001120003E4F550743D2550F582E4340046
:1000C600F583E0FF1210CF0550E550C3940540E7D5
:1000D6007F201210CFE4FD7F021200031211E412FA
:1000E60011ACE4F55074372550F582E43400F583FD
:1000F600E0FF1210CF0550E550C3940540E77F207E
:100106001210CF2000030202413001030202411205
:1001160011FCE4F550E55025E025E0242BF582E4BA
:100126003400F583E0653460030202337D03FF1279
:100136000003E4F551E55075F013A42443F582E479
:100146003400F583E5822551F582E43583F583E0B5
:10015600FF1210CFE55075F013A42443F582E43462
:1001660000F583E5822551F582E43583F583E0FFCA
:100176001212560551E551C3940640B97D037F011D
:100186001200037F0A121256755106E55075F013D8
:10019600A42443F582E43400F583E5822551F582F3
:1001A600E43583F583E0FF1210CFE55075F013A414
:1001B6002443F582E43400F583E5822551F582E493
:1001C6003583F583E0FF1212560551E551C39408B5
:1001D60040B9E4FD7F031200037F0A1212567551DF
:1001E60008E55075F013A42443F582E43400F58342
:1001F600E5822551F582E43583F583E0FF1210CFC1
:10020600E55075F013A42443F582E43400F583E544
:10021600822551F582E43583F583E0FF12125605F7
:1002260051E551C3941340B97F0A1212560550E5A1
:1002360050C39404500302011BD2011211E4E525B8
:100246006401600302007FFDFF120003E4F55074B1
:10025600AD2550F582E43400F583E0FF1210CF059A
:1002660050E550C3940540E77F201210CFE4FD7F90
:1002760001120003E4F55074002550F582E43400C1
:10028600F583E0FF1210CF0550E550C3940540E713
:10029600E4FD7F02120003E4F55074232550F58235
:1002A600E43400F583E0FF1210CF0550E550C39407
:1002B6000740E77F201210CF1211E4300203020339
:1002C6009BE539644070417D03FF120003755001C0
:1002D60074392550F8E6FF1210CF74392550F8E628
:1002E600FF743D2550F8A6070550E550C394044019
:1002F600DF853D417F2E1210CFAF3D1210CF7F63B9
:100306001210CF7F6D1210CFE5396423704A7D033A
:100316007F0112000375500174392550F8E6FF126B
:1003260010CF74392550F8E6FF74412550F8A6071A
:100336000550E550C3940340DF853C44853D457F29
:100346002E1210CFAF3C1210CFAF3D1210CF7F4B05
:100356001210CF7F671210CFE539642470357D0403
:100366007F0212000375500174392550F8E6FF121A
:1003760010CF74392550F8E6FF74452550F8A607C6
:100386000550E550C3940540DF7F6D1210CF7F6C9A
:100396001210CFD202E4F55074422550F8E624D06C
:1003A600FF742A2550F8A6070550E550B408E93031
:1003B600A10302007FAF307E007C007D0A120A484E
:1003C600EF2531FBEC3EFAAF2F7E007D64120A4822
:1003D600EF2BFBEE3AFAAF2E7E007C037DE8120A85
:1003E60048EF2BF527EE3AF526AC2CE41209197BDB
:1003F600CD7ACC79CC783D120769C004C005C00619
:10040600C007AC2DE41209197B0A7AD77923783C08
:10041600120769D003D002D001D000120678C004BA
:10042600C005C006C007AC2BE4120919D003D002E0
:10043600D001D000120678C004C005C006C007ACC3
:100446002AE4120919E4FBFA79207841120769D0E7
:1004560003D002D001D0001206788F4F8E4E8D4DFC
:100466008C4CAC26AD27EC120914AB4FAA4EA94D05
:10047600A84C12087212094D8E288F2975501A74CD
:100486007C2550F582E43400F583E0FF1212560510
:1004960050E550C3942140E7C3E529944EE528640E
:1004A60080948040287D037F03120003E4F5507496
:1004B600062550F582E43400F583E0FF1210CF05DF
:1004C60050E550C3940440E77F410205A2C3E529E5
:1004D6009442E5286480948040287D037F031200BF
:1004E6000375500474062550F582E43400F583E064
:1004F600FF1210CF0550E550C3940840E77F420233
:1005060005A2C3E5299437E5286480948040277DB9
:10051600037F0312000375500874062550F582E424
:100526003400F583E0FF1210CF0550E550C3940C5C
:1005360040E77F438066C3E529942FE528648094CD
:100546008040277D037F0312000375500C74062537
:1005560050F582E43400F583E0FF1210CF0550E534
:1005660050C3941240E77F448032C3E529942FE5B7
:10057600286480948050287D037F03120003755001
:100586001274062550F582E43400F583E0FF12105C
:10059600CF0550E550C3941640E77F45121256AE7C
:1005A60028AF297C007D0A120A5AEF2430FF121266
:1005B60056AE28AF297C007D0A120A5AED2430FF78
:1005C600121256E4F550747C2550F582E43400F599
:1005D60083E0FF1212560550E550C3940740E7E446
:1005E600F550743E2550F8E6FF1212560550E550B8
:1005F600C3940440ED7F0A121256755007747C2589
:1006060050F582E43400F583E0FF1212560550E5FA
:1006160050C3940E40E7755004743E2550F8E6FF2B
:100626001212560550E550C3940840ED7F0A121287
:100636005675500E747C2550F582E43400F583E03F
:10064600FF1212560550E550C3941A40E77550083C
:10065600743E2550F8E6FF1212560550E550C39435
:0B0666000C40ED7F0A12125602007FCC
:1011E40020A0147F0112112030A0FD0525E525D390
:0811F40094014003E4F52522FB
:0300230002109434
:10109400C0E0C0D075D000C00030981E3002197472
:1010A40039254AF8A699C298054AE54AC3940540E9
:1010B40009754A00C2028002C298D000D0D0D0E0A4
:0110C40032F9
:1011AC007B007A0079217F52120EF7EF700DFB7ADB
:0C11BC00007934120E06EF7002D20022FF
:10118900758920758DFD758BFDD28ED29CC29FD23B
:101199009ED2AFD2AC120FEA12125E1212377F4101
:0311A900020F5CD6
:1011FC00759850758920758780758BF3758DF3D232
:06120C00ACD2AFD28E222D
:081256008F993099FDC2992225
:080EF7008F528B538A54895578
:100EFF001212257D077F0D1210287D037F14121209
:100F0F0049855258756F017570007571007572586B
:100F1F007573007574007575567B007A0079587F6C
:100F2F000C120B12EF7023E55764104556701BAB74
:100F3F0053AA54A955E558120A14AB53AA54A955EC
:0C0F4F00900001E559120A2680027FFE86
:010F5B002273
:060E06008B528A5389544F
:100E0C00E4F556121225E4FD7F0D1210287D807F2B
:100E1C000E121229755993755A20756F0275700050
:100E2C007571007572597573007574007575577B03
:100E3C00007A0079597F0C120B128F55E555702BE7
:100E4C00FF74592FF8E6AB52AA53A9548F827583BD
:100E5C0000120A2674592FF8E662560FBF04E2748A
:100E6C00592FF8E6655660037555FE7D807F0E128E
:040E7C001249AF5513
:010E8000224F
:100FEA00D29400C29400D294007D0F7F011210287F
:100FFA00007D3D7F111210287D1E7F2D121028E4DE
:10100A00FD7F2C1210287D8D7F2A1210287D3E7FAD
:0E101A002B1210287D407F151210287F002217
:100F5C00EF644170401212257D3D7F111210287DE7
:100F6C00867F171210287D7F7F261210287D1E7F0A
:100F7C002D121028E4FD7F2C1210287D8D7F2A1253
:100F8C0010287D3E7F2B1210287F017E001211C885
:0B0F9C0012123780037FFF227F00222B
:060FA700AC07AB05E4FEFF
:100FAD00E4FEC291C290EF25E0547E4480FF7D089F
:100FBD00EF30E703D38001C39292D291EF25E0FF8A
:100FCD00C291DDEC7D08D291EE25E0FEA293E433D3
:0C0FDD004206C291DDF0D290D291AF0626
:010FE90022E5
:10102800C291C290EF25E0547EFF7E08EF30E703BF
:10103800D38001C39292D291EF25E0FFC291DEECFA
:101048007E08ED30E703D38001C39292D291ED255B
:0A105800E0FDC291DEECD290D291CF
:01106200226B
:0D124900120FA7AE07AF04EB4EFD021028F8
:041225007D087F08B9
:0E122900120FA7AE07AF04EBF45EFD02102813
:080B12008F6B8B6C8A6D896EFC
:100B1A007576FEE4F577F578E56B24F4600C24FE2F
:100B2A00700E75771275781080067577777578303C
:100B3A00E5774480FD7F021210287D807F0412121F
:100B4A0029E4FD7F011210287D807F0A121249E4F0
:100B5A00F57AF57BC3E57B956FE57A9400501FAB78
:100B6A006CAA6DA96E857B82857A831209E7FD7F5F
:100B7A0009121028057BE57B70DA057A80D6AD6B01
:100B8A007F01121028E56BB40C077D807F0D1212CD
:100B9A0049757A07757BD07F04120FAD8F79E57B93
:100BAA00157B7002157AE57B457A6009E57920E0C4
:100BBA0004557860E27D807F0D121229E57B457A23
:100BCA007003020C7B7F06120FADEF541B60030209
:100BDA000C78F576E579557730E0037576FFE56BA5
:100BEA00640C6003020C7B7F0A120FAD8F797F0CB5
:100BFA00120FADEF5407FD6021E57924FFFFE434BD
:100C0A00FFFEEF7803C333CE33CED8F97C002DFF35
:100C1A00EC3EAB73AA74A975800FE57975F008A448
:100C2A00FFAB73AA74A975E5F08FF0120A90E57903
:100C3A007003757901E579D394124003757912E44A
:100C4A00F57AF57BC3E57B9579E57A940050227FA6
:100C5A0009120FADAB70AA71A972857B82857A835E
:100C6A00EF120A26057BE57B70DA057A80D675765F
:100C7A00FE7D807F0C121249E4FD7F01121028AF1D
:010C8A0076F3
:010C8B002246
:101237007F14120FADEF540370077D037F14121252
:01124700495D
:011248002283
:07125E007D037F1402122939
:1011C80075CAF075CCF0D2CAEF1FAC0670011E4C80
:0C11D800600730CFFDC2CF80EFC2CA22FA
:100671000209B9E86480F8E933E83360110460F0F5
:10068100ED33EC337009E8FCE9FDEAFEEBFF2204EF
:1006910060DED3EB9FEA9EE99DE8C2E78CF0C2F7EA
:1006A10095F0400CE8CCF8E9CDF9EACEFAEBCFFBB6
:1006B10012098485D0F05804700320D5B3E8047082
:1006C100075002B2D50209C392D5EC0460F7E4CC1D
:1006D100C0E0C398F8603B94186008400DD0E0FB7F
:1006E10002099BE4FBFAC9FC8028E830E406E4C96E
:1006F100FBE4CAFCE830E305E4C9CACBFCE85407D3
:100701006010F8C3E913F9EA13FAEB13FBEC13FCDD
:10071100D8F130F52FC3E49CFCEF9BFFEE9AFEED80
:1007210099FDD0E0FBEF4E4D4C701222DB03020924
:10073100C0EC2CFCEF33FFEE33FEED33FDED30E783
:10074100EB02099BEF2BFFEE3AFEED39FDD0E0FB0A
:1007510050130BBB00030209C3ED13FDEE13FEEFB3
:0807610013FFEC13FC02099BDD
:10076900EC4D6011E8497017ED33EC3304600DE48A
:10077900FCFFFEFD22E933E8330470F80209B912DF
:10078900098458046009E4CC2481500628500902E0
:1007990009C32840030209C0C0E0EB4A7044B9808C
:1007A90006D0E0FB0209AFEF4E701CBD8008EBFFDD
:1007B900EAFEE9FD80EBE98DF0A4FEE5F0020852BE
:1007C900E9CDF9EAFEEBFFEF89F0A4FCE5F0CE896B
:1007D900F0A42EFFE435F0CD89F0A42DFEE435F028
:1007E9008067EF4E7005BD80D780C3EF8BF0A4AC56
:1007F900F0EE8BF0A42CFCE435F0F8EF8AF0A42C91
:10080900E5F038FCE433CB8DF0A42CFCE5F03BF8A3
:10081900EE8AF0A42CFCE5F038F8E433CF89F0A493
:100829002CFCE5F038CF3400CE89F0A42FFFE5F099
:100839003EFEE433C98DF0A42EFEE5F039CD8AF0F1
:10084900A42FFFE5F03EFEE43DFD33D0E0FB500769
:100859000BBB000F0209C3EC2CFCEF33FFEE33FE98
:06086900ED33FD02099BC6
:10086F000209C3EC5D046005E8590470030209B97D
:10087F00120984580460F6EC4860F2EC7004FDFE37
:10088F00FF22C860DB2481C85009C398600250065C
:10089F000209C09850CAF582E9294B4A7005AB820C
:1008AF000209AF75F0007C1A7880C3EF9BEE9AEDCA
:1008BF0099400DC3EF9BFFEE9AFEED99FDE842F0D4
:1008CF00DC23ACF0D0E0FFD0E0FED0E0FDAB822027
:1008DF00E7101BEB60BAEC2CFCEF33FFEE33FEEDB1
:1008EF0033FD02099BE803F830E705C0F075F0000F
:1008FF00EF2FFFEE33FEED33FD40B830E7C280AA95
:10090F0075F020800E75F010800575F0087D007E63
:10091F00007F003392D530D503120AAFEC3340106D
:10092F00EF33FFEE33FEED33FDEC33FCD5F0ED226C
:0E093F00E5F0247EA2D513CC92E7CDCEFF22A8
:10094D00EDD2E7CD33EC3392D524814006E4FFFEA2
:10095D00FDFC22FCE4CFCECDCC24E0501174FF8001
:10096D00EDC3CC13CCCD13CDCE13CECF13CF04709E
:07097D00F030D5DE020AAFE5
:10098400E9D2E7C933E833F892D5EDD2E7CD33ECB9
:0709940033FC5002B2D52232
:10099B00EC30E7100FBF000C0EBE00080DBD0004BD
:1009AB000BEB6014A2D5EB13FCED92E7FD2274FF69
:1009BB00FCFDFEFF22E480F8A2D574FF13FC7D80C2
:0309CB00E480EFD6
:100D8600020026E493A3F8E493A34003F68001F25D
:100D960008DFF48029E493A3F85407240CC8C3336E
:100DA600C4540F4420C8834004F456800146F6DF3D
:100DB600E4800B0102040810204080900C8CE47E35
:100DC600019360BCA3FF543F30E509541FFEE49332
:100DD600A360010ECF54C025E060A840B8E493A3F9
:100DE600FAE493A3F8E493A3C8C582C8CAC583CA24
:100DF600F0A3C8C582C8CAC583CADFE9DEE780BEDC
:010D79000079
:1009CE00BB010689828A83E0225002E722BBFE0227
:0909DE00E32289828A83E493225A
:1009E700BB010CE58229F582E5833AF583E02250C5
:1009F70006E92582F8E622BBFE06E92582F8E2220F
:0D0A0700E58229F582E5833AF583E4932228
:100A1400BB010689828A83F0225002F722BBFE01C1
:020A2400F322BB
:100A2600F8BB010DE58229F582E5833AF583E8F006
:100A3600225006E92582C8F622BBFE05E92582C8B2
:020A4600F2229A
:100A4800EF8DF0A4A8F0CF8CF0A428CE8DF0A42EC2
:020A5800FE227C
:100A5A00C2D5EC30E709B2D5E4C39DFDE49CFCEEB7
:100A6A0030E715B2D5E4C39FFFE49EFE120ABDC368
:100A7A00E49DFDE49CFC8003120ABD30D507C3E463
:060A8A009FFFE49EFE2226
:100A9000BB010A89828A83F0E5F0A3F0225006F7B1
:0F0AA00009A7F01922BBFE06F3E5F009F31922AE
:0E0AAF00C3E49FFFE49EFEE49DFDE49CFC2258
:100ABD00BC000BBE0029EF8DF084FFADF022E4CC1D
:100ACD00F875F008EF2FFFEE33FEEC33FCEE9DECE6
:100ADD00984005FCEE9DFE0FD5F0E9E4CEFD22ED2C
:100AED00F8F5F0EE8420D21CFEADF075F008EF2F76
:100AFD00FFED33FD4007985006D5F0F222C398FD67
:050B0D000FD5F0EA2203
:00000001FF
