:0B0036007590FF7F507EC37D007C00B2
:100041008F0B8E0A8D098C08780874FF120059EC09
:060051004D4E4F70F3223A
:10000300E4F5907F507EC3FDFC120041120036E4FC
:10001300F5907F507EC3FDFC1200411200367B0138
:10002300E4FAEBF4F590120039EB25E0FB0ABA0889
:03003300F180CD8C
:0300000002007784
:0C007700787FE4F6D8FD75810B020003D1
:100057007401FF3395E0FEFDFC080808E6CF2FF694
:1000670018E6CE3EF618E6CD3DF618E6CC3CF6226D
:00000001FF
