:0411C9007F057E0020
:0A11CD00EF1FAC0670011E4C601706
:1011D700E4900025F0900025E0C3949650E80000C5
:0711E7000000E004F080EEBF
:0111EE0022DE
:0A125E00EF1FAC0670011E4C601378
:10126800E4900037F0900037E0C3946450E8E0045D
:03127800F080F211
:01127B002250
:1012ED00C294D295D29600000000E580339200C2E0
:0312FD0096A200B6
:0113000022CA
:10129A001212ED40FBC294C295C29600008F8000E4
:0C12AA00000000D29600000000C2962256
:1011710090002FE0FBA3E475F001120B97A9F0FAA0
:04118100120AE1FF6E
:101185001212ED40FBD294C295C2968F80000000EA
:0A11950000D29600000000C296226E
:1011EF00D2977F3412129A1211C97F3012129A12AB
:1011FF0011C97F0C12129A1211C97F0112129A7F14
:06120F00057E000211CD76
:10123A00EFB401047F808016EFB402047F90800E21
:10124A00EFB403047F888006EFB404027F98EF2D81
:04125A00FF02129AE3
:101009007F0812129A7F907E011211CD7F0C121265
:101019009A7F907E011211CD7F0812129A7F907EDD
:10102900011211CD7F0C12129A7F907E011211CDFF
:101039007F0812129A7FC87E001211CD7F0C1212FE
:101049009A1211C97F0112129A7F057E000211CDF1
:0B0F980090002FEBF0A3EAF0A3E9F0BB
:100FA3007F3412129AE4FDED2480FF12129A7F809F
:100FB30012129AE4900032F0121171900032E004A0
:100FC300F0E0C3941040F17F017E0012125E0DED3C
:100FD300B420D4E4FDED2480FF12129A7F8812120C
:100FE3009AE4900032F0121171900032E004F0E0C4
:100FF300C3941040F17F017E0012125E0DEDB42008
:06100300D47F3602129AB0
:1012B6007F3412129A1211C97F3012129A1211C972
:0C12C6007F0112129A7F057E000211CDFC
:101059001212B67F8012129AE4FEEE2430FF1211AA
:10106900850EEEB410F47F9012129AE4FEEE24403D
:10107900FF1211850EEEB410F47F8812129AE4FE65
:10108900EE2450FF1211850EEEB410F47F9812125F
:0F1099009AE4FEEE2460FF1211850EEEB410F4FF
:0110A8002225
:0813240012123AAF0302118519
:10127C00D3EF9400EE940040147D6E7C00ED1D7055
:0D128C00011CED4C70F7EF1F70E61E80E3B3
:011299002232
:10121500C2B77B46AF031BEF70FAD2B7E4FB30B71A
:10122500117F017E0012127C0BEBD3940540EF7FFA
:0412350000227F0113
:011239002292
:0C10A9001212157F017E0012127C7FCC19
:1010B500E4FBFAC2B7900027E004F0700690002622
:1010C500E004F0EF1392B7900026E4F0A37406F065
:1010D50090002674FFF5F0120B9745F070F2D2B729
:0F10E500EFC313FF0BBB00010AEB64084A70C492
:0110F40022D9
:1010F5007D087C00C2B70FBF0000D2B70FBF00004C
:101105000FBF0000A2B7E433C43333335480FBE987
:10111500C3134BF97E007F04EF1FAA0670011E4A18
:0D11250070F6ED1D70011CED4C70C9AF019E
:01113200229A
:08132C001210A97F440210B564
:081334001210A97FBE0210B5E2
:1012D200E4FFFE12132C1213341210F5900025EFC6
:0A12E200F01210F5EFFEE0FDEDFF45
:0112EC0022DF
:10000300444154453A0054494D453A0054454D50F6
:100013003A004144313A00C0F9A4B0999282F88081
:100023009000000004000000000000000000000039
:1000330000000000000000000000000000000000BD
:10004300000000000000013FC080420420000000C7
:10005300000000000000008A1FFC4204F8000000BA
:10006300000000000000003F8001FFDE8800000068
:10007300000000000000012A87F0A20AF800000037
:1000830000000000000000BF8410A20A88000000E6
:1000930000000000000000801FFCA20AF80000001E
:1000A300000000000000009F90052FCAA40000007C
:1000B300000000000000018003E1A84AA80000003E
:1000C30000000000000000BFC2244844900000006C
:1000D30000000000000000928424A84AA800000049
:1000E30000000000000000A6583D0FD0C40000002F
:1000F30000000000000000000000000000000000FD
:1001030000001CFFC0000000000000000000000011
:1001130000002308378000000000000000000000FA
:1001230000004010084000FF90100800000000008D
:1001330000008186104000080810FF8600000000C0
:10014300000102494040007F0BFC080F0000000043
:1001530000010800402000100010490F00000000BB
:1001630000020800202001FFDD102A0F000000001C
:1001730000043183202000200491FFC6000000000A
:10018300000452449020007F04901C0600000000ED
:100193000009A4284C1000A104102A00000000004C
:1001A300000E44E9C390013F0470490600000000BB
:1001B300000082C5817000210A0188C6000000008A
:1001C300000101830080003F11FC080000000000D3
:1001D30000010C700080000000000000000000001F
:1001E3000002138710400000000000000000000020
:1001F30000022078A0400000000000000000000082
:100203000002200060400000000000000000000029
:10021300000221806040000071EE3C0000000000FD
:1002230000011198908000008E31C600000000008C
:1002330000010818808000012424830000000000CE
:1002430000009601010000014028030000000000A7
:10025300000049860300000140280300000000005D
:10026300000034788C00000100200300000000002F
:1002730000000E0130000000803006000000000086
:1002830000007187CE00000040680C0000000000F1
:100293000000E0780700000020C418000000000000
:1002A3000001AFFFC5800000118230000000000094
:1002B3000003A9B645C000000B0160000000000068
:1002C30000072F03C4E000000600C0000000000088
:1002D300000E1601887000000000000000000000FE
:1002E300000F080010F000000000000000000000F4
:1002F300000F840021F00000000000000000000057
:1003030000000000000000000000000000000000EA
:1003130000000000000000000000000000000000DA
:1003230000000000000000000000000000000000CA
:1003330000000000000000000000000000000000BA
:1003430000000000000000000000000000000000AA
:10035300000000000000000000000000000000009A
:10036300000000000000000000000000000000008A
:10037300000000000000000000000000000000007A
:10038300000000000000000000000000000000006A
:10039300000000000000000000000000000000005A
:1003A300000000000000000000000000000000004A
:1003B300000000000000000000000000000000003A
:1003C300000000000000000000000000000000002A
:1003D300000000000000000000000000000000001A
:1003E300000000000000000000000000000000000A
:1003F30000000000000000000000000000000000FA
:1004030000000000000000000000000000000000E9
:1004130000000000000000000000000000000000D9
:100423000001FFFFFFFFFFFFFFFFFFFFFFFFFFFFD6
:100433000007FFFFFFFFFFFFFFFFFFFFFFFFFFFFC0
:10044300E01FFFFFFFFFFFFFFFFFFFFFFFFFFFFFB8
:10045300F03FFE000000000000000000000000FF6D
:10046300FC7FE00000000000000000000000000727
:10047300FEFF00000000000000000000000000017B
:10048300FFFC00000000000000000000000000006E
:100493007FF80000000000000000000000000000E2
:1004A3001FF000000000000000000000000000003A
:1004B3000FE000000000000000000000000000004A
:1004C3000FE000000000000000000000000000003A
:1004D30007E0000000000000000000000000000032
:1004E30007E0000000000000000000000000000022
:1004F30007E0000000000000000000000000000012
:1005030007E0000000000000000000000000000001
:1005130007E00000000000000000000000000000F1
:1005230007E00000000000000000000000000000E1
:1005330007E0000000400000000000000000000091
:1005430007E0000000F00000000180001038000008
:1005530007E0000000E00000000380003C300000E2
:1005630007E0000001C0000000030000703000003D
:1005730007E0000001800003FF030000607000003B
:1005830007E00000FFFFF007FF070000E0606000E6
:1005930007E00000FFFFF00000060001C060F0006C
:1005A30007E00000C000600000FFF80380E1E00006
:1005B30007E00001C000600001FFF80780C380006E
:1005C30007E000018000E000000C300F80C700004E
:1005D30007E000018000C03FFE0C301F01DE000079
:1005E30007E00003FFFFC03FFE18703F01F8000063
:1005F30007E000030001C003801860F701F000006A
:1006030007E00003000180030038606603C00000B8
:1006130007E00007000180060030E00607800000C5
:1006230007E000060003800E2070C00E1F000000CC
:1006330007E00007FFFF001C7061C00C7F00000093
:1006430007E0000FFFFF001870E1800DF6000000C7
:1006530007E0000C0007003070C1801DC6000000D9
:1006630007E0000C00060060F18380190E00000013
:1006730007E0001C000601FFF38300180C000000D4
:1006830007E00018000E01FE3F0300380C070000CE
:1006930007E0001FFFFC01802E0600301C0700004E
:1006A30007E0003FFFFC00001C0E00301C0E0000A2
:1006B30007E00030001C000038FC00701FFC000045
:1006C30007E0007000180000F07800601FF80000D9
:1006D30007E00000000000004040000000000000B0
:1006E30007E0000000000000000000000000000020
:1006F30007E0000000000000000000000000000010
:1007030007E00000000000000000000000000000FF
:1007130007E00000000000000000000000000000EF
:1007230007E00000000000000000000000000000DF
:1007330007E00000000000000000000000000000CF
:1007430007E00000000000000000000000000000BF
:1007530007E00000000000000000000000000000AF
:1007630007E000000000000000000000000000009F
:1007730007E000000000000000000000000000008F
:1007830007F000000000000000000000000000006F
:100793000FF0000000000000000000000000000057
:1007A3001FFC00000000000000000000000000002B
:1007B3003FFE0000000000000000000000000000F9
:1007C300FFFF8000000000000000000000000003A5
:1007D300FE7FF80000000000000000000000001F82
:1007E300FC1FFFFFFFFFFFFFFFFFFFFFFFFFFFFFF9
:1007F300F80FFFFFFFFFFFFFFFFFFFFFFFFFFFFFFD
:10080300E003FFFFFFFFFFFFFFFFFFFFFFFFFFFF10
:10081300C0007FFFFFFFFFFFFFFFFFFFFFFFFFFEA4
:0108230000D4
:0C130100440000A1E363004200042E0041
:100DE800900015E0FAC4540FFF7E007C037DE812E2
:100DF8000AFAAC06AD07EA540F75F064A42DFDECB1
:100E080035F0FC900014E0FAC4540F75F00AA42DD4
:100E1800FFE5F03CFEEA540F7C002FFFEC3E8F828A
:100E2800F583E5825403700B7D64AE83120B0CEDE1
:100E38004C600FAE83AF827C017D90120B0CED4CA1
:100E48007062900012E0120BC70E79010E7E020E3E
:100E580083030E88040E8C050E90060E94070E98D8
:100E6800080E9C090EA0100EA4110EA81200000F67
:100E7800097B31020F097B29020F097B31020F0917
:100E88007B30807D7B3180797B3080757B318071D0
:100E98007B31806D7B3080697B3180657B30806100
:100EA8007B31805D900012E0120BC70EDB010EDF74
:100EB800020EE3030EE7040EEB050EEF060EF30732
:100EC8000EF7080EFB090EFF100F03110F07120093
:100ED800000F097B31802A7B2880267B3180227B8A
:100EE80030801E7B31801A7B3080167B3180127BEC
:100EF80031800E7B30800A7B3180067B3080027B1C
:030F080031AF0303
:010F0B0022C3
:0B130E00EF1FAC0670011E4C70F622B1
:10119F0075900FE590540F640F601C7F887E1312BB
:1011AF00130EE590540FFF640F600CEF44F0F590B1
:0911BF00E59054F02FFF227FFFA0
:0111C8002204
:08113300900033EEF0A3EFF091
:10113B00A3E4F0A37402F090003374FFF5F0120BEC
:10114B009745F0600512000080ED900036E024FF1B
:10115B00F0900035E034FFF0D3A3E094009000351D
:05116B00E0940050D2E9
:01117000225C
:0B1319001211EF1212D2120BED80F83F
:040BED00AB07AA06A2
:100BF100C3EA64809480501690001C7440F0EB1B93
:100C010070011AEBF4FBEAF4FAAD03FC800AE490FC
:100C1100001CF0AD03AC02EC120A2790002B120B62
:100C2100BBE4FFFE7DC87C4090002BE0F8A3E0F917
:100C3100A3E0FAA3E0FB12091CE4FBFAF9783F12E6
:100C4100082B120A60AA06AB077C277D10AF03AE02
:100C510002120B61900006EFF07C277D10AF03AE0E
:100C610002120B617E037FE8CFCDCFCECCCE120B2B
:100C710061A3EFF07C037DE8AF03AE02120B617E4E
:100C8100007F64CFCDCFCECCCE120B61A3EFF07C31
:100C9100007D64AF03AE02120B617E007F0ACFCDEF
:100CA100CFCECCCE120B61A3EFF0AE02AF037C002E
:100CB1007D0A120B61A3EDF0E4900025F090002570
:100CC100E0FFD394044003020DBC74062FF582E4C7
:100CD1003400F583E090001A93120BC70D91800D3B
:100CE1006D820DA3900D5B920D49990D25A40D37D1
:100CF100B00CFFC00D7FF80D12F900000DB390008C
:100D010025E02426F582E43400F5837430F0020DE9
:100D1100B3900025E02426F582E43400F583743194
:100D2100F0020DB3900025E02426F582E43400F5AD
:100D3100837432F0807C900025E02426F582E4342F
:100D410000F5837433F0806A900025E02426F58253
:100D5100E43400F5837434F08058900025E02426B3
:100D6100F582E43400F5837435F08046900025E087
:100D71002426F582E43400F5837436F08034900043
:100D810025E02426F582E43400F5837437F08022CF
:100D9100900025E02426F582E43400F5837438F0D0
:100DA1008010900025E02426F582E43400F5837458
:100DB10039F0900025E004F0020CBE7F8012129AF7
:100DC100E4900025F0900025E0FFC39405501774CE
:100DD100262FF582E43400F583E0FF12118590009F
:060DE10025E004F080DFB4
:010DE70022E9
:10082400020ACCE86480F8E933E83360110460F02C
:10083400ED33EC337009E8FCE9FDEAFEEBFF22043A
:1008440060DED3EB9FEA9EE99DE8C2E78CF0C2F735
:1008540095F0400CE8CCF8E9CDF9EACEFAEBCFFB01
:10086400120A9785D0F05804700320D5B3E80470B9
:10087400075002B2D5020AD692D5EC0460F7E4CC54
:10088400C0E0C398F8603B94186008400DD0E0FBCA
:10089400020AAEE4FBFAC9FC8028E830E406E4C9A5
:1008A400FBE4CAFCE830E305E4C9CACBFCE854071E
:1008B4006010F8C3E913F9EA13FAEB13FBEC13FC29
:1008C400D8F130F52FC3E49CFCEF9BFFEE9AFEEDCC
:1008D40099FDD0E0FBEF4E4D4C701222DB03020A6F
:1008E400D3EC2CFCEF33FFEE33FEED33FDED30E7BC
:1008F400EB020AAEEF2BFFEE3AFEED39FDD0E0FB42
:1009040050130BBB0003020AD6ED13FDEE13FEEFEA
:0809140013FFEC13FC020AAE14
:10091C00EC4D6011E8497017ED33EC3304600DE4D5
:10092C00FCFFFEFD22E933E8330470F8020ACC1216
:10093C000A9758046009E4CC248150062850090217
:10094C000AD6284003020AD3C0E0EB4A7044B980AF
:10095C0006D0E0FB020AC2EF4E701CBD8008EBFF14
:10096C00EAFEE9FD80EBE98DF0A4FEE5F0020A0554
:10097C00E9CDF9EAFEEBFFEF89F0A4FCE5F0CE89B6
:10098C00F0A42EFFE435F0CD89F0A42DFEE435F073
:10099C008067EF4E7005BD80D780C3EF8BF0A4ACA1
:1009AC00F0EE8BF0A42CFCE435F0F8EF8AF0A42CDC
:1009BC00E5F038FCE433CB8DF0A42CFCE5F03BF8EF
:1009CC00EE8AF0A42CFCE5F038F8E433CF89F0A4DF
:1009DC002CFCE5F038CF3400CE89F0A42FFFE5F0E5
:1009EC003EFEE433C98DF0A42EFEE5F039CD8AF03D
:1009FC00A42FFFE5F03EFEE43DFD33D0E0FB5007B5
:100A0C000BBB000F020AD6EC2CFCEF33FFEE33FECF
:060A1C00ED33FD020AAEFD
:100A220075F020800E75F010800575F0087D007E4F
:100A3200007F003392D530D503120BADEC3340105A
:100A4200EF33FFEE33FEED33FDEC33FCD5F0ED2258
:0E0A5200E5F0247EA2D513CC92E7CDCEFF2294
:100A6000EDD2E7CD33EC3392D524814006E4FFFE8E
:100A7000FDFC22FCE4CFCECDCC24E0501174FF80ED
:100A8000EDC3CC13CCCD13CDCE13CECF13CF04708A
:070A9000F030D5DE020BADD2
:100A9700E9D2E7C933E833F892D5EDD2E7CD33ECA5
:070AA70033FC5002B2D5221E
:100AAE00EC30E7100FBF000C0EBE00080DBD0004A9
:100ABE000BEB6014A2D5EB13FCED92E7FD2274FF55
:100ACE00FCFDFEFF22E480F8A2D574FF13FC7D80AE
:030ADE00E480EFC2
:03000000020F0CE0
:0C0F0C00787FE4F6D8FD758120020F53B9
:100AE100BB010689828A83E0225002E722BBFE0213
:090AF100E32289828A83E4932246
:100AFA00EF8DF0A4A8F0CF8CF0A428CE8DF0A42E10
:020B0A00FE22C9
:100B0C00BC000BBE0029EF8DF084FFADF022E4CCCD
:100B1C00F875F008EF2FFFEE33FEEC33FCEE9DEC96
:100B2C00984005FCEE9DFE0FD5F0E9E4CEFD22EDDC
:100B3C00F8F5F0EE8420D21CFEADF075F008EF2F26
:100B4C00FFED33FD4007985006D5F0F222C398FD17
:050B5C000FD5F0EA22B4
:100B6100C2D5EC30E709B2D5E4C39DFDE49CFCEEAF
:100B710030E715B2D5E4C39FFFE49EFE120B0CC310
:100B8100E49DFDE49CFC8003120B0C30D507C3E40B
:060B91009FFFE49EFE221E
:100B9700A3F8E0C5F025F0F0E58215827002158311
:060BA700E0C838F0E8226E
:0E0BAD00C3E49FFFE49EFEE49DFDE49CFC2259
:0C0BBB00ECF0A3EDF0A3EEF0A3EFF022AD
:100BC700D083D082F8E4937012740193700DA3A3BD
:100BD70093F8740193F5828883E4737402936860D1
:060BE700EFA3A3A380DFD1
:100F1800021319E493A3F8E493A34003F68001F2C3
:100F280008DFF48029E493A3F85407240CC8C333DA
:100F3800C4540F4420C8834004F456800146F6DFA9
:100F4800E4800B0102040810204080901301E47E25
:100F5800019360BCA3FF543F30E509541FFEE4939E
:100F6800A360010ECF54C025E060A840B8E493A365
:100F7800FAE493A3F8E493A3C8C582C8CAC583CA90
:100F8800F0A3C8C582C8CAC583CADFE9DEE780BE48
:01130D0000DF
:00000001FF
