:10000E0000010002000400080010002000400080E3
:10001E0001000200040008001000200040008000D3
:10002E000800103E7E22422242227E3E4222422280
:10003E007E22023E122222225A214621822840107E
:10004E000002040208020802E17F020212071007F2
:10005E00880A880A4712242214420402040200026B
:10006E000804080404040404D27F4F444844444462
:10007E00424A5F524251C040584047404250402091
:10008E0008001020FE1E000244022802FF7E1012FD
:10009E001012FE1210125412921211111411881015
:1000AE000800103E7E22422242227E3E4222422200
:1000BE007E3E0A2212222A214621823800000002A8
:1000CE0004020802D03F000202070407900A900AB9
:1000DE00481228220402040200020000080208024C
:1000EE000402D21F5E12481244124215DE1840104E
:1000FE00401058104610401C00000830100EFE0232
:10010E0044022802FE3E00121012FE121012541269
:08011E00921210119C10000068
:1003CB00010D0004170000000002150000020FC30E
:1003DB0050010880010A80010B0001090101110085
:10040C008F368E358D348C33783374FF1203EEECCB
:06041C004D4E4F70F3226B
:0F038200120391AF03120391AF05120391AF0461
:10039100E4FEEF30E704D2948002C294D295C29574
:0803A100EF25E0FF0EBE08EAA3
:0103A9002231
:0203AA00AC079E
:1003AC00AF2E120382C296E5322401F532E43531C8
:0E03BC00F531E43530F530E4352FF52FD296CB
:0103CA002210
:02034D00AC07FB
:10034F00AF26120391AF25120391AF24120391AF81
:10035F0023120391AF22120382C296E52A2401F5DC
:10036F002AE43529F529E43528F528E43527F5273A
:02037F00D29614
:010381002259
:1002FF00E50AF4FFE508F4FDE50BF4FBE509F4F579
:10030F002E1203AAAE0FAF10EE3395E0FDFC1204D0
:10031F000CE508A2E713F508700CE5117008750AD3
:10032F00807511018007E50AA2E713F50AE50A7047
:0E033F00BFE511B401BA750880E4F51180B273
:10012600E4FFFEEE25E0242EF582E43400F583E4B8
:1001360093F4FD74372FF8A6050FEE25E0242FF56E
:1001460082E43400F583E493F4FD74372FF8A605B2
:100156000FEE25E0244EF582E43400F583E493F4B3
:10016600FD74372FF8A6050FEE25E0244FF582E43F
:100176003400F583E493F4FD74372FF8A6050FEEEB
:1001860025E0246EF582E43400F583E493F4FD74EF
:10019600372FF8A6050FEE25E0246FF582E434002C
:1001A600F583E493F4FD74372FF8A6050FEE25E0EA
:1001B600248EF582E43400F583E493F4FD74372F3E
:1001C600F8A6050FEE25E0248FF582E43400F583CA
:1001D600E493F4FD74372FF8A6050F0EEE64106055
:0401E60003020129E6
:0101EA0022F2
:10027700C297120126E4F50DF51DE51D75F008A4DA
:100287002437F8E6FFC007E51D75F008A42438F801
:10029700E6FDE51D75F008A42439F8E6FBE51D75B4
:1002A700F008A4243AF8E6FFE51D75F008A4243BFE
:1002B700F8E6FEE51D75F008A4243CF8E6FCE51D0C
:1002C70075F008A4243DF8E6FAE51D75F008A424A6
:1002D7003EF8E6F5268A258C248E238F22D0071236
:1002E700034DE59054F0250DF590050D051DE51D11
:0802F700C39410408502027C53
:03000B00020003ED
:06000300758CF6758A3CC5
:0100090032C4
:030000000201EB0F
:0C01EB00787FE4F6D8FD7581B602023280
:1003EC007401FF3395E0FEFDFC080808E6CF2FF6FC
:1003FC0018E6CE3EF618E6CD3DF618E6CC3CF622D5
:1001F700020277E493A3F8E493A34003F68001F2A5
:1002070008DFF48029E493A3F85407240CC8C33308
:10021700C4540F4420C8834004F456800146F6DFD7
:10022700E4800B01020408102040809003CBE47E99
:10023700019360BCA3FF543F30E509541FFEE493CC
:10024700A360010ECF54C025E060A840B8E493A393
:10025700FAE493A3F8E493A3C8C582C8CAC583CABE
:10026700F0A3C8C582C8CAC583CADFE9DEE780BE76
:0103EB000011
:00000001FF
