:10077400040F120F0A1F02020F090F090F090913B0
:100784001F11111F1111FF000E0A0E001F11111F5E
:10079400041F081F090F090902021F060A12020694
:0807A4001C141C0304040403EF
:100823007FFF7580FFC2A5D2A6D2A7AE071FEE60D9
:0808330005E58020E7F5C2A7EE
:01083B00229A
:04085500C2007F3826
:10085900AD071208238D80A20092A5C2A6D2A7C215
:02086900A722C4
:100723001208557F2C7E0112084012085512083C0E
:1007330012085512083C12085512083CC2007F0CDF
:100743001208597F147E00120840C2007F0112086C
:10075300597F147E00120840C2007F40120859E4FA
:10076300FCEC90077493FFD2001208590CBC40F1C3
:010773002263
:10080600AC05AB07EB7009EC4480FFC20012085937
:0D081600BB0109EC44C0FFC20012085922CA
:0C088E00AA03120806AF02D200020859AB
:10086B00120360FF600ED200120859740129F9E4DB
:05087B003AFA80EC22B6
:04083C007F647E0057
:100840007DF4D3EF9400EE94004009DDFEEF1F70BD
:04085000F11E80EE27
:010854002281
:1007E300023100000437000000000429000000006B
:1007F3000421000000000425000000000433000071
:020803000000F3
:1007AC00D2A0C2A17F007E007D007C0020A0FDE4D1
:1007BC00FBD2A178011204B7C2A130A00DEF240125
:1007CC00FFE43EFEE43DFDE43CFC0BBB18E3D2A190
:0607DC00ED6480FDC2A1E6
:0107E20022F4
:0E0880001207231206D01206591204CA80F87D
:1006D000E4F531F5321207AC8F3A8E398D388C370C
:1006E000E524253AF524E5233539F523E522353887
:1006F000F522E5213537F5210532E5327002053165
:10070000C39405E531940040CCAF24AE23AD22ACB8
:1007100021E47B05FAF9F81204048F248E238D223C
:030720008C212207
:10065900E4F531F5321207AC8F3A8E398D388C3783
:10066900E52C253AF52CE52B3539F52BE52A3538D6
:10067900F52AE5293537F5290532E53270020531C4
:10068900C39405E531940040CCAF2CAE2BAD2AAC18
:1006990029E47B05FAF9F81204048F2C8E2B8D2A94
:1006A9008C29C3E52C9524F52CE52B9523F52BE511
:1006B9002A9522F52AE5299521F529852C36852BB8
:0706C90035852A34F53322C8
:1004CA00C2007FC0120859AF36AE35AD34AC33E442
:1004DA001202A17B8F7AC27949784112000A7BC73E
:1004EA007A4B7917783F1200FB7B9A7A99793F7891
:1004FA00421202041202DF8F368E358D348C33E4B9
:10050A007B64FAF9F81203798F368E358D348C3381
:10051A0078081204A48F368E358D348C33E47B1020
:10052A007A27F9F8120404AC00AD01AE02AF03E475
:10053A007BE87A03F9F8120404EF2430FBE4FDFFA8
:10054A0012088EE47BE87A03F9F8AF36AE35AD349B
:10055A00AC33120404AC00AD01AE02AF03E47B6419
:10056A00FAF9F8120404EF2430FB7D01E4FF1208C3
:10057A008E7B2E7D02E4FF12088EE47B64FAF9F882
:10058A00AF36AE35AD34AC33120404AC00AD01AEB7
:10059A0002AF03E47B0AFAF9F8120404EF2430FBF1
:1005AA007D03E4FF12088EE47B0AFAF9F8AF36AE4F
:1005BA0035AD34AC33120404EB2430FB7D04E4FF84
:0305CA0002088E96
:1000030002034BE86480F8E933E83360110460F0DD
:10001300ED33EC337009E8FCE9FDEAFEEBFF220463
:1000230060DED3EB9FEA9EE99DE8C2E78CF0C2F75E
:1000330095F0400CE8CCF8E9CDF9EACEFAEBCFFB2A
:1000430012031685D0F05804700320D5B3E804706A
:10005300075002B2D502035592D5EC0460F7E4CC05
:10006300C0E0C398F8603B94186008400DD0E0FBF3
:1000730002032DE4FBFAC9FC8028E830E406E4C956
:10008300FBE4CAFCE830E305E4C9CACBFCE8540747
:100093006010F8C3E913F9EA13FAEB13FBEC13FC52
:1000A300D8F130F52FC3E49CFCEF9BFFEE9AFEEDF5
:1000B30099FDD0E0FBEF4E4D4C701222DB0302039F
:1000C30052EC2CFCEF33FFEE33FEED33FDED30E766
:1000D300EB02032DEF2BFFEE3AFEED39FDD0E0FBF3
:1000E30050130BBB0003020355ED13FDEE13FEEF9C
:0800F30013FFEC13FC02032DC6
:1000FB00EC4D6011E8497017ED33EC3304600DE4FF
:10010B00FCFFFEFD22E933E8330470F802034B12C7
:10011B00031658046009E4CC2481500628500902C8
:10012B000355284003020352C0E0EB4A7044B980E8
:10013B0006D0E0FB020341EF4E701CBD8008EBFFC5
:10014B00EAFEE9FD80EBE98DF0A4FEE5F00201E4A7
:10015B00E9CDF9EAFEEBFFEF89F0A4FCE5F0CE89DF
:10016B00F0A42EFFE435F0CD89F0A42DFEE435F09C
:10017B008067EF4E7005BD80D780C3EF8BF0A4ACCA
:10018B00F0EE8BF0A42CFCE435F0F8EF8AF0A42C05
:10019B00E5F038FCE433CB8DF0A42CFCE5F03BF818
:1001AB00EE8AF0A42CFCE5F038F8E433CF89F0A408
:1001BB002CFCE5F038CF3400CE89F0A42FFFE5F00E
:1001CB003EFEE433C98DF0A42EFEE5F039CD8AF066
:1001DB00A42FFFE5F03EFEE43DFD33D0E0FB5007DE
:1001EB000BBB000F020355EC2CFCEF33FFEE33FE81
:0601FB00ED33FD02032DAF
:10020100020355EC5D046005E85904700302034BD9
:10021100120316580460F6EC4860F2EC7004FDFE1F
:10022100FF22C860DB2481C85009C39860025006D0
:100231000203529850CAF582E9294B4A7005AB82F4
:1002410002034175F0007C1A7880C3EF9BEE9AEDB2
:1002510099400DC3EF9BFFEE9AFEED99FDE842F048
:10026100DC23ACF0D0E0FFD0E0FED0E0FDAB82209B
:10027100E7101BEB60BAEC2CFCEF33FFEE33FEED25
:1002810033FD02032DE803F830E705C0F075F000F7
:10029100EF2FFFEE33FEED33FD40B830E7C280AA09
:1002A10075F020800E75F010800575F0087D007ED8
:1002B100007F003392D530D503120496EC33401001
:1002C100EF33FFEE33FEED33FDEC33FCD5F0ED22E1
:0E02D100E5F0247EA2D513CC92E7CDCEFF221D
:1002DF00EDD2E7CD33EC3392D524814006E4FFFE17
:1002EF00FDFC22FCE4CFCECDCC24E0501174FF8076
:1002FF00EDC3CC13CCCD13CDCE13CECF13CF047013
:07030F00F030D5DE02049678
:10031600E9D2E7C933E833F892D5EDD2E7CD33EC2D
:0703260033FC5002B2D522A6
:10032D00EC30E7100FBF000C0EBE00080DBD000431
:10033D000BEB6014A2D5EB13FCED92E7FD2274FFDD
:10034D00FCFDFEFF22E480F8A2D574FF13FC7D8036
:03035D00E480EF4A
:030000000205CD29
:0C05CD00787FE4F6D8FD75813A02061430
:10036000BB010689828A83E0225002E722BBFE029B
:09037000E32289828A83E49322CE
:10037900E88FF0A4CC8BF0A42CFCE98EF0A42CFC23
:100389008AF0EDA42CFCEA8EF0A4CDA8F08BF0A4A1
:100399002DCC3825F0FDE98FF0A42CCD35F0FCEB00
:1003A9008EF0A4FEA9F0EB8FF0A4CFC5F02ECD39C5
:0F03B900FEE43CFCEAA42DCE35F0FDE43CFC2232
:1003C80075F008758200EF2FFFEE33FECD33CDCCEC
:1003D80033CCC58233C5829BED9AEC99E58298406F
:1003E8000CF582EE9BFEED9AFDEC99FC0FD5F0D64C
:1003F800E4CEFBE4CDFAE4CCF9A88222B800C1B976
:100408000059BA002DEC8BF084CFCECDFCE5F0CBB3
:10041800F97818EF2FFFEE33FEED33FDEC33FCEBEC
:1004280033FB10D703994004EB99FB0FD8E5E4F9A7
:10043800FA227818EF2FFFEE33FEED33FDEC33FC94
:10044800C933C910D7059BE99A4007EC9BFCE99A88
:10045800F90FD8E0E4C9FAE4CCFB2275F010EF2FCD
:10046800FFEE33FEED33FDCC33CCC833C810D707CD
:100478009BEC9AE899400AED9BFDEC9AFCE899F808
:0E0488000FD5F0DAE4CDFBE4CCFAE4C8F9229B
:0E049600C3E49FFFE49EFEE49DFDE49CFC2277
:1004A400E8600FECC313FCED13FDEE13FEEF13FF36
:0304B400D8F1225A
:1004B700E8600FEFC333FFEE33FEED33FDEC33FCA3
:0304C700D8F12247
:1005D900020880E493A3F8E493A34003F68001F2B0
:1005E90008DFF48029E493A3F85407240CC8C33323
:1005F900C4540F4420C8834004F456800146F6DFF2
:10060900E4800B01020408102040809007E3E47E97
:10061900019360BCA3FF543F30E509541FFEE493E6
:10062900A360010ECF54C025E060A840B8E493A3AD
:10063900FAE493A3F8E493A3C8C582C8CAC583CAD8
:10064900F0A3C8C582C8CAC583CADFE9DEE780BE90
:0108050000F2
:00000001FF
