:10052B007FBFDFEFF7FBFDFE3F065B4F666D7D0781
:10053B007F6F777C395E7971BF86DBCFE6EDFD8708
:10054B00FFEFF7FCB9DEF9F1004073387650786EA7
:10055B0000120025172700021126270D2105012166
:10056B0001BBB6D3ADCAB9D3C35459442D35312DC4
:10057B003132303131C4EA20203033D4C23237C863
:10058B00D52020D0C7C6DAC8FD20203235A1E62001
:10059B00202020202032313A35363A3435202020A5
:1005AB002000C8D5D2BBB6FEC8FDCBC4CEE5C1F981
:0105BB00003F
:100BCE00022A0000013100012D0B01290301301B07
:100BDE00012C00013217013338012F14023D0000A1
:0A0BEE00013400012E19C101C100FD
:10019C00E4FFEF90056C93FE74082FF8A6060FBFD2
:1001AC0010F07B007A007908E4FF120A96E4FFEF66
:1001BC0090057C93FE74082FF8A6060FBF10F0E58F
:1001CC002D75F00A12000E2430F50AE52D75F00A93
:1001DC0012000EAFF0EF2430F50BE52975F00A1282
:1001EC00000E2430F510E52975F00A12000EAFF060
:1001FC00EF2430F511E53075F00A12000E2430F5BD
:10020C0014E53075F00A12000EAFF0EF2430F5153E
:10021C007B007A0079087F01120A96E4FFEF9005C3
:10022C008C93FE74082FF8A6060FBF10F0AF2CEFBE
:10023C003395E0FEEF25E0FFEE33FE74AD2FF58233
:10024C0074053EF583E493F50E74AE2FF5827405B8
:10025C003EF583E493F50FE52E75F00A12000E249B
:10026C0030F512E52E75F00A12000EAFF0EF2430C7
:10027C00F5137B007A0079087F02120A96E4FFEFEF
:10028C0090059C93FE74082FF8A6060FBF10F0E59E
:10029C003275F00A12000E2430F50CE53275F00AB6
:1002AC0012000EAFF0EF2430F50DE53375F00A12A5
:1002BC00000E2430F50FE53375F00A12000EAFF086
:1002CC00EF2430F510E52F75F00A12000E2430F5EE
:1002DC0012E52F75F00A12000EAFF0EF2430F51373
:0B02EC007B007A0079087F03020A966D
:0B0C6B007590FF7F987E3A7D007C00B2
:100C76008F468E458D448C43784374FF12008AEC70
:060C86004D4E4F70F322F9
:100B0B007580FFAF31EF3395E0FE742B2FF58274B8
:100B1B00053EF583E493F5A074212531F8E69005A5
:100B2B003393F4F5800531D3E5316480948740032A
:040B3B00E4F531228A
:10043C008F1B8E1A8D198C187BA07A867901780007
:10044C001209D08F21AF1BAE1AAD19AC187BA07A54
:10045C0086790178001209D0AC00AD01AE02AF0371
:10046C008F1B8E1A8D198C18E47B107A27F9F812D1
:10047C0009D08F22AF1BAE1AAD19AC18E47B107AE1
:10048C0027F9F81209D0AC00AD01AE02AF038F1BF7
:10049C008E1A8D198C18E47BE87A03F9F81209D0BE
:1004AC008F23AF1BAE1AAD19AC18E47BE87A03F9B5
:1004BC00F81209D0AC00AD01AE02AF038F1B8E1A3F
:1004CC008D198C18E47B64FAF9F81209D08F24AFDB
:1004DC001BAE1AAD19AC18E47B64FAF9F81209D00A
:1004EC00AC00AD01AE02AF038F1B8E1A8D198C18A8
:1004FC00E47B0AFAF9F81209D08F25AF1BAE1AADBE
:10050C0019AC18E47B0AFAF9F81209D0AC00AD0169
:0E051C00AE02AF038F1B8E1A8D198C188F261E
:01052A0022AE
:10098A00E53275F00A12000EF521E53275F00A1209
:10099A00000E85F022752321E53375F00A12000E48
:1009AA00F524E53375F00A12000E85F02575262127
:1009BA00E52F75F00A12000EF527E52F75F00A12D9
:0609CA00000E85F028225A
:100CAD0075210CE4F52275230D75240E752521E5AE
:100CBD0034C4540FF526E534540FF5277528242236
:100B7100E4FAE4FB74212BF8A6020BBB08F6120C75
:100B81006E0ABA27EDE4FBEB04FF74212BF8A607EC
:0F0B91000BBB08F37F507EC37D007C00020C7607
:100B3F00E4F5907F987E3AFDFC120C76120C6BE474
:100B4F00F5907F987E3AFDFC120C76120C6B7B01B0
:100B5F00E4FAEBF4F590EB25E0FB120C6E0ABA0900
:010B6F00F194
:010B70002262
:100A1400053EE53E7002053DD394E7E53D648094D0
:100A240083402FE4F53DF53E052FD3E52F648094F4
:100A3400BB401FE4F52F0533D3E533648094BB40FA
:100A440011E4F5330532D3E532648094974003E42E
:030A5400F5322256
:0E0D7000758901758CFC758A66D2A9D28C2219
:100C230075B0F0E5B0440FF460197FE87E03120C51
:100C33007275B0F0E5B0440FFFF460078FB085B074
:030C430034D201A7
:010C4600228B
:100CCD00120CAD120C23300105C201120CAD7FB810
:070CDD007E0B120C7280EC8B
:1007BA00E5341200A807DE7707ED7B07FC7D080BFE
:1007CA007E081AB7081EE70821EB0824ED0827EE71
:1007DA00000008290532D3E532648094974040E44A
:1007EA00F532221532C3E532648094805031753275
:1007FA0017220533D3E533648094BB4022E4F533F2
:10080A00221533C3E53364809480501375333B2239
:10081A00E4F52F22020B3F020B71020CCDB200222B
:100749008B1C8A1D891E120030547F120076AB1C47
:10075900E51E2401F9E4351DFA120030547F120018
:1007690076AB1CE51E2402F9E4351DFA120030545B
:100779003F120076AB1CAA1DA91E90000212004967
:10078900FFC4540FF521EF540FF522752321900072
:1007990001120049FFC4540FF524EF540FF52575D4
:1007A9002621120030FFC4540FF527EF540FF52806
:0107B900221D
:10088E008B498A4A894B120030543F120076AB498D
:10089E00E54B2402F9E4354AFA120030541F1200D7
:1008AE0076752102E4F522AB49AA4AA94B900003C2
:1008BE00120049FFC4540FF523EF540F2410F524F2
:1008CE00900002120049FFC4540FF525EF540F2477
:1008DE0010F526120030FFC4540FF527EF540FF514
:0208EE002822BE
:100D2700E4FF74352FF8E6FE74212FF8A6060FBFEF
:020D370008F0C2
:010D39002297
:1006CD0053357F53367F53373F53383F5339075395
:1006DD003A1FE535C4540F75F00AA4FFE535540FE4
:1006ED002FF52FE536C4540F75F00AA4FFE53654E7
:1006FD000F2FF533E537C4540F75F00AA4FFE53716
:10070D00540F2FF53285392CE538C4540F75F00A86
:10071D00A4FFE538540F2FF530E53AC4540F75F0AA
:10072D000AA4FFE53A540F2FF529E53BC4540F7584
:0C073D00F00AA4FFE53B540F2FF52D221D
:10064800E4F542F541F540F53F7BFF7A057964759D
:100658004808FD7FA0120AD47FE87E03120C727B43
:10066800007A007935754808E4FD7FA01208F01279
:100678000D27120BF97BFF7A05796C12093E7F6012
:100688007EEA120C72120D707F647E00120C727B6F
:10069800007A0079357548077D027FA21208F012AA
:1006A80006CD12019C7F107E27120C7280DA120C84
:1006B80023300105C2011207BA7FB87E0B120C72F3
:0506C80012098A80E91F
:03000B00020D4D96
:100D4D00C0E0C0D0758CFC758A7D120A14D0D0D04D
:020D5D00E03282
:100CFB00D29500D2940000000000C29500000000C5
:060D0B0000C2940000226A
:100D5F00C29500D2940000000000D2950000000060
:010D6F002261
:030A5700120CFB83
:100A5A00E4FEEFA806088002C333D8FC30E704D2CC
:100A6A00958002C29500D2940000000000C2940E44
:100A7A00BE08DF0000D2950000D294000000309535
:0B0A8A0004C2028002D202C2940000ED
:010A9500223E
:100C4700E4FFD295FE00C2940000000000D2940099
:100C570000EF25E0FF3095010F00000EBE08E6C249
:030C6700940000F6
:010C6A002267
:090C8C00120C47EF120076D203AE
:100C9500200304C2958002D295000000D294000082
:080CA500000000C294000022CF
:100CE400120A57200202C322AF05120A5A20020236
:070CF400C322120D5FD322A1
:020AD400AE076B
:100AD600120A57200202C322AF05120A5A20020246
:100AE600C322E4FDEDC395485016120030FF120AEA
:100AF6005A200202C322740129F9E43AFA0D80E46D
:040B0600120D5FD39A
:010B0A0022C8
:100D1100120CFBEF04FF120A5A200202C322120C2A
:060D21008C120D5FD322CD
:0208F000AC0753
:1008F200120CFB120A5A200202C322AF05120A5A34
:10090200200202C322120CFBEC04FF120A5A20023C
:1009120002C322E4FDE54814FFEDC39F5016120CFA
:1009220047EF120076C203120C95740129F9E43ADA
:0B093200FA0D80E1120C8C120D5FD357
:01093D002297
:1002F7002020D6D0CEC4C4A3BFE94320D0CD202030
:10030700D2BABEA7CDBCCEC4CFD4CABEC6F72D2D98
:1003170020202020D1DDCABEB3CCD0F2202020205F
:1003270020202020202020202020202020202020C6
:10033700002020D3A2CEC4D7D6B7FBCFD4CABE20C5
:100347002061206220632064206520662067206882
:100357002069206A206B206C206D206E206F207032
:100367002071207220732074207520762077787989
:100377007A002020D3A2CEC4D7D6B7FBCFD4CABE2B
:10038700202041204220432044204520462047206A
:10039700482049204A204B204C204D204E204F20FA
:1003A7005020512052205320542055205620575872
:1003B700595A002020CAFDD7D6B7FBBAC5CFD4CA31
:1003C700BE20203020312032203320342035203603
:1003D700203720382039207E202120202023202468
:1003E7002025205E2026202A20282029202D202B8A
:1003F700203D20002B2B2B2B2B2B2B2B2B2B2B2B75
:100407002B2B2B2B2B20BBB6D3ADCAB9D3C34C4355
:100417004420202B2B202020D2BABEA7CFD4CABE7F
:10042700C6C1202B2B2B2B2B2B2B2B2B2B2B2B2BEF
:050437002B2B2B2B0014
:100BF900C2A6C2A5C2A47F30120D8B7F01120D8B34
:100C09007FE87E037D007C00120C767F03120D8B3A
:0A0C19007F06120D8B7F0C020D8B7D
:100BA000120BB1EC54F0FF120BB1EC540FC454F023
:010BB000FF45
:100BB1007E80E4FDEF5E7004C2A58002D2A5C2A4CE
:0C0BC100D2A4C2A4EEC313FE0DBD08E8D0
:010BCD002205
:070D3A00758300120049FF60
:0C0D4100AC07D2A67FFA120BA0C2A622BB
:0C0D8B00AC07D2A67FF8120BA0C2A62273
:06093E008B438A44894549
:100944007F80120D8BE4F546AB43AA44A945854646
:1009540082120D3AE546B40F057F90120D8BE546E1
:10096400B41F057F88120D8BE546B42F057F9812BE
:100974000D8BE546B43F057F80120D8B0546E54699
:05098400C3944040C3D4
:01098900224B
:060A96008B438A448945F0
:100A9C00EF14600E14600F146010240370117F802B
:100AAC00800A7F9080067F8880027F98120D8BE4ED
:100ABC00F546AB43AA44A945854682120D3A054634
:070ACC00E546C3941040EB66
:010AD3002200
:10082A007BFF7A0279F712093E7F307E757D007C64
:10083A0000120C767BFF7A03793812093E7F307EEC
:10084A00757D007C00120C767BFF7A037979120998
:10085A003E7F307E757D007C00120C767BFF7A032A
:10086A0079BA12093E7F307E757D007C00120C76C3
:10087A007BFF7A0379FB12093E7F307E757D007C0F
:04088A0000020C76E6
:0C0D7E00E4FF7E1078087420F608DEFC0C
:010D8A002246
:030000000205BC3A
:0C05BC00787FE4F6D8FD75814B02060341
:10000E00C2D530F707B2D563F0FF05F030E70CB27A
:10001E00D5F4048463F0FF05F080018430D502F43A
:02002E000422AA
:10003000BB010689828A83E0225002E722BBFE02CE
:09004000E32289828A83E4932201
:10004900BB010CE58229F582E5833AF583E022506C
:1000590006E92582F8E622BBFE06E92582F8E222B6
:0D006900E58229F582E5833AF583E49322D0
:10007600BB010689828A83F0225002F722BBFE0169
:02008600F32263
:1009D000C2D5E830E70FB2D5E4C39BFBE49AFAE452
:1009E00099F9E498F8EC30E717B2D5120A0612012B
:1009F0000AE4C39BFBE49AFAE499F9E498F88003CB
:100A000012010A30D50DE4C39FFFE49EFEE49DFD74
:040A1000E49CFC2244
:100088007401FF3395E0FEFDFC080808E6CF2FF663
:1000980018E6CE3EF618E6CD3DF618E6CC3CF6223C
:1000A800D083D082F8E4937012740193700DA3A3E7
:1000B80093F8740193F5828883E4737402936860FB
:0600C800EFA3A3A380DFFB
:1005C800020648E493A3F8E493A34003F68001F2FB
:1005D80008DFF48029E493A3F85407240CC8C33334
:1005E800C4540F4420C8834004F456800146F6DF03
:1005F800E4800B0102040810204080900BCEE47EBA
:10060800019360BCA3FF543F30E509541FFEE493F7
:10061800A360010ECF54C025E060A840B8E493A3BE
:10062800FAE493A3F8E493A3C8C582C8CAC583CAE9
:10063800F0A3C8C582C8CAC583CADFE9DEE780BEA1
:010BF80000FC
:1000CE0075F008758200EF2FFFEE33FECD33CDCCE9
:1000DE0033CCC58233C5829BED9AEC99E58298406C
:1000EE000CF582EE9BFEED9AFDEC99FC0FD5F0D649
:1000FE00E4CEFBE4CDFAE4CCF9A88222B800C1B973
:10010E000059BA002DEC8BF084CFCECDFCE5F0CBB0
:10011E00F97818EF2FFFEE33FEED33FDEC33FCEBE9
:10012E0033FB10D703994004EB99FB0FD8E5E4F9A4
:10013E00FA227818EF2FFFEE33FEED33FDEC33FC91
:10014E00C933C910D7059BE99A4007EC9BFCE99A85
:10015E00F90FD8E0E4C9FAE4CCFB2275F010EF2FCA
:10016E00FFEE33FEED33FDCC33CCC833C810D707CA
:10017E009BEC9AE899400AED9BFDEC9AFCE899F805
:0E018E000FD5F0DAE4CDFBE4CCFAE4C8F92298
:00000001FF
