:1000330012005B12001EE4FF12006D7F327E00127D
:04004300000380F244
:0D006D008F08120086AF08120047020086BF
:10004700EF4488F5C500000000E5C530E4FB53C563
:04005700EFAFC6221F
:10005B0075985A758920758780758BFA758DFAD2CC
:02006B008E22E3
:10001E007592FF7591FF7590FFE4F5C675C5807FEB
:05002E0002FE020003C8
:08008600C2998F993099FD2207
:10000300EF1FAA0670011E4A60107C137D88ED1D48
:0A001300AA0470011C4A60E880F4A2
:01001D0022C0
:0300000002007A81
:0C007A00787FE4F6D8FD758108020033A1
:00000001FF
