:0A0EB700EF1F70011E144E70F722A9
:100E6100E4FEC294EF339293EF25E0FFD2940EBEDD
:020E710008F087
:010E7300225C
:100C7A00040F120F0A1F02020F090F090F090913A5
:100C8A001F11111F1111FF000E0A0E001F11111F53
:100C9A00041F081F090F090902021F060A12020689
:080CAA001C141C0304040403E4
:040DC000C2007F38B6
:100DC400120E617F037E00120DDDA2009290C2918B
:050DD400D292C2922240
:100A7300120DC07F2C7E01120DDD120DC0120DD997
:100A8300120DC0120DD9120DC0120DD9C2007F0C68
:100A9300120DC4120DD9C2007F01120DC4120DD95B
:100AA300C2007F40120DC4E4F508E508900C7A9368
:0F0AB300FFD200120DC40508E508C3944040EBC4
:010AC2002211
:100D80008F138D14E513700AE5144480FFC200121E
:100D90000DC4E513B4010AE51444C0FFC200120DEE
:020DA000C4226B
:0C0EA0008B12120D80D200AF12020DC4A4
:100D12008B088A09890AAB08AA09A90A1202C0FF2C
:100D22006012D200120DC47401250AF50AE43509D5
:050D3200F50980E2223A
:040DD9007F647E00B5
:100DDD007DF4D3EF9400EE94004009DDFEEF1F701B
:040DED00F11E80EE85
:010DF10022DF
:100E38005365740055461721010113C0F9A4B099F0
:050E48009282F8809089
:060ED1000146000147008C
:10081600E535C4540FFF7E007C037DE81202D9AC97
:1008260006AD07E535540F75F064A42DFDEC35F0E3
:10083600FCE534C4540F75F00AA42DFFE5F03CFE28
:10084600E534540F7C002FFFEC3E8F82F583E58262
:100856005403700B7D64AE831202EBED4C600FAE59
:1008660083AF827C017D901202EBED4C7060E53225
:1008760012038408A10108A60208AB0308B0040805
:10088600B40508B80608BC0708C00808C40908C8A3
:100896001008CC1108D0120000092F7B3102092F55
:1008A6007B2902092F7B3102092F7B30807B7B312C
:1008B60080777B3080737B31806F7B31806B7B30C0
:1008C60080677B3180637B30805F7B31805BE53284
:1008D600120384090101090502090903090D040926
:1008E6001105091506091907091D08092109092510
:1008F60010092911092D120000092F7B31802A7B4E
:100906002880267B3180227B30801E7B31801A7BBB
:100916003080167B3180127B31800E7B30800A7BE3
:0B0926003180067B3080027B31AF0384
:0109310022A3
:100CB200120A73753520120AC3E4F547E54714603A
:100CC20011047011120AC31203AA120E211205573F
:100CD20080031206D2120D5CBF7FE10547E547B4DF
:070CE20002DAE4F54780D5BA
:040E85007F017E006B
:0A0E8900EF1F70011E144E70F722D7
:100AC3007F81120EAC8F2E120E857F83120EAC8F98
:100AD3002F120E857F85120EAC8F30120E857F8705
:100AE300120EAC8F31120E857F89120EAC8F32122B
:100AF3000E857F8B120EAC8F33120E857F8D120EF7
:0A0B0300AC8F347F017E00020E89E2
:1003AA00E535540AFFBF0A095335F074102535F5AF
:1003BA0035E535540FFFBF0F095335F0740925355C
:1003CA00F535E533540F2430F54524CFB4070050F2
:1003DA006B9003E975F003A4C58325F0C583730206
:1003EA0003FE02040602041102041C02042702048A
:1003FA003202043D752B4D752C4F803D752B54757B
:10040A002C55752D458035752B57752C45752D4402
:10041A00802A752B54752C48752D55801F752B46CF
:10042A00752C52752D498014752B53752C41752DD9
:10043A00548009752B53752C55752D4EAB2B7D0D9C
:10044A00E4FF120EA0AB2C7D0EE4FF120EA0AB2D22
:10045A007D0FE4FF120EA0E535C4540F2430FBE4EF
:10046A00FDFF120EA0E535540F2430FB7D01E4FF99
:10047A00120EA0E534C4540F2430FB7D02E4FF12AF
:10048A000EA0E534540F2430FB7D03E4FF120EA0C6
:10049A00E4FB7D04FF120EA0E532C4540F2430FBA6
:1004AA007D05E4FF120EA0E532540F2430FB7D06D1
:1004BA00E4FF120EA07B017D07E4FF120EA0E531D6
:1004CA00C4540F2430FB7D08E4FF120EA0E531541A
:1004DA000F2430FB7D09E4FF120EA07B027D0AE4A3
:1004EA00FF120EA0E530C4540F2430FBE4FD7F0157
:1004FA00120EA0E530540F2430FB7D017F01120E4D
:10050A00A07B3A7D027F01120EA0E52FC4540F246E
:10051A0030FB7D037F01120EA0E52F540F2430FB20
:10052A007D047F01120EA07B3A7D057F01120EA089
:10053A00E52EC4540F2430FB7D067F01120EA0E580
:0D054A002E540F2430FB7D077F01020EA010
:04055700AB07AA063E
:10055B00C3EA648094805010753D40EB1B70011A08
:10056B006303FF6302FF8003E4F53DAD03AC02ECD4
:10057B001202068F118E108D0F8C0EE4FFFE7DC8BC
:10058B007C40AB11AA10A90FA80E1200FBE4FBFADA
:10059B00F9783F12000A12023FAA06AB077C277DAF
:1005AB0010AF03AE021203408F217C277D10AF03E7
:1005BB00AE021203407E037FE8CFCDCFCECCCE125E
:1005CB0003408F227C037DE8AF03AE021203407E13
:1005DB00007F64CFCDCFCECCCE1203408F237C00D7
:1005EB007D64AF03AE021203407E007F0ACFCDCFF6
:1005FB00CECCCE1203408F24AE02AF037C007D0A1B
:10060B001203408D25E4F50874212508F8E6900EB9
:10061B004393120384068A80067882069390066FB2
:10062B00920666990654A4065DB00642C00681F890
:10063B00064BF90000069A74092508F87630804FAE
:10064B0074092508F87631804674092508F8763246
:10065B00803D74092508F87633803474092508F831
:10066B007634802B74092508F87635802274092599
:10067B0008F87636801974092508F87637801074D7
:10068B00092508F87638800774092508F8763905A6
:10069B0008E50864056003020613AB0A7D0B7F01B6
:1006AB00120EA0AB0B7D0C7F01120EA07B2E7D0DCD
:1006BB007F01120EA0AB0C7D0E7F01120EA07B06EC
:0706CB007D0F7F01020EA06C
:1009BE00EF702E0534E534B49A16E4F5340535E5BA
:1009CE0035540AFEBE0A095335F074102535F53537
:1009DE00E534540AFEBE0A095334F074102534F57A
:1009EE0034EF6401702D1534E534540FFFBF0F0939
:1009FE005334F074092534F534E534701675349992
:100A0E001535E535540FFFBF0F095335F074092521
:040A1E0035F5352253
:100C4100EF701B0532E532B41303753201E53254FE
:100C51000AFEBE0A095332F074102532F532BF0183
:100C610017D53203753212E532540FFFBF0F095306
:090C710032F074092532F532223B
:100A22008F08E5087026120816EFB53103E4F53198
:100A32000531E531540AFFBF0A125331F074102513
:100A420031F5317B007A00792E120CE9E508B40108
:100A52001FE531B40107120816EF04F5311531E52F
:100A620031540FFFBF0F095331F074092531F531AD
:010A72002261
:100B8D00EF701B0530E530B42403E4F530E5305447
:100B9D000AFEBE0A095330F074102530F530BF013E
:100BAD001AE53070037530241530E530540FFFBF52
:0C0BBD000F095330F074092530F5302288
:100BC900EF701B052FE52F540AFEBE0A09532FF0BB
:100BD9007410252FF52FE52FB46003E4F52FBF011D
:100BE9001AE52F7003752F60152FE52F540FFFBFDE
:0C0BF9000F09532FF07409252FF52F224F
:100C0500EF701B052EE52E540AFEBE0A09532EF081
:100C15007410252EF52EE52EB46003E4F52EBF01E4
:100C25001AE52E7003752E60152EE52E540FFFBFA5
:0C0C35000F09532EF07409252EF52E2215
:100E0A00EF700A0533E533B40803753301BF0106F1
:070E1A00D5330375330722F5
:1006D200C2007F01120DC47D0D7F01120D807BFFD0
:1006E2007A0E7938120D12120D5CEF64BF705D053F
:1006F20046E546B40803754601E54614B4070050C2
:100702004490071175F003A4C58325F0C5837302D5
:10071200072602072A02072E0207320207360207BD
:100722003A0207407D0380187D0680147D098010FF
:100732007D0180067D0480027D077F0180047D0F9C
:10074200E4FF120D80C2007F0E120DC4120D5CEF89
:100752002411605024106003020815E54614B40702
:1007620000503F90077375F003A4C58325F0C5833D
:100772007302078802078C02079002079402079807
:1007820002079C0207A07F0180477F0180487F010A
:1007920080497F01804A7F01804B7F01804C7F012D
:1007A200804D804EE54614B4070050469007BC7554
:1007B200F003A4C58325F0C583730207D10207D6CF
:1007C2000207DB0207E00207E50207EA0207EFE49D
:1007D200FF0209BEE4FF020C41E4FF020A22E4FF29
:1007E200020B8DE4FF020BC9E4FF020C05E4FF02D9
:1007F2000E0AE4FD7F8E120E747B007A00792E12AF
:100802000CE97D807F8E120E741203AAC2007F0F44
:04081200120DC422DD
:060DF200C2B5C2B6D2B585
:100DF800EFD2B57F08A2E092B4C2B6D2B6C313DF71
:010E0800F4F5
:010E090022C6
:100E4D00D2B57F08C313D2B4D2B6C2B6A2B492E75C
:030E5D00DFF2FFC2
:010E6000226F
:100E7400AE05120DF2AF06120DF8D2B6C2B5C2B469
:010E8400224B
:0A0EAC00120DF2120E4DD2B6C2B5BF
:010EB6002219
:100CE900750980E4FD7F8E120E747C071202C0FD27
:100CF900AF09120E74740129F9E43AFA05090509D4
:090D0900DCEA7D807F8E020E748D
:100D5C00C2970000D297120E93C296E4FFFEEF25C5
:100D6C00E0FFA295E4334207C2960000D296000E33
:030D7C00BE08EBC3
:010D7F002251
:0C0E9300E4FFE4FE0EBE21FC0FBF0AF6D7
:010E9F002230
:100DA200D3EF9400EE940040147D6E7C00ED1D7034
:0D0DB200011CED4C70F7EF1F70E61E80E392
:010DBF002211
:100D3700C2B77B46AF031BEF70FAD2B7E4FB30B7FD
:100D4700117F017E00120DA20BEBD3940540EF7FBC
:040D570000227F01F6
:010D5B002275
:0C0B0D00120D377F017E00120DA27FCC7C
:100B1900E4FBFAC2B7050AE50A70020509EF139268
:100B2900B7750900750A06E50A150AAC09700215B8
:100B3900094C70F3D2B7EFC313FF0BBB00010AEBEB
:050B490064084A70CEB3
:010B4E002284
:100B4F007D087C00C2B70FBF0000D2B70FBF0000F7
:100B5F000FBF0000A2B7E433C43333335480FBE933
:100B6F00C3134BF97E007F04EF1FAA0670011E4AC4
:0D0B7F0070F6ED1D70011CED4C70C9AF014A
:010B8C002246
:080EC100120B0D7F44020B1916
:080EC900120B0D7FBE020B1994
:100E2100E4FFFE120EC1120EC9120B4F8F08120BF6
:060E31004FEFFEE508FF93
:010E37002298
:100003000202ABE86480F8E933E83360110460F07E
:10001300ED33EC337009E8FCE9FDEAFEEBFF220463
:1000230060DED3EB9FEA9EE99DE8C2E78CF0C2F75E
:1000330095F0400CE8CCF8E9CDF9EACEFAEBCFFB2A
:1000430012027685D0F05804700320D5B3E804700B
:10005300075002B2D50202B592D5EC0460F7E4CCA6
:10006300C0E0C398F8603B94186008400DD0E0FBF3
:1000730002028DE4FBFAC9FC8028E830E406E4C9F7
:10008300FBE4CAFCE830E305E4C9CACBFCE8540747
:100093006010F8C3E913F9EA13FAEB13FBEC13FC52
:1000A300D8F130F52FC3E49CFCEF9BFFEE9AFEEDF5
:1000B30099FDD0E0FBEF4E4D4C701222DB030202A0
:1000C300B2EC2CFCEF33FFEE33FEED33FDED30E706
:1000D300EB02028DEF2BFFEE3AFEED39FDD0E0FB94
:1000E30050130BBB00030202B5ED13FDEE13FEEF3D
:0800F30013FFEC13FC02028D67
:1000FB00EC4D6011E8497017ED33EC3304600DE4FF
:10010B00FCFFFEFD22E933E8330470F80202AB1268
:10011B00027658046009E4CC248150062850090269
:10012B0002B52840030202B2C0E0EB4A7044B9802A
:10013B0006D0E0FB0202A1EF4E701CBD8008EBFF66
:10014B00EAFEE9FD80EBE98DF0A4FEE5F00201E4A7
:10015B00E9CDF9EAFEEBFFEF89F0A4FCE5F0CE89DF
:10016B00F0A42EFFE435F0CD89F0A42DFEE435F09C
:10017B008067EF4E7005BD80D780C3EF8BF0A4ACCA
:10018B00F0EE8BF0A42CFCE435F0F8EF8AF0A42C05
:10019B00E5F038FCE433CB8DF0A42CFCE5F03BF818
:1001AB00EE8AF0A42CFCE5F038F8E433CF89F0A408
:1001BB002CFCE5F038CF3400CE89F0A42FFFE5F00E
:1001CB003EFEE433C98DF0A42EFEE5F039CD8AF066
:1001DB00A42FFFE5F03EFEE43DFD33D0E0FB5007DE
:1001EB000BBB000F0202B5EC2CFCEF33FFEE33FE22
:0601FB00ED33FD02028D50
:1002010075F020800E75F010800575F0087D007E78
:10021100007F003392D530D503120376EC334010C2
:10022100EF33FFEE33FEED33FDEC33FCD5F0ED2281
:0E023100E5F0247EA2D513CC92E7CDCEFF22BD
:10023F00EDD2E7CD33EC3392D524814006E4FFFEB7
:10024F00FDFC22FCE4CFCECDCC24E0501174FF8016
:10025F00EDC3CC13CCCD13CDCE13CECF13CF0470B3
:07026F00F030D5DE0203763A
:10027600E9D2E7C933E833F892D5EDD2E7CD33ECCE
:0702860033FC5002B2D52247
:10028D00EC30E7100FBF000C0EBE00080DBD0004D2
:10029D000BEB6014A2D5EB13FCED92E7FD2274FF7E
:1002AD00FCFDFEFF22E480F8A2D574FF13FC7D80D7
:0302BD00E480EFEB
:03000000020932C0
:0C093200787FE4F6D8FD75814702097952
:1002C000BB010689828A83E0225002E722BBFE023C
:0902D000E32289828A83E493226F
:1002D900EF8DF0A4A8F0CF8CF0A428CE8DF0A42E39
:0202E900FE22F3
:1002EB00BC000BBE0029EF8DF084FFADF022E4CCF7
:1002FB00F875F008EF2FFFEE33FEEC33FCEE9DECC0
:10030B00984005FCEE9DFE0FD5F0E9E4CEFD22ED05
:10031B00F8F5F0EE8420D21CFEADF075F008EF2F4F
:10032B00FFED33FD4007985006D5F0F222C398FD40
:05033B000FD5F0EA22DD
:10034000C2D5EC30E709B2D5E4C39DFDE49CFCEED8
:1003500030E715B2D5E4C39FFFE49EFE1202EBC363
:10036000E49DFDE49CFC80031202EB30D507C3E45E
:060370009FFFE49EFE2247
:0E037600C3E49FFFE49EFEE49DFDE49CFC2298
:10038400D083D082F8E4937012740193700DA3A308
:1003940093F8740193F5828883E47374029368601C
:0603A400EFA3A3A380DF1C
:10093E00020CB2E493A3F8E493A34003F68001F211
:10094E0008DFF48029E493A3F85407240CC8C333BA
:10095E00C4540F4420C8834004F456800146F6DF89
:10096E00E4800B0102040810204080900ED1E47E3A
:10097E00019360BCA3FF543F30E509541FFEE4937E
:10098E00A360010ECF54C025E060A840B8E493A345
:10099E00FAE493A3F8E493A3C8C582C8CAC583CA70
:1009AE00F0A3C8C582C8CAC583CADFE9DEE780BE28
:010ED700001A
:00000001FF
