:10000300444154453A0054494D453A0054454D50F6
:100013003A004144313A00C0F9A4B0999282F88081
:100023009000000004000000000000000000000039
:1000330000000000000000000000000000000000BD
:10004300000000000000013FC080420420000000C7
:10005300000000000000008A1FFC4204F8000000BA
:10006300000000000000003F8001FFDE8800000068
:10007300000000000000012A87F0A20AF800000037
:1000830000000000000000BF8410A20A88000000E6
:1000930000000000000000801FFCA20AF80000001E
:1000A300000000000000009F90052FCAA40000007C
:1000B300000000000000018003E1A84AA80000003E
:1000C30000000000000000BFC2244844900000006C
:1000D30000000000000000928424A84AA800000049
:1000E30000000000000000A6583D0FD0C40000002F
:1000F30000000000000000000000000000000000FD
:1001030000001CFFC0000000000000000000000011
:1001130000002308378000000000000000000000FA
:1001230000004010084000FF90100800000000008D
:1001330000008186104000080810FF8600000000C0
:10014300000102494040007F0BFC080F0000000043
:1001530000010800402000100010490F00000000BB
:1001630000020800202001FFDD102A0F000000001C
:1001730000043183202000200491FFC6000000000A
:10018300000452449020007F04901C0600000000ED
:100193000009A4284C1000A104102A00000000004C
:1001A300000E44E9C390013F0470490600000000BB
:1001B300000082C5817000210A0188C6000000008A
:1001C300000101830080003F11FC080000000000D3
:1001D30000010C700080000000000000000000001F
:1001E3000002138710400000000000000000000020
:1001F30000022078A0400000000000000000000082
:100203000002200060400000000000000000000029
:10021300000221806040000071EE3C0000000000FD
:1002230000011198908000008E31C600000000008C
:1002330000010818808000012424830000000000CE
:1002430000009601010000014028030000000000A7
:10025300000049860300000140280300000000005D
:10026300000034788C00000100200300000000002F
:1002730000000E0130000000803006000000000086
:1002830000007187CE00000040680C0000000000F1
:100293000000E0780700000020C418000000000000
:1002A3000001AFFFC5800000118230000000000094
:1002B3000003A9B645C000000B0160000000000068
:1002C30000072F03C4E000000600C0000000000088
:1002D300000E1601887000000000000000000000FE
:1002E300000F080010F000000000000000000000F4
:1002F300000F840021F00000000000000000000057
:1003030000000000000000000000000000000000EA
:1003130000000000000000000000000000000000DA
:1003230000000000000000000000000000000000CA
:1003330000000000000000000000000000000000BA
:1003430000000000000000000000000000000000AA
:10035300000000000000000000000000000000009A
:10036300000000000000000000000000000000008A
:10037300000000000000000000000000000000007A
:10038300000000000000000000000000000000006A
:10039300000000000000000000000000000000005A
:1003A300000000000000000000000000000000004A
:1003B300000000000000000000000000000000003A
:1003C300000000000000000000000000000000002A
:1003D300000000000000000000000000000000001A
:1003E300000000000000000000000000000000000A
:1003F30000000000000000000000000000000000FA
:1004030000000000000000000000000000000000E9
:1004130000000000000000000000000000000000D9
:100423000001FFFFFFFFFFFFFFFFFFFFFFFFFFFFD6
:100433000007FFFFFFFFFFFFFFFFFFFFFFFFFFFFC0
:10044300E01FFFFFFFFFFFFFFFFFFFFFFFFFFFFFB8
:10045300F03FFE000000000000000000000000FF6D
:10046300FC7FE00000000000000000000000000727
:10047300FEFF00000000000000000000000000017B
:10048300FFFC00000000000000000000000000006E
:100493007FF80000000000000000000000000000E2
:1004A3001FF000000000000000000000000000003A
:1004B3000FE000000000000000000000000000004A
:1004C3000FE000000000000000000000000000003A
:1004D30007E0000000000000000000000000000032
:1004E30007E0000000000000000000000000000022
:1004F30007E0000000000000000000000000000012
:1005030007E0000000000000000000000000000001
:1005130007E00000000000000000000000000000F1
:1005230007E00000000000000000000000000000E1
:1005330007E0000000400000000000000000000091
:1005430007E0000000F00000000180001038000008
:1005530007E0000000E00000000380003C300000E2
:1005630007E0000001C0000000030000703000003D
:1005730007E0000001800003FF030000607000003B
:1005830007E00000FFFFF007FF070000E0606000E6
:1005930007E00000FFFFF00000060001C060F0006C
:1005A30007E00000C000600000FFF80380E1E00006
:1005B30007E00001C000600001FFF80780C380006E
:1005C30007E000018000E000000C300F80C700004E
:1005D30007E000018000C03FFE0C301F01DE000079
:1005E30007E00003FFFFC03FFE18703F01F8000063
:1005F30007E000030001C003801860F701F000006A
:1006030007E00003000180030038606603C00000B8
:1006130007E00007000180060030E00607800000C5
:1006230007E000060003800E2070C00E1F000000CC
:1006330007E00007FFFF001C7061C00C7F00000093
:1006430007E0000FFFFF001870E1800DF6000000C7
:1006530007E0000C0007003070C1801DC6000000D9
:1006630007E0000C00060060F18380190E00000013
:1006730007E0001C000601FFF38300180C000000D4
:1006830007E00018000E01FE3F0300380C070000CE
:1006930007E0001FFFFC01802E0600301C0700004E
:1006A30007E0003FFFFC00001C0E00301C0E0000A2
:1006B30007E00030001C000038FC00701FFC000045
:1006C30007E0007000180000F07800601FF80000D9
:1006D30007E00000000000004040000000000000B0
:1006E30007E0000000000000000000000000000020
:1006F30007E0000000000000000000000000000010
:1007030007E00000000000000000000000000000FF
:1007130007E00000000000000000000000000000EF
:1007230007E00000000000000000000000000000DF
:1007330007E00000000000000000000000000000CF
:1007430007E00000000000000000000000000000BF
:1007530007E00000000000000000000000000000AF
:1007630007E000000000000000000000000000009F
:1007730007E000000000000000000000000000008F
:1007830007F000000000000000000000000000006F
:100793000FF0000000000000000000000000000057
:1007A3001FFC00000000000000000000000000002B
:1007B3003FFE0000000000000000000000000000F9
:1007C300FFFF8000000000000000000000000003A5
:1007D300FE7FF80000000000000000000000001F82
:1007E300FC1FFFFFFFFFFFFFFFFFFFFFFFFFFFFFF9
:1007F300F80FFFFFFFFFFFFFFFFFFFFFFFFFFFFFFD
:10080300E003FFFFFFFFFFFFFFFFFFFFFFFFFFFF10
:10081300C0007FFFFFFFFFFFFFFFFFFFFFFFFFFEA4
:0B0823000030313233343536373839BD
:0C1B3300440000A1E363004200042E0007
:10121C00900015E0FAC4540FFF7E007C037DE812A9
:10122C000B04AC06AD07EA540F75F064A42DFDEC6D
:10123C0035F0FC900014E0FAC4540F75F00AA42D9C
:10124C00FFE5F03CFEEA540F7C002FFFEC3E8F8252
:10125C00F583E5825403700B7D64AE83120B16ED9F
:10126C004C600FAE83AF827C017D90120B16ED4C5F
:10127C007062900012E0120BD112AD0112B2021288
:10128C00B70312BC0412C00512C40612C80712CC54
:10129C000812D00912D41012D81112DC120000134B
:1012AC003D7B3102133D7B2902133D7B3102133D03
:1012BC007B30807D7B3180797B3080757B31807198
:1012CC007B31806D7B3080697B3180657B308061C8
:1012DC007B31805D900012E0120BD1130F011313C0
:1012EC0002131703131B04131F05132306132707DD
:1012FC00132B08132F09133310133711133B120040
:10130C0000133D7B31802A7B2880267B3180227B19
:10131C0030801E7B31801A7B3080167B3180127BB3
:10132C0031800E7B30800A7B3180067B3080027BE3
:03133C0031AF03CB
:01133F00228B
:0B1B4000EF1FAC0670011E4C70F62277
:1018730075900FE590540F640F601C7F887E1312E0
:101883001B40E590540FFF640F600CEF44F0F5909C
:09189300E59054F02FFF227FFFC5
:01189C002229
:1017DE00900094EFF0A3EDF0A3EBF0121AD5900069
:1017EE0094E0FF1217A1200102C322900095E0FFA2
:1017FE001217A1200102C322900096E0FF1217A13A
:0A180E00200102C322121B13D32293
:10189D00900097EFF0A3EDF0121AD5900097E0FFAE
:1018AD001217A1200102C322900098E0FF1217A188
:0A18BD00200102C322121B13D322E4
:05184600900099EFF095
:10184B00121AD5900099E004FF1217A12001037F13
:10185B00002212193990009AEFF0D200121AA61238
:07186B001B1390009AE0FF3F
:011872002253
:1010C5007D417F9012189D7F90121846EF75F002B2
:1010D500A4FF900017E5F0F0A3EFF0900017E0FAF9
:1010E500A3E0FB7C277D10FFAE02120B167E037F6B
:1010F500E8CFCDCFCECCCE120B1674242FF582744B
:10110500083EF583E493FFE4FCFDFE900057120BC7
:10111500C57C037DE8AF03AE02120B167E007F642B
:10112500CFCDCFCECCCE120B1674242FF5827408FA
:101135003EF583E493FFE4FCFDFE90005B120BC5D6
:10114500900017E0FAA3E0FB7C007D64FFAE02127D
:101155000B167E007F0ACFCDCFCECCCE120B1674E8
:10116500242FF58274083EF583E493FFE4FCFDFE2D
:1011750090005F120BC57C007D0AAF03AE02120B17
:101185001674242DF58274083CF583E493FFE4FC82
:10119500FDFE900063120BC5E4FD7F031219A8E460
:1011A50090009BF0A3F090009BE0FEA3E0FFC394AA
:1011B50005EE64809480502774152FF58274003EE7
:1011C500F583E493FF12182C7F1E7E001218F19010
:1011D500009CE004F0700690009BE004F080C77F5F
:1011E50098121A0890005BA3A3A3E0FF12182C9095
:1011F5000005E0FF12182C90005FA3A3A3E0FF12E7
:10120500182C7F2E12182C900063A3A3A3E0FF12C5
:07121500182C7F5602182C73
:101A76009000157420F07F647E001218F11219137D
:081A8600121A5B120BF780F845
:10171C007F81121B4B90000EEFF07F83121B4B90BE
:10172C00000FEFF07F85121B4B900010EFF07F87BE
:10173C00121B4B900011EFF07F89121B4B90001283
:10174C00EFF07F8B121B4B900013EFF07F8D121B71
:07175C004B900014EFF02296
:100DF900900015E0FF540AFEBE0A08EF54F0F0E037
:100E09002410F0900015E0FF540FFEBE0F08EF54B8
:100E1900F0F0E02409F012171CE4FD7F011219A873
:100E2900E490009DF090009DE0FFC394055018EFF9
:100E390090000393FF12182C7F1E7E001218F19068
:100E4900009DE004F080DE7F91121A08900015E001
:100E5900C4540F2430FF12182C900015E0540F24AD
:100E690030FF12182C900014E0C4540F2430FF12E4
:100E7900182C900014E0540F2430FF12182C7FC452
:100E890012182C7FEA12182C900012E0C4540F2477
:100E990030FF12182C900012E0540F2430FF121862
:100EA9002C7FD412182C7FC212182C900011E0C488
:100EB900540F2430FF12182C900011E0540F2430E5
:100EC900FF12182C7FC812182C7FD512182CE4FD9C
:100ED9007F031219A8E490009DF090009DE0FFC3E4
:100EE90094055018EF90000993FF12182C7F1E7E6D
:100EF900001218F190009DE004F080DE7F9C121A28
:100F090008900010E0C4540F2430FF12182C9000F0
:100F190010E0540F2430FF12182C7F3A12182C902D
:100F2900000FE0C4540F2430FF12182C90000FE07A
:100F3900540F2430FF12182C7F3A12182C90000EEF
:100F4900E0C4540F2430FF12182C90000EE0540F07
:060F59002430FF02182CF9
:100F5F00E490009EF012195EBF770D90009EE004A2
:100F6F00F0E0B407037401F090009EE024FE60529D
:100F7F001470030210021470030210331470030272
:100F8F001064147003021095240560030210C4123C
:100F9F00195EEF244560082440700BE4FF80027F48
:100FAF00011213CC80E9E4FD7F8E121B247B017AA2
:100FBF0000790E1218C77D807F8E121B24120DF937
:100FCF0080CD12195EEF240560082404700BE4FF36
:100FDF0080027F011215FB801AE4FD7F8E121B2405
:100FEF007B017A00790E1218C77D807F8E121B2429
:100FFF00120DF912195EEF240560082404700BE43A
:10100F00FF80027F011214AE801AE4FD7F8E121B47
:10101F00247B017A00790E1218C77D807F8E121BF8
:10102F0024120DF912195EEF240560082404700BC9
:10103F00E4FF80027F01121644801AE4FD7F8E12B6
:10104F001B247B017A00790E1218C77D807F8E12C8
:10105F001B24120DF912195EEF2405600824047089
:10106F000BE4FF80027F0112168C801AE4FD7F8E45
:10107F00121B247B017A00790E1218C77D807F8E98
:10108F00121B24120DF912195EEF240560082404B7
:10109F007009E4FF80027F010216D4E4FD7F8E12F7
:1010AF001B247B017A00790E1218C77D807F8E1268
:0510BF001B24120DF9D5
:0110C4002209
:1013CC00AC07EF7033900014E004F0E0B49A16E42C
:1013DC00F0A3E004F0E0FE540AFDBD0A08EE54F060
:1013EC00F0E02410F0900014E0FF540AFEBE0A084E
:1013FC00EF54F0F0E02410F0EC6401703390001422
:10140C00E014F0E0FF540FFEBE0F08EF54F0F0E0D4
:10141C002409F0900014E070177499F0A3E014F014
:10142C00E0FF540FFEBE0F08EF54F0F0E02409F07B
:01143C00228D
:1015FB00AC07EF7020900012E004F0E0B41303741A
:10160B0001F0900012E0FE540AFDBD0A08EE54F002
:10161B00F0E02410F0ECB4011F900012E014F0E0A5
:10162B0070037412F0900012E0FF540FFEBE0F080F
:09163B00EF54F0F0E02409F02264
:1014AE0090009FEFF0702B12121C900011E0B50708
:1014BE0002E4F0900011E004F0E0FF540AFEBE0AD0
:1014CE0011EF54F0F0E02410F07B017A00790E1247
:1014DE0018C790009FE064017026900011E0B401DF
:1014EE000912121CEF04900011F0900011E014F09C
:1014FE00E0FF540FFEBE0F08EF54F0F0E02409F0A9
:01150E0022BA
:10164400AC07EF701F900010E004F0E0B42402E453
:10165400F0900010E0FE540AFDBD0A08EE54F0F0CC
:10166400E02410F0ECB4011F900010E07003742427
:10167400F0900010E014F0E0FF540FFEBE0F08EFEE
:0816840054F0F0E02409F0220B
:10168C00AC07EF701F90000FE004F0E0FE540AFD71
:10169C00BD0A08EE54F0F0E02410F090000FE0B416
:1016AC006002E4F0ECB4011F90000FE07003746072
:1016BC00F090000FE014F0E0FF540FFEBE0F08EFA7
:0816CC0054F0F0E02409F022C3
:1016D400AC07EF701F90000EE004F0E0FE540AFD2A
:1016E400BD0A08EE54F0F0E02410F090000EE0B4CF
:1016F4006002E4F0ECB4011F90000EE0700374602B
:10170400F090000EE014F0E0FF540FFEBE0F08EF5F
:0817140054F0F0E02409F0227A
:101A40007D027C00EF1FAA0670011E4A6003008021
:0A1A5000F3ED1D70011CED4C70EA6F
:011A5A002269
:040BF700AB07AA0698
:100BFB00C3EA64809480501690007C7440F0EB1B29
:100C0B0070011AEBF4FBEAF4FAAD03FC800AE490F2
:100C1B00007CF0AD03AC02EC120A3190008C120B8D
:100C2B00C5E4FFFE7DC87C4090008CE0F8A3E0F9A2
:100C3B00A3E0FAA3E0FB120926E4FBFAF9783F12D2
:100C4B000835120A6AAA06AB077C277D10AF03AEE4
:100C5B0002120B6B900006EFF07C277D10AF03AEFA
:100C6B0002120B6B7E037FE8CFCDCFCECCCE120B17
:100C7B006BA3EFF07C037DE8AF03AE02120B6B7E30
:100C8B00007F64CFCDCFCECCCE120B6BA3EFF07C1D
:100C9B00007D64AF03AE02120B6B7E007F0ACFCDDB
:100CAB00CFCECCCE120B6BA3EFF0AE02AF037C001A
:100CBB007D0A120B6BA3EDF0E4900086F09000869A
:100CCB00E0FFD394044003020DC674062FF582E4B3
:100CDB003400F583E090001A93120BD10D9B800D1D
:100CEB0077820DAD900D65920D53990D2FA40D418B
:100CFB00B00D09C00D89F80D1CF900000DBD900059
:100D0B0086E02487F582E43400F5837430F0020D1D
:100D1B00BD900086E02487F582E43400F5837431BE
:100D2B00F0020DBD900086E02487F582E43400F5D7
:100D3B00837432F0807C900086E02487F582E43463
:100D4B0000F5837433F0806A900086E02487F58287
:100D5B00E43400F5837434F08058900086E02487E7
:100D6B00F582E43400F5837435F08046900086E01C
:100D7B002487F582E43400F5837436F080349000D8
:100D8B0086E02487F582E43400F5837437F0802203
:100D9B00900086E02487F582E43400F5837438F004
:100DAB008010900086E02487F582E43400F583748C
:100DBB0039F0900086E004F0020CC87F80121A080C
:100DCB00E4900086F0900086E0FFC39405501E74FB
:100DDB00872FF582E43400F583E0FF12182C7F1E79
:0D0DEB007E00121A40900086E004F080D8CF
:010DF80022D8
:061A8E00C2A2C2A0D2A218
:101A9400EFD2A27F08A2E092A1C2A0D2A0C313DF1A
:011AA400F44D
:011AA500221E
:101AEB00D2A27F08C313D2A1D2A0C2A0A2A192E717
:031AFB00DFF2FF18
:011AFE0022C5
:0F1B2400121A8EAF05121A94D2A0C2A2C2A12229
:0A1B4B00121A8E121AEBD2A0C2A2E9
:011B5500226D
:1018C7007E80E4FD7F8E121B247C07AF06120AEB95
:1018D700FD121B24740129F9E43AFA0E0EDCEC7DA3
:0618E700807F8E021B242D
:0418ED007F057E00F5
:0A18F100EF1FAC0670011E4C6017DB
:1018FB00E4900086F0900086E0C3949650E80000D8
:07190B000000E004F080EE93
:0119120022B2
:0A19CC00EF1FAC0670011E4C601303
:1019D600E49000A0F09000A0E0C3946450E8E00416
:0319E600F080F29C
:0119E90022DB
:101AFF00C294D295D29600000000E580339202C2C4
:031B0F0096A20299
:011B120022B0
:101A0800121AFF40FBC294C295C29600008F800054
:0C1A1800000000D29600000000C29622E0
:10181800900090E0FBA3E475F001120BA1A9F0FA87
:04182800120AEBFFB6
:10182C00121AFF40FBD294C295C2968F8000000022
:0A183C0000D29600000000C29622C0
:10191300D2977F34121A081218ED7F30121A081268
:1019230018ED7F0C121A081218ED7F01121A087FA6
:06193300057E000218F120
:1019A800EFB401047F808016EFB402047F90800EAC
:1019B800EFB403047F888006EFB404027F98EF2D0C
:0419C800FF021A08F8
:10150F007F08121A087F907E011218F17F0C121AB1
:10151F00087F907E011218F17F08121A087F907EC3
:10152F00011218F17F0C121A087F907E011218F128
:10153F007F08121A087FC87E001218F17F0C121A4A
:10154F00081218ED7F01121A087F057E000218F1AC
:0B143D00900090EBF0A3EAF0A3E9F0B0
:101448007F34121A08E4FDED2480FF121A087F8009
:10145800121A08E4900093F0121818900093E00410
:10146800F0E0C3941040F17F017E001219CC0DED1D
:10147800B420D4E4FDED2480FF121A087F88121AE4
:1014880008E4900093F0121818900093E004F0E03C
:10149800C3941040F17F017E001219CC0DEDB420E9
:0614A800D47F36021A0891
:101A24007F34121A081218ED7F30121A081218EDBA
:0C1A34007F01121A087F057E000218F1E5
:10155F00121A247F80121A08E4FEEE2430FF1218AC
:10156F002C0EEEB410F47F90121A08E4FEEE244015
:10157F00FF12182C0EEEB410F47F88121A08E4FE36
:10158F00EE2450FF12182C0EEEB410F47F98121A9E
:0F159F0008E4FEEE2460FF12182C0EEEB410F4D8
:0115AE00221A
:081B61001219A8AF0302182CB1
:101AD500D2A400D2A30000000000C2A400000000B0
:061AE50000C2A300002274
:101B1300C2A400D2A30000000000D2A40000000071
:011B2300229F
:1017A100E4FEEFA806088002C333D8FC30E704D278
:1017B100A48002C2A400D2A30000000000C2A30EB4
:1017C100EEB408DE0000D2A40000D2A30000003075
:0C17D100A404C2018002D201C2A30000E7
:0117DD0022E9
:10193900E4FFD2A4FE00C2A30000000000D2A3006D
:1019490000EF25E0FF30A4010F00000EEEB408E51A
:04195900C2A3000025
:01195D002267
:101AA600200004C2A48002D2A4000000D2A3000039
:081AB600000000C2A3000022A1
:10195E00C2A50000D2A5121ABEC2A3E4FFFEEF2557
:10196E00E0FFA2A4E4334FFFC2A30000D2A3000EF7
:04197E00EEB408EAD1
:011982002242
:0B1B5600EF1FAC0670011E4C70F62261
:101ABE00E4FFE4FEEEC3944A7480948150030E80DA
:061ACE00F30FEFB464EC1D
:011AD40022EF
:1019EA00D3EF9400EE940040147D6E7C00ED1D70E0
:0D19FA00011CED4C70F7EF1F70E61E80E33E
:011A070022BC
:10198300C2B77B46AF031BEF70FAD2B7E4FB30B7A5
:10199300117F017E001219EA0BEBD3940540EF7F10
:0419A30000227F019E
:0119A700221D
:0C15AF001219837F017E001219EA7FCC24
:1015BB00E4FBFAC2B7900088E004F0700690008755
:1015CB00E004F0EF1392B7900087E4F0A37406F0F9
:1015DB0090008774FFF5F0120BA145F070F2D2B7B3
:0F15EB00EFC313FF0BBB00010AEB64084A70C487
:0115FA0022CE
:101763007D087C00C2B70FBF0000D2B70FBF0000D7
:101773000FBF0000A2B7E433C43333335480FBE913
:10178300C3134BF97E007F04EF1FAA0670011E4AA4
:0D17930070F6ED1D70011CED4C70C9AF012A
:0117A0002226
:081B69001215AF7F440215BB09
:081B71001215AF7FBE0215BB87
:101A5B00E4FFFE121B69121B71121763900086EFD5
:0A1A6B00F0121763EFFEE0FDEDFF3F
:011A7500224E
:10082E00020AD6E86480F8E933E83360110460F018
:10083E00ED33EC337009E8FCE9FDEAFEEBFF220430
:10084E0060DED3EB9FEA9EE99DE8C2E78CF0C2F72B
:10085E0095F0400CE8CCF8E9CDF9EACEFAEBCFFBF7
:10086E00120AA185D0F05804700320D5B3E80470A5
:10087E00075002B2D5020AE092D5EC0460F7E4CC40
:10088E00C0E0C398F8603B94186008400DD0E0FBC0
:10089E00020AB8E4FBFAC9FC8028E830E406E4C991
:1008AE00FBE4CAFCE830E305E4C9CACBFCE8540714
:1008BE006010F8C3E913F9EA13FAEB13FBEC13FC1F
:1008CE00D8F130F52FC3E49CFCEF9BFFEE9AFEEDC2
:1008DE0099FDD0E0FBEF4E4D4C701222DB03020A65
:1008EE00DDEC2CFCEF33FFEE33FEED33FDED30E7A8
:1008FE00EB020AB8EF2BFFEE3AFEED39FDD0E0FB2E
:10090E0050130BBB0003020AE0ED13FDEE13FEEFD6
:08091E0013FFEC13FC020AB800
:10092600EC4D6011E8497017ED33EC3304600DE4CB
:10093600FCFFFEFD22E933E8330470F8020AD61202
:100946000AA158046009E4CC248150062850090203
:100956000AE0284003020ADDC0E0EB4A7044B98091
:1009660006D0E0FB020ACCEF4E701CBD8008EBFF00
:10097600EAFEE9FD80EBE98DF0A4FEE5F0020A0F40
:10098600E9CDF9EAFEEBFFEF89F0A4FCE5F0CE89AC
:10099600F0A42EFFE435F0CD89F0A42DFEE435F069
:1009A6008067EF4E7005BD80D780C3EF8BF0A4AC97
:1009B600F0EE8BF0A42CFCE435F0F8EF8AF0A42CD2
:1009C600E5F038FCE433CB8DF0A42CFCE5F03BF8E5
:1009D600EE8AF0A42CFCE5F038F8E433CF89F0A4D5
:1009E6002CFCE5F038CF3400CE89F0A42FFFE5F0DB
:1009F6003EFEE433C98DF0A42EFEE5F039CD8AF033
:100A0600A42FFFE5F03EFEE43DFD33D0E0FB5007AA
:100A16000BBB000F020AE0EC2CFCEF33FFEE33FEBB
:060A2600ED33FD020AB8E9
:100A2C0075F020800E75F010800575F0087D007E45
:100A3C00007F003392D530D503120BB7EC33401046
:100A4C00EF33FFEE33FEED33FDEC33FCD5F0ED224E
:0E0A5C00E5F0247EA2D513CC92E7CDCEFF228A
:100A6A00EDD2E7CD33EC3392D524814006E4FFFE84
:100A7A00FDFC22FCE4CFCECDCC24E0501174FF80E3
:100A8A00EDC3CC13CCCD13CDCE13CECF13CF047080
:070A9A00F030D5DE020BB7BE
:100AA100E9D2E7C933E833F892D5EDD2E7CD33EC9B
:070AB10033FC5002B2D52214
:100AB800EC30E7100FBF000C0EBE00080DBD00049F
:100AC8000BEB6014A2D5EB13FCED92E7FD2274FF4B
:100AD800FCFDFEFF22E480F8A2D574FF13FC7D80A4
:030AE800E480EFB8
:03000000021340A8
:0C134000787FE4F6D8FD75812002138749
:100AEB00BB010689828A83E0225002E722BBFE0209
:090AFB00E32289828A83E493223C
:100B0400EF8DF0A4A8F0CF8CF0A428CE8DF0A42E05
:020B1400FE22BF
:100B1600BC000BBE0029EF8DF084FFADF022E4CCC3
:100B2600F875F008EF2FFFEE33FEEC33FCEE9DEC8C
:100B3600984005FCEE9DFE0FD5F0E9E4CEFD22EDD2
:100B4600F8F5F0EE8420D21CFEADF075F008EF2F1C
:100B5600FFED33FD4007985006D5F0F222C398FD0D
:050B66000FD5F0EA22AA
:100B6B00C2D5EC30E709B2D5E4C39DFDE49CFCEEA5
:100B7B0030E715B2D5E4C39FFFE49EFE120B16C3FC
:100B8B00E49DFDE49CFC8003120B1630D507C3E4F7
:060B9B009FFFE49EFE2214
:100BA100A3F8E0C5F025F0F0E58215827002158307
:060BB100E0C838F0E82264
:0E0BB700C3E49FFFE49EFEE49DFDE49CFC224F
:0C0BC500ECF0A3EDF0A3EEF0A3EFF022A3
:100BD100D083D082F8E4937012740193700DA3A3B3
:100BE10093F8740193F5828883E4737402936860C7
:060BF100EFA3A3A380DFC7
:10134C00021A76E493A3F8E493A34003F68001F227
:10135C0008DFF48029E493A3F85407240CC8C333A2
:10136C00C4540F4420C8834004F456800146F6DF71
:10137C00E4800B0102040810204080901B33E47EB3
:10138C00019360BCA3FF543F30E509541FFEE49366
:10139C00A360010ECF54C025E060A840B8E493A32D
:1013AC00FAE493A3F8E493A3C8C582C8CAC583CA58
:1013BC00F0A3C8C582C8CAC583CADFE9DEE780BE10
:011B3F0000A5
:00000001FF
