:0706C1000113000214000008
:1006840012066E1206991206AEE513B401F8E4FFE1
:0506940012044E80F18C
:02044E008F0815
:10045000E4F50CF50BF50AF5097F241206C9AF087F
:100460001206268F0C8E0B8D0A8C097F007E807DF4
:10047000867C43AB0CAA0BA90AA8091202A1601C36
:10048000401AAC14AD15E412031FAB0CAA0BA90A59
:10049000A80912000A1203588E148F15AE14AF1556
:1004A0007C037DE81203EB8E0D8F0EEF2430FF12DC
:1004B00006C9AE0DAF0E7C037DE81203D9C3E51566
:1004C0009FFFE5149EFE7C007D641203EB8E0F8F70
:1004D00010D3E5109409E50F6480948040067E00F7
:1004E0007F098004AE0FAF108E0F8F10EF2430FF06
:1004F0001206C9AE0DAF0E7C037DE81203D9C3E529
:10050000159FFBE5149EFAAE0FAF107C007D6412C0
:1005100003D9C3EB9FFFEA9EFE7D0A1203EB8E1107
:100520008F12D3E5129409E5116480948040067E11
:10053000007F098004AE11AF128E118F12EF2430AC
:10054000FF1206C9AE0DAF0E7C037DE81203D9C3BE
:10055000E5159FFBE5149EFAAE0FAF107C007D649D
:100560001203D9C3EB9FFBEA9EFAAE11AF127D0ACC
:100570001203D9C3EB9FFFEA9EFED3EF9409EE640A
:1005800080948040031D8004AC06AD07ED2430FF4D
:0A0590001206C97F1E7E000206530A
:10062600EF4488F5C500000000E5C530E4FB53C57E
:10063600EFACC6E4120324E4FBFA79A0784012007A
:0C064600FB7B0A7AD7792378401202046B
:010652002285
:100699007592FF7591FF7590FFE4F5C675C5807F6A
:0506A90002FE020653F1
:10065300EF1FAA0670011E4A60107C137D88ED1DF2
:0A066300AA0470011C4A60E880F44C
:01066D00226A
:1006AE0020B70F30B7FD0513E513D394014003E4D3
:0306BE00F513220F
:10066E00759850758920758780758BFA758DFAD2BD
:06067E00ACD2AFD28E22C7
:0806C9008F993099FDC29922BE
:100003000203C4E86480F8E933E83360110460F064
:10001300ED33EC337009E8FCE9FDEAFEEBFF220463
:1000230060DED3EB9FEA9EE99DE8C2E78CF0C2F75E
:1000330095F0400CE8CCF8E9CDF9EACEFAEBCFFB2A
:1000430012038F85D0F05804700320D5B3E80470F1
:10005300075002B2D50203CE92D5EC0460F7E4CC8C
:10006300C0E0C398F8603B94186008400DD0E0FBF3
:100073000203A6E4FBFAC9FC8028E830E406E4C9DD
:10008300FBE4CAFCE830E305E4C9CACBFCE8540747
:100093006010F8C3E913F9EA13FAEB13FBEC13FC52
:1000A300D8F130F52FC3E49CFCEF9BFFEE9AFEEDF5
:1000B30099FDD0E0FBEF4E4D4C701222DB0302039F
:1000C300CBEC2CFCEF33FFEE33FEED33FDED30E7ED
:1000D300EB0203A6EF2BFFEE3AFEED39FDD0E0FB7A
:1000E30050130BBB00030203CEED13FDEE13FEEF23
:0800F30013FFEC13FC0203A64D
:1000FB00EC4D6011E8497017ED33EC3304600DE4FF
:10010B00FCFFFEFD22E933E8330470F80203C4124E
:10011B00038F58046009E4CC24815006285009024F
:10012B0003CE2840030203CBC0E0EB4A7044B980F6
:10013B0006D0E0FB0203BAEF4E701CBD8008EBFF4C
:10014B00EAFEE9FD80EBE98DF0A4FEE5F00201E4A7
:10015B00E9CDF9EAFEEBFFEF89F0A4FCE5F0CE89DF
:10016B00F0A42EFFE435F0CD89F0A42DFEE435F09C
:10017B008067EF4E7005BD80D780C3EF8BF0A4ACCA
:10018B00F0EE8BF0A42CFCE435F0F8EF8AF0A42C05
:10019B00E5F038FCE433CB8DF0A42CFCE5F03BF818
:1001AB00EE8AF0A42CFCE5F038F8E433CF89F0A408
:1001BB002CFCE5F038CF3400CE89F0A42FFFE5F00E
:1001CB003EFEE433C98DF0A42EFEE5F039CD8AF066
:1001DB00A42FFFE5F03EFEE43DFD33D0E0FB5007DE
:1001EB000BBB000F0203CEEC2CFCEF33FFEE33FE08
:0601FB00ED33FD0203A636
:100201000203CEEC5D046005E8590470030203C4E7
:1002110012038F580460F6EC4860F2EC7004FDFEA6
:10022100FF22C860DB2481C85009C39860025006D0
:100231000203CB9850CAF582E9294B4A7005AB827B
:100241000203BA75F0007C1A7880C3EF9BEE9AED39
:1002510099400DC3EF9BFFEE9AFEED99FDE842F048
:10026100DC23ACF0D0E0FFD0E0FED0E0FDAB82209B
:10027100E7101BEB60BAEC2CFCEF33FFEE33FEED25
:1002810033FD0203A6E803F830E705C0F075F0007E
:10029100EF2FFFEE33FEED33FD40B830E7C280AA09
:1002A10074F8CC6480CCC86480C8F58204604FC304
:1002B100EB9FF5F0EA9E42F0E99D42F0E89C45F0A3
:1002C100603C501DE5825FFFE582D313CB5BCBF42D
:1002D1002B5582FB50280ABA002409B90020088056
:1002E1001DE5825BFBE582D313CF5FCFF4C3132FF0
:1002F1005582FF50090EBE00050DBD00010CC3EB78
:100301009FF5F0EA9E42F0E99D42F0E89C45F060DD
:0903110007CC4820E701B3EC22FF
:10031A0075F020800E75F010800575F0087D007E5E
:10032A00007F003392D530D503120440EC334010DD
:10033A00EF33FFEE33FEED33FDEC33FCD5F0ED2267
:0E034A00E5F0247EA2D513CC92E7CDCEFF22A3
:10035800EDD2E7CD33EC3392D524814006E4FFFE9D
:10036800FDFC22FCE4CFCECDCC24E0501174FF80FC
:10037800EDC3CC13CCCD13CDCE13CECF13CF047099
:07038800F030D5DE02044055
:10038F00E9D2E7C933E833F892D5EDD2E7CD33ECB4
:07039F0033FC5002B2D5222D
:1003A600EC30E7100FBF000C0EBE00080DBD0004B8
:1003B6000BEB6014A2D5EB13FCED92E7FD2274FF64
:1003C600FCFDFEFF22E480F8A2D574FF13FC7D80BD
:0303D600E480EFD1
:0300000002059A5C
:0C059A00787FE4F6D8FD7581150205E1BC
:1003D900EF8DF0A4A8F0CF8CF0A428CE8DF0A42E38
:0203E900FE22F2
:1003EB00BC000BBE0029EF8DF084FFADF022E4CCF6
:1003FB00F875F008EF2FFFEE33FEEC33FCEE9DECBF
:10040B00984005FCEE9DFE0FD5F0E9E4CEFD22ED04
:10041B00F8F5F0EE8420D21CFEADF075F008EF2F4E
:10042B00FFED33FD4007985006D5F0F222C398FD3F
:05043B000FD5F0EA22DC
:0E044000C3E49FFFE49EFEE49DFDE49CFC22CD
:1005A600020684E493A3F8E493A34003F68001F2E1
:1005B60008DFF48029E493A3F85407240CC8C33356
:1005C600C4540F4420C8834004F456800146F6DF25
:1005D600E4800B01020408102040809006C1E47EEE
:1005E600019360BCA3FF543F30E509541FFEE4931A
:1005F600A360010ECF54C025E060A840B8E493A3E1
:10060600FAE493A3F8E493A3C8C582C8CAC583CA0B
:10061600F0A3C8C582C8CAC583CADFE9DEE780BEC3
:0106C8000031
:00000001FF
