:10022E002050656368696E20536369656E6365204F
:10023E0057656C636F6D6520746F207468652077E9
:0B024E006F726C64206F66204D4355FA
:1002B800D3EF9400EE9400400F7D267C82DCFEDDB7
:0802C800FAEF1F70EB1E80E845
:0102D000220B
:10008F007F801202EAE4F51EE51E90022E93FF1206
:10009F000302051EE51EC3941040ED7FC01202EA55
:1000AF00E4F51EE51E90023E93FF120302051EE5C6
:1000BF001EC3941B40ED7F071202EA7FC01202EAB3
:1000CF00E4F51EE51E90023E93FF1203027F327E7F
:0F00DF00001202B8051EE51EC3941B40E680DC2C
:10029D001203381203311201C61201851201FD8FAE
:0B02AD001FE51FF460F612018580F1D0
:1000EE0030313233343536373839616263646566A0
:1000FE0000040F120F0A1F02020F090F090F091138
:10010E0000000F090F090F000000000000000000A2
:10011E0000000000000000000000000000000000D1
:10012E0000000000000000000000000000000000C1
:01013E0000C0
:10031A0011083031323334353637383941424344A3
:03032A0045460045
:1002D100D3EF9400EE9400400F7DC77C01DCFEDD7E
:0802E100FAEF1F70EB1E80E82C
:0102E90022F2
:1002EA00C292C290C29112027C051DD292051DC211
:0802FA00927F017E000202D197
:10030200C292D290C29112027C051DD292051DC2E8
:08031200927F017E000202D17E
:1001C6007F381202EA7F0C1202EA7F061202EA7FE9
:1001D600011202EA7F057E001202D17F401202EA76
:1001E600E4F51CE51C9000FF93FF120302051CE5D5
:0601F6001CC3944040ED23
:0101FC0022E0
:10025900EF70047F8080027FC01202EAE4F51C740B
:1002690008251CF8E6FF120302051CE51CC39410BF
:0202790040ED56
:01027B002260
:10013F00E4F51BF51A7F801202EAE4F519AF1B05EF
:10014F001B1203020519E519C3941040F07FC0126A
:10015F0002EAE4F519AF1B051B1203020519E51995
:10016F00C3941040F07F887E131202D1051AE51A4E
:05017F00C3940840C01C
:010184002258
:1001850075084B750945750A59750B43750C4F75FF
:100195000D44750E45750F3A751030751178E51FCC
:1001A500C4540F9000EE93F512E51F540F93F51309
:1001B500751420751520751620751720E4FF0202A9
:0101C50059E0
:03033800C294224A
:10027C00E4FDFCEF30E704D2938002C293D294EFFA
:10028C0025E0FFC2940DBD00010CED64084C70E339
:01029C00223F
:03032D00011F3E6F
:07033100D295C296D297227B
:1001FD00E4FFFEC297D2973095050FBF00010EE4C4
:10020D00FDFCD296EF25E0FFEE33FEC2963095054C
:10021D000FBF00010E0DBD00010CED64074C70E227
:01022D0022AE
:03000000020003F8
:0C000300787FE4F6D8FD75811F02004AEA
:10000F0002029DE493A3F8E493A34003F68001F268
:10001F0008DFF48029E493A3F85407240CC8C333F2
:10002F00C4540F4420C8834004F456800146F6DFC1
:10003F00E4800B010204081020408090031AE47E34
:10004F00019360BCA3FF543F30E509541FFEE493B6
:10005F00A360010ECF54C025E060A840B8E493A37D
:10006F00FAE493A3F8E493A3C8C582C8CAC583CAA8
:10007F00F0A3C8C582C8CAC583CADFE9DEE780BE60
:0103300000CC
:00000001FF
