:1000030020202020C6D5D6D0BFC6BCBC20202020AF
:1000130000BDF8C8EBB5A5C6ACBBFACAC0BDE720A6
:1000230020007777772E7072656368696E2E636F31
:100033006D200054454C3A3735352D32393332353E
:100043003138370001FFFFFFFFFFFFFFFFFFFFFF17
:10005300FFFFFF0007FFFFFFFFFFFFFFFFFFFFFFA4
:10006300FFFFFFE01FFFFFFFFFFFFFFFFFFFFFFF9C
:10007300FFFFFFF03FFE0000000000000000000053
:100083000000FFFC7FE00000000000000000000013
:10009300000007FEFF000000000000000000000059
:1000A300000001FFFC000000000000000000000051
:1000B3000000007FF80000000000000000000000C6
:1000C3000000001FF000000000000000000000001E
:1000D3000000000FE000000000000000000000002E
:1000E3000000000FE000000000000000000000001E
:1000F30000000007E0000000000000000000000016
:1001030000000007E0000000000000000000000005
:1001130000000007E00000000000000000000000F5
:1001230000000007E00000000000000000000000E5
:1001330000000007E00000000000000000000000D5
:1001430000000007E00000000000000000000000C5
:1001530000000007E0000000400000000000000075
:1001630000000007E0000000F00000000180001024
:1001730038000007E0000000E00000000380003CBE
:1001830030000007E0000001C00000000300007021
:1001930030000007E0000001800003FF030000605F
:1001A30070000007E00000FFFFF007FF070000E01A
:1001B30060600007E00000FFFFF00000060001C0E0
:1001C30060F00007E00000C000600000FFF803805B
:1001D300E1E00007E00001C000600001FFF80780D4
:1001E300C3800007E000018000E000000C300F80B6
:1001F300C7000007E000018000C03FFE0C301F0174
:10020300DE000007E00003FFFFC03FFE18703F0160
:10021300F8000007E000030001C003801860F70145
:10022300F0000007E000030001800300386066036C
:10023300C0000007E00007000180060030E0060769
:1002430080000007E000060003800E2070C00E1F30
:1002530000000007E00007FFFF001C7061C00C7F77
:1002630000000007E0000FFFFF001870E1800DF6AB
:1002730000000007E0000C0007003070C1801DC6BD
:1002830000000007E0000C00060060F18380190EF7
:1002930000000007E0001C000601FFF38300180CB8
:1002A30000000007E00018000E01FE3F0300380CB9
:1002B30007000007E0001FFFFC01802E0600301C32
:1002C30007000007E0003FFFFC00001C0E00301C8D
:1002D3000E000007E00030001C000038FC00701F17
:1002E300FC000007E0007000180000F07800601FB9
:1002F300F8000007E000000000000040400000009C
:1003030000000007E0000000000000000000000003
:1003130000000007E00000000000000000000000F3
:1003230000000007E00000000000000000000000E3
:1003330000000007E00000000000000000000000D3
:1003430000000007E00000000000000000000000C3
:1003530000000007E00000000000000000000000B3
:1003630000000007E00000000000000000000000A3
:1003730000000007E0000000000000000000000093
:1003830000000007E0000000000000000000000083
:1003930000000007E0000000000000000000000073
:1003A30000000007F0000000000000000000000053
:1003B3000000000FF000000000000000000000003B
:1003C3000000001FFC00000000000000000000000F
:1003D3000000003FFE0000000000000000000000DD
:1003E300000000FFFF80000000000000000000008C
:1003F300000003FE7FF80000000000000000000082
:1004030000001FFC1FFFFFFFFFFFFFFFFFFFFFFFBA
:10041300FFFFFFF80FFFFFFFFFFFFFFFFFFFFFFFE0
:10042300FFFFFFE003FFFFFFFFFFFFFFFFFFFFFFF4
:10043300FFFFFFC0007FFFFFFFFFFFFFFFFFFFFF87
:04044300FFFFFE00B9
:0406B6007F057E003E
:0A06BA00EF1FAC0670011E4C601229
:1006C400E4F50CE50CC3949650EC00000000050C16
:0206D40080F1B3
:0106D6002201
:0A071300EF1FAC0670011E4C600ED3
:0E071D00E4F50CE50CC3946450EC050C80F57B
:01072B0022AB
:0205FE00AB0749
:10060000E4FAEB30E704D2A58002C2A5D2A7E50F39
:100610002401F50FE4350EF50EE4350DF50DE43546
:100620000CF50CC2A7FCE50F2401F50FE4350EF51F
:100630000EE4350DF50DE43CF50CEB25E0FB0ABAB4
:0206400008C0F0
:010642002295
:02069100AE07B2
:10069300EE54F0F9EEC454F0FED2A67FF81205FE34
:1006A300AF011205FEAF061205FEC2A67F057E004E
:0306B3000206BA82
:03064300ED93FF35
:02064600AE07FD
:10064800EE54F0F9EEC454F0FED2A67FFA1205FE7D
:10065800AF011205FEAF061205FEC2A67F057E0099
:030668000206BACD
:10066B00C2B27F341206911206B67F301206911277
:10067B0006B67F0F1206911206B67F011206917F06
:06068B00057E000206BA24
:1006D700BF01047F808013BF02047F90800CBF039B
:1006E700047F888005BF04027F98EF2DFF020691E3
:100562007F081206917F907E011206BA7F0C120656
:10057200917F907E011206BA7F081206917F907ECB
:10058200011206BA7F0C1206917F907E011206BA02
:100592007F081206917FC87E001206BA7F0C1206EF
:1005A200911206B67F011206917F057E000206BAFD
:0604DE008B088A09890A5F
:1004E4007F34120691E4FDED2480FF1206917F8093
:1004F400120691E4F50BAB08050AE50AAA09700295
:10050400050914F912072CFF120646050BE50BC367
:10051400941040E27F017E001207130DBD20C8E451
:10052400FDED2480FF1206917F88120691E4F50BFD
:10053400AB08050AE50AAA097002050914F91207AD
:100544002CFF120646050BE50BC3941040E27F0115
:0E0554007E001207130DBD20C87F36020691EF
:1006F7007F341206911206B67F301206911206B6A3
:0C0707007F011206917F057E000206BAF9
:1005B2001206F77F80120691E4FDED2430FF120649
:1005C200460DBD10F57F90120691E4FDED2440FF2B
:1005D2001206460DBD10F57F88120691E4FDED244A
:1005E20050FF1206460DBD10F57F98120691E4FDEC
:0B05F200ED2460FF1206460DBD10F561
:0105FD0022DB
:10044700C2A6C2A77F647E001206BA12066BE4FD3D
:100457007F011206D79000031206437F1E7E00120B
:1004670006BA0DBD10EFE4FD7F021206D790001407
:100477001206437F1E7E001206BA0DBD10EFE4FD83
:100487007F031206D7ED90002593FF1206467F1EC5
:100497007E001206BA0DBD10ECE4FD7F041206D7EC
:1004A700ED90003693FF1206467F1E7E001206BAB5
:1004B7000DBD10EC7FE87E031206BA120562120624
:1004C700F77BFF7A0079471204DE7FD07E0712069A
:0704D700BA1206F7020455FA
:03000000020745AF
:0C074500787FE4F6D8FD75810F020447B0
:10072C00BB010689828A83E0225002E722BBFE02CB
:09073C00E32289828A83E49322FE
:00000001FF
