:0D0129001200037BC0E4FDFF12013680F6DA
:0A014E00EF1F70011E144E70F7221F
:10010400E4FEEF139293EFC313FFC294D2940EBE96
:0201140008F0F1
:0101160022C6
:10005300040F120F0A1F02020F090F090F090913D8
:100063001F11111F1111FF000E0A0E001F11111F86
:10007300041F081F090F090902021F060A120206BC
:080083001C141C030404040317
:04011700C2007F386B
:0E011B00120104A2009292C291D290C29022D0
:100003001201177F2C7E011200D61201171200D2A3
:100013001201171200D21201171200D2C2007F0C74
:1000230012011B1200D2C2007F0112011B1200D267
:10003300C2007F4012011BE4F50BE50B90005393C4
:0F004300FFD20012011B050BE50BC3944040EBED
:01005200228B
:1000B0008F0C8D0DE50C700AE50D4480FFC2001217
:1000C000011BE50CB4010AE50D44C0FFC20012019A
:0200D0001B22F1
:0C0136008B0B1200B0D200AF0B02011BBB
:10008B008B088A09890AAB08AA09A90A1200EBFF97
:10009B006012D20012011B7401250AF50AE435091E
:0500AB00F50980E222CE
:0400D2007F647E00C9
:1000D6007DF4D3EF9400EE94004009DDFEEF1F702F
:0400E600F11E80EE99
:0100EA0022F3
:03000000020142B8
:0C014200787FE4F6D8FD758120020129C9
:1000EB00BB010689828A83E0225002E722BBFE0213
:0900FB00E32289828A83E4932246
:00000001FF
