:100C8F00444154453A0054494D453A0054454D505E
:100C9F003A004144313A0030313233343536373847
:010CAF00390B
:100AA40090008BEFF0A3EDF0A3EBF0120D6F90002C
:100AB4008BE0FF120A67200102C32290008CE0FF42
:100AC400120A67200102C32290008DE0FF120A6718
:0A0AD400200102C322120DADD3224F
:100B390090008EEFF0A3EDF0120D6F90008EE0FFA4
:100B4900120A67200102C32290008FE0FF120A6790
:0A0B5900200102C322120DADD322C9
:050B0C00900090EFF0E5
:100B1100120D6F900090E004FF120A672001037F1D
:100B21000022120C21900091EFF0D200120D571209
:070B31000DAD900091E0FF03
:010B3800229A
:100B6300E4900077F0A3F0120BFB7F80120CEC12E1
:100B73000D24900077EEF0A3EFF01203947F587EDC
:060B8300021209EB80E400
:040B89007F057E0066
:0A0B8D00EF1FAC0670011E4C60174C
:100B9700E4900094F0900094E0C3949650E800002D
:070BA7000000E004F080EE05
:010BAE002224
:1009A4007F81120DD9900005EFF07F83120DD9904D
:1009B4000006EFF07F85120DD9900007EFF07F87D6
:1009C400120DD9900008EFF07F89120DD99000091B
:1009D400EFF07F8B120DD990000AEFF07F8D120D8E
:0709E400D990000BEFF02297
:10059E0090000CE0FF540AFEBE0A08EF54F0F0E0A3
:1005AE002410F090000CE0FF540FFEBE0F08EF5425
:1005BE00F0F0E02409F01209A4E4FD7F01120C6BA7
:1005CE00E4900095F0900095E0FFC394055014EF71
:1005DE00900C8F93FF120AF2120B89900095E00493
:1005EE00F080E27F91120CEC90000CE0C4540F24CA
:1005FE0030FF120AF290000CE0540F2430FF120A62
:10060E00F290000BE0C4540F2430FF120AF2900057
:10061E000BE0540F2430FF120AF27FC4120AF27F4D
:10062E00EA120AF2900009E0C4540F2430FF120AB5
:10063E00F2900009E0540F2430FF120AF27FD41218
:10064E000AF27FC2120AF2900008E0C4540F24305E
:10065E00FF120AF2900008E0540F2430FF120AF243
:10066E007FC8120AF27FD5120AF2E4FD7F03120C44
:10067E006BE4900095F0900095E0FFC39405501444
:10068E00EF900C9593FF120AF2120B89900095E0F1
:10069E0004F080E27F9C120CEC900007E0C4540F33
:1006AE002430FF120AF2900007E0540F2430FF129C
:1006BE000AF27F3A120AF2900006E0C4540F243078
:1006CE00FF120AF2900006E0540F2430FF120AF2D5
:1006DE007F3A120AF2900005E0C4540F2430FF1244
:0E06EE000AF2900005E0540F2430FF020AF2D9
:04039400AB07AA0603
:10039800C3EA64809480501690006E7440F0EB1BA2
:1003A80070011AEBF4FBEAF4FAAD03FC800AE4905E
:1003B800006EF0AD03AC02EC12020690007F12034F
:1003C80088E4FFFE7DC87C4090007FE0F8A3E0F958
:1003D800A3E0FAA3E0FB1200FBE4FBFAF9783F1272
:1003E800000A12023FAA06AB077C277D10AF03AEB6
:1003F8000212032E900000EFF07C277D10AF03AEB1
:100408000212032E7E037FE8CFCDCFCECCCE1203CF
:100418002EA3EFF07C037DE8AF03AE0212032E7E1D
:10042800007F64CFCDCFCECCCE12032EA3EFF07CCD
:10043800007D64AF03AE0212032E7E007F0ACFCD8B
:10044800CFCECCCE12032EA3EFF0AE02AF037C00CA
:100458007D0A12032EA3EDF0E4900079F090007964
:10046800E0FFD39404400302056774002FF582E48B
:100478003400F583E0B40A00400302055E90048C62
:10048800F82828730204AA0204BD0204D00204E278
:100498000204F402050602051802052A02053C02B8
:1004A800054E900079E0247AF582E43400F58374EF
:1004B80030F002055E900079E0247AF582E4340099
:1004C800F5837431F002055E900079E0247AF582B4
:1004D800E43400F5837432F0807C900079E0247A6B
:1004E800F582E43400F5837433F0806A900079E093
:1004F800247AF582E43400F5837434F0805890004F
:1005080079E0247AF582E43400F5837435F0804686
:10051800900079E0247AF582E43400F5837436F0AB
:100528008034900079E0247AF582E43400F583740D
:1005380037F08022900079E0247AF582E43400F5DF
:10054800837438F08010900079E0247AF582E434DE
:1005580000F5837439F0900079E004F00204657FB7
:1005680080120CECE4900079F0900079E0FFC394DD
:1005780005501E747A2FF582E43400F583E0FF12EB
:100588000AF27F037E001209EB900079E004F08004
:06059800D87F65020AF2A3
:1006FC007D417F90120B397F90120B0CEF75F0023D
:10070C00A4FF90000EE5F0F0A3EFF090000EE0FADD
:10071C00A3E0FB7C277D10FFAE021202D97E037F83
:10072C00E8CFCDCFCECCCE1202D974A62FF58274E1
:10073C000C3EF583E493FFE4FCFDFE90004E1203A7
:10074C00887C037DE8AF03AE021202D97E007F6481
:10075C00CFCDCFCECCCE1202D974A62FF582740C8D
:10076C003EF583E493FFE4FCFDFE900052120388F7
:10077C0090000EE0FAA3E0FB7C007D64FFAE021259
:10078C0002D97E007F0ACFCDCFCECCCE1202D97447
:10079C00A62FF582740C3EF583E493FFE4FCFDFE7A
:1007AC009000561203887C007D0AAF03AE02120241
:1007BC00D974A62DF582740C3CF583E493FFE4FC0C
:1007CC00FDFE90005A120388E4FD7F03120C6BE4CB
:1007DC00900092F0A3F0900092E0FEA3E0FFC3948F
:1007EC0005EE64809480502374A12FF582740C3E26
:1007FC00F583E493FF120AF2120B89900093E00444
:10080C00F07006900092E004F080CB7F98120CEC14
:10081C00900052A3A3A3E0FF120AF2900056A3A3E8
:10082C00A3E0FF120AF27F2E120AF290005AA3A341
:0B083C00A3E0FF120AF27F56020AF24E
:0809EB00900083EEF0A3EFF091
:1009F300A3E4F0A37402F090008374FFF5F01203F4
:100A03006445F0600512000080ED900086E024FF4D
:100A1300F0900085E034FFF0D3A3E09400900085CC
:050A2300E0940050D238
:010A280022AB
:060D3F00C2A2C2A0D2A274
:100D4500EFD2A27F08A2E092A1C2A0D2A0C313DF76
:010D5500F4A9
:010D5600227A
:100D8500D2A27F08C313D2A1D2A0C2A0A2A192E78A
:030D9500DFF2FF8B
:010D98002238
:0F0DBE00120D3FAF05120D45D2A0C2A2C2A12255
:0A0DD900120D3F120D85D2A0C2A238
:010DE30022ED
:100BAF007E80E4FD7F8E120DBE7C07AF061202C061
:100BBF00FD120DBE740129F9E43AFA0E0EDCEC7D3C
:060BCF00807F8E020DBEC6
:100D6F00D2B600D2B70000000000C2B600000000EB
:060D7F0000C2B7000022D3
:100DAD00C2B600D2B70000000000D2B600000000AD
:010DBD002213
:100A6700E4FEEFA806088002C333D8FC30E704D2BF
:100A7700B68002C2B600D2B70000000000C2B70EAF
:100A8700EEB408DE0000D2B60000D2B70000003096
:0C0A9700B604C2018002D201C2B7000008
:010AA3002230
:100C2100E4FFD2B6FE00C2B70000000000D2B70058
:100C310000EF25E0FF30B6010F00000EEEB408E52D
:040C4100C2B7000036
:010C4500228C
:100D5700200004C2B68002D2B6000000D2B700005D
:080D6700000000C2B7000022E9
:100CB000D3EF9400EE940040147D6E7C00ED1D7027
:0D0CC000011CED4C70F7EF1F70E61E80E385
:010CCD002204
:100C4600C2B77B46AF031BEF70FAD2B7E4FB30B7EF
:100C5600117F017E00120CB00BEBD3940540EF7FA1
:040C660000227F01E8
:010C6A002267
:0C095800120C467F017E00120CB07FCC18
:10096400E4FBFAC2B790007BE004F0700690007AD2
:10097400E004F0EF1392B790007AE4F0A37406F069
:1009840090007A74FFF5F012036445F070F2D2B768
:0F099400EFC313FF0BBB00010AEB64084A70C4EA
:0109A3002231
:100A29007D087C00C2B70FBF0000D2B70FBF00001E
:100A39000FBF0000A2B7E433C43333335480FBE95A
:100A4900C3134BF97E007F04EF1FAA0670011E4AEB
:0D0A590070F6ED1D70011CED4C70C9AF0171
:010A6600226D
:080DE4001209587F4402096462
:080DEC001209587FBE020964E0
:100D2400E4FFFE120DE4120DEC120A29900079EF93
:0A0D3400F0120A29EFFEE0FDEDFFCA
:010D3E002292
:040BD5007F057E001A
:0A0BD900EF1FAC0670011E4C601700
:100BE300E4900079F0900079E0C3949650E8000017
:070BF3000000E004F080EEB9
:010BFA0022D8
:0A0CCE00EF1FAC0670011E4C60130E
:100CD800E4900096F0900096E0C3946450E8E00435
:030CE800F080F2A7
:010CEB0022E6
:100D9900C2A4D2A5D2A600000000E580339202C207
:030DA900A6A202FD
:010DAC002224
:100CEC00120D9940FBC2A4C2A5C2A600008F8000C1
:0C0CFC00000000D2A600000000C2A622EA
:100ADE00900087E0FBA3E475F001120364A9F0FA1D
:040AEE001202C0FF31
:100AF200120D9940FBD2A4C2A5C2A68F80000000AD
:0A0B020000D2A600000000C2A622E7
:100BFB00D2A77F34120CEC120BD57F30120CEC12F7
:100C0B000BD57F0C120CEC120BD57F01120CEC7F69
:060C1B00057E00020BD96A
:100C6B00EFB401047F808016EFB402047F90800EF6
:100C7B00EFB403047F888006EFB404027F98EF2D56
:040C8B00FF020CEC6C
:1008B8007F08120CEC7F907E01120BD97F0C120C72
:1008C800EC7F907E01120BD97F08120CEC7F907E92
:1008D80001120BD97F0C120CEC7F907E01120BD900
:1008E8007F08120CEC7FC87E00120BD97F0C120C0B
:1008F800EC120BD57F01120CEC7F057E00020BD9A0
:0B084700900087EBF0A3EAF0A3E9F0BB
:100852007F34120CECE4FDED2480FF120CEC7F805F
:10086200120CECE490008AF0120ADE90008AE00496
:10087200F0E0C3941040F17F017E00120CCE0DED2A
:10088200B420D4E4FDED2480FF120CEC7F88120C1E
:10089200ECE490008AF0120ADE90008AE004F0E0B4
:1008A200C3941040F17F017E00120CCE0DEDB420F6
:0608B200D47F36020CECBD
:100D08007F34120CEC120BD57F30120CEC120BD581
:0C0D18007F01120CEC7F057E00020BD95D
:10090800120D087F80120CECE4FEEE2430FF120A70
:10091800F20EEEB410F47F90120CECE4FEEE2440DC
:10092800FF120AF20EEEB410F47F88120CECE4FE0B
:10093800EE2450FF120AF20EEEB410F47F98120C57
:0F094800ECE4FEEE2460FF120AF20EEEB410F49F
:01095700227D
:080DF400120C6BAF03020AF2BE
:100003000202ABE86480F8E933E83360110460F07E
:10001300ED33EC337009E8FCE9FDEAFEEBFF220463
:1000230060DED3EB9FEA9EE99DE8C2E78CF0C2F75E
:1000330095F0400CE8CCF8E9CDF9EACEFAEBCFFB2A
:1000430012027685D0F05804700320D5B3E804700B
:10005300075002B2D50202B592D5EC0460F7E4CCA6
:10006300C0E0C398F8603B94186008400DD0E0FBF3
:1000730002028DE4FBFAC9FC8028E830E406E4C9F7
:10008300FBE4CAFCE830E305E4C9CACBFCE8540747
:100093006010F8C3E913F9EA13FAEB13FBEC13FC52
:1000A300D8F130F52FC3E49CFCEF9BFFEE9AFEEDF5
:1000B30099FDD0E0FBEF4E4D4C701222DB030202A0
:1000C300B2EC2CFCEF33FFEE33FEED33FDED30E706
:1000D300EB02028DEF2BFFEE3AFEED39FDD0E0FB94
:1000E30050130BBB00030202B5ED13FDEE13FEEF3D
:0800F30013FFEC13FC02028D67
:1000FB00EC4D6011E8497017ED33EC3304600DE4FF
:10010B00FCFFFEFD22E933E8330470F80202AB1268
:10011B00027658046009E4CC248150062850090269
:10012B0002B52840030202B2C0E0EB4A7044B9802A
:10013B0006D0E0FB0202A1EF4E701CBD8008EBFF66
:10014B00EAFEE9FD80EBE98DF0A4FEE5F00201E4A7
:10015B00E9CDF9EAFEEBFFEF89F0A4FCE5F0CE89DF
:10016B00F0A42EFFE435F0CD89F0A42DFEE435F09C
:10017B008067EF4E7005BD80D780C3EF8BF0A4ACCA
:10018B00F0EE8BF0A42CFCE435F0F8EF8AF0A42C05
:10019B00E5F038FCE433CB8DF0A42CFCE5F03BF818
:1001AB00EE8AF0A42CFCE5F038F8E433CF89F0A408
:1001BB002CFCE5F038CF3400CE89F0A42FFFE5F00E
:1001CB003EFEE433C98DF0A42EFEE5F039CD8AF066
:1001DB00A42FFFE5F03EFEE43DFD33D0E0FB5007DE
:1001EB000BBB000F0202B5EC2CFCEF33FFEE33FE22
:0601FB00ED33FD02028D50
:1002010075F020800E75F010800575F0087D007E78
:10021100007F003392D530D50312037AEC334010BE
:10022100EF33FFEE33FEED33FDEC33FCD5F0ED2281
:0E023100E5F0247EA2D513CC92E7CDCEFF22BD
:10023F00EDD2E7CD33EC3392D524814006E4FFFEB7
:10024F00FDFC22FCE4CFCECDCC24E0501174FF8016
:10025F00EDC3CC13CCCD13CDCE13CECF13CF0470B3
:07026F00F030D5DE02037A36
:10027600E9D2E7C933E833F892D5EDD2E7CD33ECCE
:0702860033FC5002B2D52247
:10028D00EC30E7100FBF000C0EBE00080DBD0004D2
:10029D000BEB6014A2D5EB13FCED92E7FD2274FF7E
:1002AD00FCFDFEFF22E480F8A2D574FF13FC7D80D7
:0302BD00E480EFEB
:03000000020DCD21
:0C0DCD00787FE4F6D8FD758120020B63EE
:1002C000BB010689828A83E0225002E722BBFE023C
:0902D000E32289828A83E493226F
:1002D900BC000BBE0029EF8DF084FFADF022E4CC09
:1002E900F875F008EF2FFFEE33FEEC33FCEE9DECD2
:1002F900984005FCEE9DFE0FD5F0E9E4CEFD22ED18
:10030900F8F5F0EE8420D21CFEADF075F008EF2F61
:10031900FFED33FD4007985006D5F0F222C398FD52
:050329000FD5F0EA22EF
:10032E00C2D5EC30E709B2D5E4C39DFDE49CFCEEEA
:10033E0030E715B2D5E4C39FFFE49EFE1202D9C387
:10034E00E49DFDE49CFC80031202D930D507C3E482
:06035E009FFFE49EFE2259
:10036400A3F8E0C5F025F0F0E5821582700215834C
:06037400E0C838F0E822A9
:0E037A00C3E49FFFE49EFEE49DFDE49CFC2294
:0C038800ECF0A3EDF0A3EEF0A3EFF022E8
:00000001FF
