:0412B9007F057E002F
:0A12BD00EF1FAC0670011E4C601715
:1012C700E490007CF090007CE0C3949650E8000026
:0712D7000000E004F080EECE
:0112DE0022ED
:0A13BF00EF1FAC0670011E4C601316
:1013C900E490008DF090008DE0C3946450E8E0044F
:0313D900F080F2AF
:0113DC0022EE
:1014AF00C2A4D2A5D2A600000000E580339201C2EB
:0314BF00A6A201E1
:0114C2002207
:1013FB001214AF40FBC2A4C2A5C2A600008F80008E
:0C140B00000000D2A600000000C2A622D3
:1011E400900086E0FBA3E475F001120376A9F0FAFF
:0411F4001202C0FF24
:1011F8001214AF40FBD2A4C2A5C2A68F8000000083
:0A12080000D2A600000000C2A622DA
:1012DF00D2A77F341213FB1212B97F301213FB12F5
:1012EF0012B97F0C1213FB1212B97F011213FB7F7D
:0612FF00057E000212BD95
:10139B00EFB401047F808016EFB402047F90800EBF
:1013AB00EFB403047F888006EFB404027F98EF2D1F
:0413BB00FF0213FB1F
:100FFC007F081213FB7F907E011212BD7F0C12131F
:10100C00FB7F907E011212BD7F081213FB7F907E36
:10101C00011212BD7F0C1213FB7F907E011212BDC8
:10102C007F081213FB7FC87E001212BD7F0C1213B7
:10103C00FB1212B97F011213FB7F057E000212BD59
:0B0D9A00900086EBF0A3EAF0A3E9F064
:100DA5007F341213FBE4FDED2480FF1213FB7F80DB
:100DB5001213FBE4900089F01211E4900089E0041D
:100DC500F0E0C3941040F17F017E001213BF0DEDDA
:100DD500B420D4E4FDED2480FF1213FB7F881213A9
:100DE500FBE4900089F01211E4900089E004F0E042
:100DF500C3941040F17F017E001213BF0DEDB420A6
:060E0500D47F360213FB4E
:101417007F341213FB1212B97F301213FB1212B969
:0C1427007F011213FB7F057E000212BD46
:10104C001214177F801213FBE4FEEE2430FF1211F2
:10105C00F80EEEB410F47F901213FBE4FEEE244075
:10106C00FF1211F80EEEB410F47F881213FBE4FE9D
:10107C00EE2450FF1211F80EEEB410F47F981213F8
:0F108C00FBE4FEEE2460FF1211F80EEEB410F438
:01109B002232
:08150D0012139BAF030211F859
:06146900C2A2C2A0D2A243
:10146F00EFD2A27F08A2E092A1C2A0D2A0C313DF45
:01147F00F478
:011480002249
:1014C300D2A27F08C313D2A1D2A0C2A0A2A192E745
:0314D300DFF2FF46
:0114D60022F3
:0F14E800121469AF0512146FD2A0C2A2C2A122C2
:0A14F7001214691214C3D2A0C2A29D
:0115010022C7
:101305007E80E4FD7F8E1214E87C07AF061202C0D2
:10131500FD1214E8740129F9E43AFA0E0EDCEC7DAD
:06132500807F8E0214E837
:10149900D2B600D2B70000000000C2B600000000BA
:0614A90000C2B7000022A2
:1014D700C2B600D2B70000000000D2B6000000007C
:0114E70022E2
:10116D00E4FEEFA806088002C333D8FC30E704D2B2
:10117D00B68002C2B600D2B70000000000C2B70EA2
:10118D00EEB408DE0000D2B60000D2B70000003089
:0C119D00B604C2008002D200C2B70000FD
:0111A9002223
:10135100E4FFD2B6FE00C2B70000000000D2B70021
:1013610000EF25E0FF30B6010F00000EEEB408E5F6
:04137100C2B70000FF
:011375002255
:10148100200104C2B68002D2B6000000D2B700002B
:08149100000000C2B7000022B8
:10126900444154453A0054494D453A0054454D507E
:101279003A004144313A0053657474696E6700302D
:091289003132333435363738397F
:0515250042007A000104
:100A440090000CE0FAC4540FFF7E007C037DE81292
:100A540002D9AC06AD07EA540F75F064A42DFDEC81
:100A640035F0FC90000BE0FAC4540F75F00AA42D85
:100A7400FFE5F03CFEEA540F7C002FFFEC3E8F8232
:100A8400F583E5825403700B7D64AE831202EBEDB3
:100A94004C600FAE83AF827C017D901202EBED4C73
:100AA4007062900009E01203A60AD5010ADA020A6C
:100AB400DF030AE4040AE8050AEC060AF0070AF46C
:100AC400080AF8090AFC100B00110B041200000BB1
:100AD400657B31020B657B29020B657B31020B655B
:100AE4007B30807D7B3180797B3080757B31807178
:100AF4007B31806D7B3080697B3180657B308061A8
:100B04007B31805D900009E01203A60B37010B3B9B
:100B1400020B3F030B43040B47050B4B060B4F071C
:100B24000B53080B57090B5B100B5F110B6312007F
:100B3400000B657B31802A7B2880267B3180227BD9
:100B440030801E7B31801A7B3080167B3180127B93
:100B540031800E7B30800A7B3180067B3080027BC3
:030B640031AF03AB
:010B6700226B
:1012920090007EEEF0A3EFF090007E74FFF5F01266
:1012A200037645F060107FF57E001215027FF57E11
:0712B2000012150280E22288
:100B680075900FE590540F90007CF0E0640F7003CF
:100B7800020C037E00121502E590540F90007CF0E1
:100B8800E0FF640F6075EF44F0F590E59054F0A332
:100B9800F0E4900077F0A3F07F647E00121502B2B3
:100BA800B0900078E004F07006900077E004F0C39D
:100BB800900078E09432900077E06480948040D888
:100BC800C2B0E4900077F0A3F07F017E0012129289
:100BD800900078E004F07006900077E004F0C3908D
:100BE8000078E09464900077E06480948040DA9024
:0D0BF800007DE0FF90007CE02FFF227FFFDA
:010C050022CC
:1011AA0090008AEFF0A3EDF0A3EBF01214999000EF
:1011BA008AE0FF12116D200002C32290008BE0FF2B
:1011CA0012116D200002C32290008CE0FF12116DF3
:0A11DA00200002C3221214D7D32212
:10123F0090007EEFF0A3EDF012149990007EE0FF86
:10124F0012116D200002C32290007FE0FF12116D7A
:0A125F00200002C3221214D7D3228C
:0512120090007EEFF0EA
:1012170012149990007EE004FF12116D2000037FE5
:10122700002212135190007FEFF0D20112148112A5
:0712370014D790007FE0FFD7
:01123E00228D
:100D210090000C7420F01212DF7F04120B68EF2484
:100D31004260272440702F90007BE004F070069001
:100D4100007AE004F090007AE07004A3E06403709C
:100D51001290007AF0A304F0800990007AE4F0A3E5
:100D61007404F012141790007AE0FEA3E0FFEE7015
:100D7100B8EF24FE601024FE6017240370AB12103C
:100D8100E812079480A312144E1203CC1208F980C2
:090D910098120607121417809055
:0403CC00AB07AA06CB
:1003D000C3EA64809480501690006F7440F0EB1B69
:1003E00070011AEBF4FBEAF4FAAD03FC800AE49026
:1003F000006FF0AD03AC02EC120206900082120313
:100400009AE4FFFE7DC87C40900082E0F8A3E0F90A
:10041000A3E0FAA3E0FB1200FBE4FBFAF9783F1239
:10042000000A12023FAA06AB077C277D10AF03AE7D
:1004300002120340900000EFF07C277D10AF03AE66
:10044000021203407E037FE8CFCDCFCECCCE120385
:1004500040A3EFF07C037DE8AF03AE021203407EC1
:10046000007F64CFCDCFCECCCE120340A3EFF07C83
:10047000007D64AF03AE021203407E007F0ACFCD41
:10048000CFCECCCE120340A3EFF0AE02AF037C0080
:100490007D0A120340A3EDF0E490007CF090007C14
:1004A000E0FFD39404400302059F74002FF582E41B
:1004B0003400F583E0B40A0040030205969004C4BA
:1004C000F82828730204E20204F502050802051A5E
:1004D00002052C02053E0205500205620205740267
:1004E000058690007CE0247DF582E43400F5837479
:1004F00030F002059690007CE0247DF582E4340023
:10050000F5837431F002059690007CE0247DF5823D
:10051000E43400F5837432F0807C90007CE0247D2C
:10052000F582E43400F5837433F0806A90007CE057
:10053000247DF582E43400F5837434F08058900013
:100540007CE0247DF582E43400F5837435F0804648
:1005500090007CE0247DF582E43400F5837436F06D
:10056000803490007CE0247DF582E43400F58374CF
:1005700037F0802290007CE0247DF582E43400F5A1
:10058000837438F0801090007CE0247DF582E434A0
:1005900000F5837439F090007CE004F002049DE4DF
:1005A000FD7F0112139BE490007CF090007CE0FF43
:1005B000C394055011EF90127593FF1211F890003B
:1005C0007CE004F080E57F931213FB90007DE0FF58
:1005D0001211F890007EE0FF1211F890007FE0FF0A
:1005E0001211F87F2E1211F8900080E0FF1211F81E
:1005F000900081E0FF1211F87FA11211F87FE31241
:0706000011F87F630211F8FD
:04132B007F057E00BC
:0A132F00EF1FAC0670011E4C6017A2
:10133900E490007EF090007EE0C3949650E80000AF
:071349000000E004F080EE5B
:01135000227A
:1010E8007F811214F7900005EFF07F831214F790B8
:1010F8000006EFF07F851214F7900007EFF07F8766
:101108001214F7900008EFF07F891214F790000985
:10111800EFF07F8B1214F790000AEFF07F8D121416
:07112800F790000BEFF0222D
:1007940090000CE0FF540AFEBE0A08EF54F0F0E0AB
:1007A4002410F090000CE0FF540FFEBE0F08EF542D
:1007B400F0F0E02409F0E4FD7F0112139BE49000C3
:1007C4007CF090007CE0FFC394055014EF90126914
:1007D40093FF1211F812132B90007CE004F080E2D6
:1007E4007F911213FB90000CE0C4540F2430FF12CD
:1007F40011F890000CE0540F2430FF1211F890000F
:100804000BE0C4540F2430FF1211F890000BE05495
:100814000F2430FF1211F87FC41211F87FEA12116D
:10082400F8900009E0C4540F2430FF1211F890002E
:1008340009E0540F2430FF1211F87FD41211F87F0D
:10084400C21211F8900008E0C4540F2430FF1211B2
:10085400F8900008E0540F2430FF1211F87FC812FA
:1008640011F87FD51211F8E4FD7F0312139BE49075
:10087400007CF090007CE0FFC394055014EF9012CC
:100884006F93FF1211F812132B90007CE004F08098
:10089400E27F9B1213FB900007E0C4540F2430FF47
:1008A4001211F8900007E0540F2430FF1211F87F62
:1008B4003A1211F87F9D1213FB900006E0C4540F06
:1008C4002430FF1211F8900006E0540F2430FF1278
:1008D40011F87F3A1211F87F9F1213FB900005E084
:1008E400C4540F2430FF1211F8900005E0540F2473
:0508F40030FF0211F8C5
:1008F9007D417F9012123F7F90121212EF75F00224
:10090900A4FF90000EE5F0F0A3EFF090000EE0FADE
:10091900A3E0FB7C277D10FFAE021202EB7E037F72
:10092900E8CFCDCFCECCCE1202EB74882FF58274EE
:10093900123EF583E493FFE4FCFDFE90004F1203A1
:100949009A7C037DE8AF03AE021202EB7E007F645E
:10095900CFCDCFCECCCE1202EB74882FF582741294
:100969003EF583E493FFE4FCFDFE90005312039AE5
:1009790090000EE0FAA3E0FB7C007D64FFAE02125A
:1009890002EB7E007F0ACFCDCFCECCCE1202EB7424
:10099900882FF58274123EF583E493FFE4FCFDFE93
:1009A90090005712039A7C007D0AAF03AE0212022F
:1009B900EB74882DF58274123CF583E493FFE4FC13
:1009C900FDFE90005B12039AE4FD7F0312139BE482
:1009D90090007CF0A3F090007CE0FEA3E0FFC394BC
:1009E90005EE648094805023747B2FF58274123E47
:1009F900F583E493FF1211F812132B90007DE004A4
:100A0900F0700690007CE004F080CB7F9C1213FB11
:100A1900900053A3A3A3E0FF1211F87F2E1211F83F
:100A2900900057A3A3A3E0FF1211F890005BA3A3C2
:0B0A3900A3E0FF1211F87F560211F835
:101433007D027C00EF1FAA0670011E4A6003008034
:0A144300F3ED1D70011CED4C70EA82
:01144D00227C
:0B150200EF1FAC0670011E4C70F622BB
:100607001207947F841213FBE4900077F0A3F09015
:100617000077E0FEA3E0FFC39407EE648094805068
:100627002074802FF58274123EF583E493FF121134
:10063700F8900078E004F070D6900077E004F0803E
:10064700CE7F04120B68EF2485700302072124C4B0
:10065700604524FC700302074C24E4606624F070B4
:10066700030206F62470600302077A7F921213FBD7
:100677007F0D1213FB7F08120B68EF2443600824D9
:10068700407009E4FF80027F01120C067F04120B01
:1006970068BFEDD70207757F941213FB7F0D121306
:1006A700FB7F08120B68EF2443600824407009E4BD
:1006B700FF80027F01120E777F04120B68BFEDD710
:1006C7000207757F961213FB7F0D1213FB7F08122B
:1006D7000B68EF2443600824407009E4FF80027F21
:1006E70001120E0B7F04120B68BFEDD70207757F4F
:1006F7009B1213FB7F0D1213FB7F08120B68EF246D
:1007070043600824407009E4FF80027F01120ED97C
:100717007F04120B68BFEDD780547F9D1213FB7FB8
:100727000D1213FB7F08120B68EF24436008244067
:100737007009E4FF80027F01120F3A7F04120B68F1
:10074700BFEDD780297F9F1213FB7F0D1213FB7F0D
:1007570008120B68EF2443600824407009E4FF8007
:10076700027F01120F9B7F04120B68BFEDD77F0C2E
:100777001213FB7F04120B68EF64EE600302060797
:0D07870090007AF0A304F07F0C1213FB2207
:100C0600AC07EF703390000BE004F0E0B49A16E402
:100C1600F0A3E004F0E0FE540AFDBD0A08EE54F02D
:100C2600F0E02410F090000BE0FF540AFEBE0A0824
:100C3600EF54F0F0E02410F0EC6401703390000BF8
:100C4600E014F0E0FF540FFEBE0F08EF54F0F0E0A2
:100C56002409F090000BE070177499F0A3E014F0EB
:100C6600E0FF540FFEBE0F08EF54F0F0E02409F049
:100C7600E4FD7F8E1214E87B017A007905121305D4
:0F0C86007D807F8E1214E87F0D1213FB020794FE
:100E7700AC07EF7020900009E004F0E0B4130374AE
:100E870001F0900009E0FE540AFDBD0A08EE54F097
:100E9700F0E02410F0ECB4011F900009E014F0E03A
:100EA70070037412F0900009E0FF540FFEBE0F08A4
:100EB700EF54F0F0E02409F0E4FD7F8E1214E87B94
:100EC700017A0079051213057D807F8E1214E802DE
:020ED70007947E
:100E0B00A907E97022120A44900008E0B50702E432
:100E1B00F0900008E004F0E0FF540AFEBE0A08EF71
:100E2B0054F0F0E02410F0E964017026900008E023
:100E3B00B40109120A44EF04900008F0900008E096
:100E4B0014F0E0FF540FFEBE0F08EF54F0F0E02457
:100E5B0009F0E4FD7F8E1214E87B017A007905120C
:0C0E6B0013057D807F8E1214E8020794AE
:100ED900AC07EF701F900007E004F0E0B42402E4CF
:100EE900F0900007E0FE540AFDBD0A08EE54F0F048
:100EF900E02410F0ECB4011F900007E070037424A3
:100F0900F0900007E014F0E0FF540FFEBE0F08EF69
:100F190054F0F0E02409F0E4FD7F8E1214E87B011F
:100F29007A0079051213057D807F8E1214E8020775
:010F39009423
:100F3A00AC07EF701F900006E004F0E0FE540AFDD3
:100F4A00BD0A08EE54F0F0E02410F0900006E0B478
:100F5A006002E4F0ECB4011F900006E070037460D4
:100F6A00F0900006E014F0E0FF540FFEBE0F08EF09
:100F7A0054F0F0E02409F0E4FD7F8E1214E87B01BE
:100F8A007A0079051213057D807F8E1214E8020714
:010F9A0094C2
:100F9B00AC07EF701F900005E004F0E0FE540AFD73
:100FAB00BD0A08EE54F0F0E02410F0900005E0B418
:100FBB006002E4F0ECB4011F900005E07003746074
:100FCB00F0900005E014F0E0FF540FFEBE0F08EFA9
:100FDB0054F0F0E02409F0E4FD7F8E1214E87B015D
:100FEB007A0079051213057D807F8E1214E80207B3
:010FFB009461
:1013DD00D3EF9400EE940040147D6E7C00ED1D70F3
:0D13ED00011CED4C70F7EF1F70E61E80E351
:0113FA0022D0
:10137600C2A37B46AF031BEF70FAD2A3E4FB30A3F4
:10138600117F017E001213DD0BEBD3940540EF7F36
:0413960000227F01B1
:01139A002230
:0C109C001213767F017E001213DD7FCC62
:1010A800E4FBFAC2A390007EE004F0700690007D95
:1010B800E004F0EF1392A390007DE4F0A37406F02F
:1010C80090007D74FFF5F012037645F070F2D2A31C
:0F10D800EFC313FF0BBB00010AEB64084A70C49F
:0110E70022E6
:10112F007D087C00C2A30FBF0000D2A30FBF000039
:10113F000FBF0000A2A3E433C43333335480FBE961
:10114F00C3134BF97E007F04EF1FAA0670011E4ADE
:0D115F0070F6ED1D70011CED4C70C9AF0164
:01116C002260
:0815150012109C7F440210A893
:08151D0012109C7FBE0210A811
:10144E00E4FFFE12151512151D12112F90007CEFE0
:0A145E00F012112FEFFEE0FDEDFF8C
:011468002261
:100003000202ABE86480F8E933E83360110460F07E
:10001300ED33EC337009E8FCE9FDEAFEEBFF220463
:1000230060DED3EB9FEA9EE99DE8C2E78CF0C2F75E
:1000330095F0400CE8CCF8E9CDF9EACEFAEBCFFB2A
:1000430012027685D0F05804700320D5B3E804700B
:10005300075002B2D50202B592D5EC0460F7E4CCA6
:10006300C0E0C398F8603B94186008400DD0E0FBF3
:1000730002028DE4FBFAC9FC8028E830E406E4C9F7
:10008300FBE4CAFCE830E305E4C9CACBFCE8540747
:100093006010F8C3E913F9EA13FAEB13FBEC13FC52
:1000A300D8F130F52FC3E49CFCEF9BFFEE9AFEEDF5
:1000B30099FDD0E0FBEF4E4D4C701222DB030202A0
:1000C300B2EC2CFCEF33FFEE33FEED33FDED30E706
:1000D300EB02028DEF2BFFEE3AFEED39FDD0E0FB94
:1000E30050130BBB00030202B5ED13FDEE13FEEF3D
:0800F30013FFEC13FC02028D67
:1000FB00EC4D6011E8497017ED33EC3304600DE4FF
:10010B00FCFFFEFD22E933E8330470F80202AB1268
:10011B00027658046009E4CC248150062850090269
:10012B0002B52840030202B2C0E0EB4A7044B9802A
:10013B0006D0E0FB0202A1EF4E701CBD8008EBFF66
:10014B00EAFEE9FD80EBE98DF0A4FEE5F00201E4A7
:10015B00E9CDF9EAFEEBFFEF89F0A4FCE5F0CE89DF
:10016B00F0A42EFFE435F0CD89F0A42DFEE435F09C
:10017B008067EF4E7005BD80D780C3EF8BF0A4ACCA
:10018B00F0EE8BF0A42CFCE435F0F8EF8AF0A42C05
:10019B00E5F038FCE433CB8DF0A42CFCE5F03BF818
:1001AB00EE8AF0A42CFCE5F038F8E433CF89F0A408
:1001BB002CFCE5F038CF3400CE89F0A42FFFE5F00E
:1001CB003EFEE433C98DF0A42EFEE5F039CD8AF066
:1001DB00A42FFFE5F03EFEE43DFD33D0E0FB5007DE
:1001EB000BBB000F0202B5EC2CFCEF33FFEE33FE22
:0601FB00ED33FD02028D50
:1002010075F020800E75F010800575F0087D007E78
:10021100007F003392D530D50312038CEC334010AC
:10022100EF33FFEE33FEED33FDEC33FCD5F0ED2281
:0E023100E5F0247EA2D513CC92E7CDCEFF22BD
:10023F00EDD2E7CD33EC3392D524814006E4FFFEB7
:10024F00FDFC22FCE4CFCECDCC24E0501174FF8016
:10025F00EDC3CC13CCCD13CDCE13CECF13CF0470B3
:07026F00F030D5DE02038C24
:10027600E9D2E7C933E833F892D5EDD2E7CD33ECCE
:0702860033FC5002B2D52247
:10028D00EC30E7100FBF000C0EBE00080DBD0004D2
:10029D000BEB6014A2D5EB13FCED92E7FD2274FF7E
:1002AD00FCFDFEFF22E480F8A2D574FF13FC7D80D7
:0302BD00E480EFEB
:03000000020C955A
:0C0C9500787FE4F6D8FD758120020CDCAD
:1002C000BB010689828A83E0225002E722BBFE023C
:0902D000E32289828A83E493226F
:1002D900EF8DF0A4A8F0CF8CF0A428CE8DF0A42E39
:0202E900FE22F3
:1002EB00BC000BBE0029EF8DF084FFADF022E4CCF7
:1002FB00F875F008EF2FFFEE33FEEC33FCEE9DECC0
:10030B00984005FCEE9DFE0FD5F0E9E4CEFD22ED05
:10031B00F8F5F0EE8420D21CFEADF075F008EF2F4F
:10032B00FFED33FD4007985006D5F0F222C398FD40
:05033B000FD5F0EA22DD
:10034000C2D5EC30E709B2D5E4C39DFDE49CFCEED8
:1003500030E715B2D5E4C39FFFE49EFE1202EBC363
:10036000E49DFDE49CFC80031202EB30D507C3E45E
:060370009FFFE49EFE2247
:10037600A3F8E0C5F025F0F0E5821582700215833A
:06038600E0C838F0E82297
:0E038C00C3E49FFFE49EFEE49DFDE49CFC2282
:0C039A00ECF0A3EDF0A3EEF0A3EFF022D6
:1003A600D083D082F8E4937012740193700DA3A3E6
:1003B60093F8740193F5828883E4737402936860FA
:0603C600EFA3A3A380DFFA
:100CA100020D21E493A3F8E493A34003F68001F23B
:100CB10008DFF48029E493A3F85407240CC8C33354
:100CC100C4540F4420C8834004F456800146F6DF23
:100CD100E4800B0102040810204080901525E47E79
:100CE100019360BCA3FF543F30E509541FFEE49318
:100CF100A360010ECF54C025E060A840B8E493A3DF
:100D0100FAE493A3F8E493A3C8C582C8CAC583CA09
:100D1100F0A3C8C582C8CAC583CADFE9DEE780BEC1
:01152A0000C0
:00000001FF
