:03010600010C37B2
:10008F00E4FDFCEF30E004D2938002C293D294EFF0
:10009F00C313FFC2940DBD00010CED64084C70E357
:0100AF00222E
:1000F0008F0B8E0A8D098C08780874FF1200D2ECE1
:060100004D4E4F70F3228A
:1000B000C290C291C292C293C294E50CF4FF1200A6
:1000C0008F050C7F987E3A7D007C001200F080EA5C
:03000000020003F8
:0C000300787FE4F6D8FD75810C02004AFD
:1000D0007401FF3395E0FEFDFC080808E6CF2FF61B
:1000E00018E6CE3EF618E6CD3DF618E6CC3CF622F4
:10000F000200B0E493A3F8E493A34003F68001F257
:10001F0008DFF48029E493A3F85407240CC8C333F2
:10002F00C4540F4420C8834004F456800146F6DFC1
:10003F00E4800B0102040810204080900106E47E4A
:10004F00019360BCA3FF543F30E509541FFEE493B6
:10005F00A360010ECF54C025E060A840B8E493A37D
:10006F00FAE493A3F8E493A3C8C582C8CAC583CAA8
:10007F00F0A3C8C582C8CAC583CADFE9DEE780BE60
:0101090000F5
:00000001FF
