:0414DE007F057E0008
:0A14E200EF1FAC0670011E4C6015F0
:1014EC00E47800F27800E2C3949650EA0000000021
:0514FC00E204F280EFA4
:0115010022C7
:0A156800EF1FAC0670011E4C60116D
:10157200E47801F27801E2C3946450EAE204F28072
:01158200F375
:011583002245
:10166700C2A4D2A5D2A600000000E580339200C232
:03167700A6A20028
:01167A00224D
:1015840012166740FBC2A4C2A5C2A600008F800049
:0C159400000000D2A600000000C2A62249
:101370007802E2FB0808E2F92401F218E2FA3400EC
:05138000F21202CBFF98
:1013850012166740FBD2A4C2A5C2A68F800000003A
:0A13950000D2A600000000C2A6224C
:10144800D2A77F341215841214DE7F30121584124D
:1014580014DE7F0C1215841214DE7F011215847FAE
:06146800057E000214E203
:10150200EFB401047F808016EFB402047F90800E56
:10151200EFB403047F888006EFB404027F98EF2DB6
:04152200FF0215842B
:10079F007F081215847F907E011214E27F0C1215D0
:1007AF00847F907E011214E27F081215847F907E61
:1007BF00011214E27F0C1215847F907E011214E255
:1007CF007F081215847FC87E001214E27F0C121569
:1007DF00841214DE7F011215847F057E000214E25D
:0A0F3C007802EBF208EAF208E9F28D
:100F46007F34121584E4FDED2480FF1215847F8022
:100F5600121584E47805F21213707805E204F2E2C1
:100F6600C3941040F27F017E001215680DEDB42087
:100F7600D6E4FDED2480FF1215847F88121584E4E3
:100F86007805F21213707805E204F2E2C394104079
:100F9600F27F017E001215680DEDB420D67F360271
:020FA6001584B0
:1015A0007F341215841214DE7F301215841214DE7B
:0C15B0007F011215847F057E000214E20A
:100FA8001215A07F80121584E4FEEE2430FF121380
:100FB800850EEEB410F47F90121584E4FEEE244002
:100FC800FF1213850EEEB410F47F88121584E4FE28
:100FD800EE2450FF1213850EEEB410F47F9812150C
:0F0FE80084E4FEEE2460FF1213850EEEB410F4C5
:010FF70022D7
:08000300121502AF0302138580
:06160B00C2A2C2A0D2A29F
:10161100EFD2A27F08A2E092A1C2A0D2A0C313DFA1
:01162100F4D4
:0116220022A5
:10167B00D2A27F08C313D2A1D2A0C2A0A2A192E78B
:03168B00DFF2FF8C
:01168E002239
:0F168F0012160BAF05121611D2A0C2A2C2A122D1
:0A16AB0012160B12167BD2A0C2A289
:0116B5002212
:10146E007E80E4FD7F8E12168F7C07AF061202CBB4
:10147E00FD12168F740129F9E43AFA0E0EDCEC7D9A
:06148E00807F8E02168F24
:10163B00D2B600D2B70000000000C2B60000000016
:06164B0000C2B7000022FE
:1007EF00C2B600D2B70000000000D2B60000000071
:0107FF0022D7
:10122900E4FEEFA806088002C333D8FC30E704D2F5
:10123900B68002C2B600D2B70000000000C2B70EE5
:10124900EEB408DE0000D2B60000D2B700000030CC
:0C125900B604C2028002D202C2B700003C
:011265002266
:10149400E4FFD2B6FE00C2B70000000000D2B700DD
:1014A40000EF25E0FF30B6010F00000EEEB408E5B2
:0414B400C2B70000BB
:0114B8002211
:10162300200104C2B68002D2B6000000D2B7000087
:08163300000000C2B700002214
:10139F00444154453A0054494D453A0054454D5047
:1013AF003A004144313A0053657474696E670030F6
:0F13BF0031323334353637383954454D503A00D2
:10126600828F0001823300008226000882285008FF
:10127600823500098277500982791010827B00112D
:10128600827D1011827F00129091000101020303FA
:0A129600040405060607080809090C
:100A91007831E2FAC4540FFF7E007C037DE8120234
:100AA100E4AC06AD07EA540F75F064A42DFDEC35F6
:100AB100F0FC7830E2FAC4540F75F00AA42DFFE57A
:100AC100F03CFEEA540F7C002FFFEC3E8F82F58351
:100AD100E5825403700B7D64AE831202F6ED4C6027
:100AE1000FAE83AF827C017D901202F6ED4C7069EE
:100AF100782EE214B41200400261BF900B0625E08B
:100B01005002058373612A612E61326136613A6157
:100B11003E61426146614A61BF61BF61BF61BF61C0
:100B2100BF61BF614E615261567B3161BF7B2961FB
:100B3100BF7B3161BF7B3061BF7B3161BF7B308067
:100B41007D7B3180797B3180757B3080717B318019
:100B51006D7B3080697B318065782EE214B41200A0
:100B6100505C900B6D25E050020583736191619596
:100B71006199619D61A161A561A961AD61B161BF2A
:100B810061BF61BF61BF61BF61BF61B561B961BD76
:100B91007B31802A7B2880267B3180227B30801E1E
:100BA1007B31801A7B3080167B3180127B31800E45
:100BB1007B30800A7B3180067B3080027B31AF0342
:010BC1002211
:1013CE007806EEF208EFF2780608E2FF24FFF21834
:1013DE00E2FE34FFF2EF4E60107FF57E001216B67D
:0A13EE007FF57E001216B680DE22A5
:100E440075900FE590540F7808F2E2640F60747E99
:100E5400001216B6E590540F7808F2E2FF640F60B2
:100E640062EF44F0F590E59054F008F2E4788AF2E9
:100E740008F27F647E001216B6B2B0788BE22401C9
:100E8400F218E23400F2C308E2943218E264809467
:100E94008040DFC2B0E4788AF208F27F017E00125B
:100EA40013CE788BE22401F218E23400F2C308E294
:100EB400946418E26480948040E17809E2FF18E2C7
:050EC4002FFF227FFF5B
:010EC9002206
:1012A100780AEFF208EDF208EBF212163B780AE247
:1012B100FF121229200202C322780BE2FF12122927
:1012C100200202C322780CE2FF121229200202C37B
:0612D100221207EFD322F8
:10142100780DEFF208EDF212163B780DE2FF121281
:1014310029200202C322780EE2FF121229200202A1
:07144100C3221207EFD322C2
:0413F800780FEFF289
:1013FC0012163B780FE204FF1212292002037F0021
:10140C00221214947810EFF2D2011216231207EF65
:04141C007810E2FF63
:0114200022A9
:1012D7001215D7120CEBE4788DF208F2788DE2FE46
:1012E70008E2FFC39405EE6480948050E3AD077471
:1012F700212DF8E2FF121340788EE22401F218E262
:051307003400F280D764
:0703A7007811EEF208EFF2FD
:1003AE00C3EE64809480502378827440F27812E217
:1003BE0024FFF218E234FFF2E2FE08E2F4FFEEF45C
:1003CE00FE18F208EFF2FDAC06800BE47882F278AC
:1003DE0011E2FC08E2FDEC120211781912039BE403
:1003EE00FFFE7DC87C407819E2FB08E2F908E2FACC
:1003FE0008E2CBF8120106E4FBFAF9783F12001579
:10040E0012024A7811EEF208EFF27811E2FA08E2DF
:10041E00FB7C277D10FFAE0212034B7821EFF27C9E
:10042E00277D10AF03AE0212034B7E037FE8CFCDC4
:10043E00CFCECCCE12034B7822EFF27811E2FA082F
:10044E00E2FB7C037DE8FFAE0212034B7E007F646D
:10045E00CFCDCFCECCCE12034B7823EFF27C007DE6
:10046E0064AF03AE0212034B7E007F0ACFCDCFCE18
:10047E00CCCE12034B7824EFF27811E2FE08E2FFA5
:10048E007C007D0A12034B7825EDF2E47813F278A6
:10049E0013E2FFD394044002A14174212FF8E2B479
:1004AE000A004002A13A9004BA25E07381CE81D9A8
:1004BE0081E481EF81FAA105A110A11BA126A13132
:1004CE007813E22414F87430F280617813E2241465
:1004DE00F87431F280567813E22414F87432F280F4
:1004EE004B7813E22414F87433F280407813E2242C
:1004FE0014F87434F280357813E22414F87435F25B
:10050E00802A7813E22414F87436F2801F7813E2EE
:10051E002414F87437F280147813E22414F8743823
:10052E00F280097813E22414F87439F27813E20495
:10053E00F2819DE4FD7F01121502E47813F2781327
:10054E00E2FFC394055010EF9013AB93FF12138587
:10055E007813E204F280E77F931215847814E2FF99
:10056E001213857815E2FF1213857816E2FF121327
:10057E00857F2E1213857817E2FF1213857818E205
:10058E00FF1213857FA11213857FE31213857F63FC
:10059E001213857811E2FE08E2FF7C277D1012030C
:1005AE004BE4FD1213407811E2FE08E2FF7C277D3A
:1005BE001012034B7E037FE8CFCDCFCECCCE1203ED
:1005CE004B7D011213407811E2FE08E2FF7C037DA1
:1005DE00E812034B7E007F64CFCDCFCECCCE12037C
:1005EE004B7D021213407811E2FE08E2FF7C007D83
:0B05FE000A12034BAF057D03021340FF
:041526007F057E00BF
:0A152A00EF1FAC0670011E4C6015A7
:10153400E4781DF2781DE2C3949650EA000000009E
:05154400E204F280EF5B
:01154900227F
:1011AB007F811216AB782AEFF27F831216AB782B66
:1011BB00EFF27F851216AB782CEFF27F871216AB0E
:1011CB00782DEFF27F891216AB782EEFF27F8B1210
:1011DB0016AB782FEFF27F8D1216AB7830EFF22231
:100800007831E2FF540AFEBE0A08EF54F0F2E22407
:1008100010F27831E2FF540FFEBE0F08EF54F0F2F1
:10082000E22409F2E4FD7F01121502E4781EF27859
:100830001EE2FFC394055013EF90139F93FF121312
:1008400085121526781EE204F280E47F9112158449
:100850007831E2C4540F2430FF1213857831E2540A
:100860000F2430FF1213857830E2C4540F2430FF78
:100870001213857830E2540F2430FF1213857FC4A1
:100880001213857FEA121385782EE2C4540F2430A8
:10089000FF121385782EE2540F2430FF1213857F48
:1008A000D41213857FC2121385782DE2C4540F240D
:1008B00030FF121385782DE2540F2430FF12138578
:1008C0007FC81213857FD5121385E4FD7F031215AF
:1008D00002E4781EF2781EE2FFC394055013EF90F5
:1008E00013A593FF121385121526781EE204F280D9
:1008F000E47F9B121584782CE2C4540F2430FF123D
:100900001385782CE2540F2430FF1213857F3A129E
:1009100013857F9D121584782BE2C4540F2430FF79
:10092000121385782BE2540F2430FF1213857F3A7F
:100930001213857F9F121584782AE2C4540F243045
:0F094000FF121385782AE2540F2430FF0213852B
:10094F007D417F901214217F901213F8EF75F00202
:10095F00A4FF7837E5F0F208EFF218E2FA08E2FBAD
:10096F007C277D10FFAE021202F67E037FE8CFCD0B
:10097F00CFCECCCE1202F674BE2FF58274133EF595
:10098F0083E493FFE4FCFDFE9000A612038F7C032B
:10099F007DE8AF03AE021202F67E007F64CFCDCFAB
:1009AF00CECCCE1202F674BE2FF58274133EF583B1
:1009BF00E493FFE4FCFDFE9000AA12038F7837E268
:1009CF00FA08E2FB7C007D64FFAE021202F67E00A5
:1009DF007F0ACFCDCFCECCCE1202F674BE2FF582CA
:1009EF0074133EF583E493FFE4FCFDFE9000AE121A
:1009FF00038F7C007D0AAF03AE021202F674BE2D88
:100A0F00F58274133CF583E493FFE4FCFDFE900044
:100A1F00B212038FE4FD7F03121502E4781FF20870
:100A2F00F2781FE2FE08E2FFC39405EE6480948023
:100A3F00502074B12FF58274133EF583E493FF12A7
:100A4F0013851215267820E22401F218E23400F201
:100A5F0080CF7F9C1215849000AAA3A3A3E0FF125E
:100A6F0013857F2E1213859000AEA3A3A3E0FF1270
:100A7F0013859000B2A3A3A3E0FF1213857F560244
:020A8F001385CD
:1015BC007D027C00EF1FAA0670011E4A60030080AA
:0A15CC00F3ED1D70011CED4C70EAF8
:0115D60022F2
:0B16B600EF1FAC0670011E4C70F62206
:100609001208007F84121584E4788AF208F2788A45
:10061900E2FE08E2FFC39407EE64809480501D74E3
:10062900B62FF58274133EF583E493FF1213857890
:100639008BE22401F218E23400F280D27F04120E18
:1006490044EF24857002E11724C4604124FC700240
:10065900E14224E4606224F07002C1EC247060027B
:10066900E1707F921215847F0D1215847F08120E96
:1006790044EF2443600824407009E4FF80027F01AD
:10068900120ECA7F04120E44BFEDD7E16B7F94129C
:1006990015847F0D1215847F08120E44EF244360E0
:1006A9000824407009E4FF80027F0112109A7F0438
:1006B900120E44BFEDD7E16B7F961215847F0D12A0
:1006C90015847F08120E44EF244360082440700902
:1006D900E4FF80027F011210007F04120E44BFED77
:1006E900D7807F7F9B1215847F0D1215847F081296
:1006F9000E44EF2443600824407009E4FF80027F20
:10070900011210DF7F04120E44BFEDD780547F9D84
:100719001215847F0D1215847F08120E44EF2443AD
:10072900600824407009E4FF80027F011211237FD1
:1007390004120E44BFEDD780297F9F1215847F0DC7
:100749001215847F08120E44EF2443600824407078
:1007590009E4FF80027F011211677F04120E44BF72
:10076900EDD77F0C1215847F04120E44EF64EE60FE
:1007790002C109788FF20804F27F0C121584E4FD96
:100789007F8E12168F7BFE7A00792A12146E7D8075
:060799007F8E12168F2274
:100ECA00EF70317830E204F2E2B49A16E4F208E202
:100EDA0004F2E2FE540AFDBD0A08EE54F0F2E224DE
:100EEA0010F27830E2FE540AFDBD0A08EE54F0F220
:100EFA00E22410F2EF640170317830E214F2E2FF7A
:100F0A00540FFEBE0F08EF54F0F2E22409F27830D3
:100F1A00E270177499F208E214F2E2FF540FFEBE6F
:100F2A000F08EF54F0F2E22409F27F0D1215840241
:020F3A000800AD
:10109A00EF701E782EE204F2E2B413037401F278C0
:1010AA002EE2FE540AFDBD0A08EE54F0F2E22410C4
:1010BA00F2EFB4011D782EE214F2E270037412F218
:1010CA00782EE2FF540FFEBE0F08EF54F0F2E2242E
:0510DA0009F20208000C
:10100000A907E97020120A91782DE2B50702E4F2EF
:10101000782DE204F2E2FF540AFEBE0A08EF54F013
:10102000F2E22410F2E964017023782DE2B40108A1
:10103000120A91EF04782DF2782DE214F2E2FF54B7
:101040000FFEBE0F08EF54F0F2E22409F20208008E
:1010DF00EF701D782CE204F2E2B42402E4F2782CD3
:1010EF00E2FE540AFDBD0A08EE54F0F2E22410F2BB
:1010FF00EFB4011D782CE270037424F2782CE21403
:10110F00F2E2FF540FFEBE0F08EF54F0F2E2240993
:04111F00F2020800D0
:10112300EF701D782BE204F2E2FE540AFDBD0A08BB
:10113300EE54F0F2E22410F2782BE2B46002E4F20F
:10114300EFB4011D782BE270037460F2782BE21484
:10115300F2E2FF540FFEBE0F08EF54F0F2E224094F
:04116300F20208008C
:10116700EF701D782AE204F2E2FE540AFDBD0A0878
:10117700EE54F0F2E22410F2782AE2B46002E4F2CC
:10118700EFB4011D782AE270037460F2782AE21442
:10119700F2E2FF540FFEBE0F08EF54F0F2E224090B
:0411A700F202080048
:0D169E00EF146006047005D2B122C2B12223
:100BC2007826E2FF782BE2B5071B7827E2FF782C24
:100BD200E2B50711782AE2700CFF12169ED28CE45D
:100BE2007833F208F27828E2FF782BE2B5071B7817
:100BF20029E2FF782CE2B50711782AE2700CFF1285
:100C0200169ED28CE47833F208F27835E2FF782B24
:100C1200E2B5071B7836E2FF782CE2B50711782A95
:100C2200E2700CFF12169ED28CE47833F208F2784E
:100C320077E2FF782BE2B5071B7878E2FF782CE2A7
:100C4200B50711782AE2700CFF12169ED28CE47856
:100C520033F208F27879E2FF782BE2B5071B787A53
:100C6200E2FF782CE2B50711782AE2700CFF121627
:100C72009ED28CE47833F208F2787BE2FF782BE2A2
:100C8200B5071B787CE2FF782CE2B50711782AE2DF
:100C9200700CFF12169ED28CE47833F208F2787D43
:100CA200E2FF782BE2B5071B787EE2FF782CE2B5F3
:100CB2000711782AE2700CFF12169ED28CE4783368
:100CC200F208F2787FE2FF782BE2B5071B7880E228
:100CD200FF782CE2B50711782AE2700CFF12169EFB
:090CE200D28CE47833F208F2220E
:03000B0002130CD1
:10130C00C0E0C0D075D000C000C0077834E2240122
:10131C00F218E23400F2758AC3758CB708E2B4E8AF
:10132C000A18E2B403057F0112169ED007D000D034
:04133C00D0D0E032FB
:040CEB00AB07AA06A3
:100CEF00C3EA64809480501578827440F2EB1B70D5
:100CFF00011AEBF4FBEAF4FAAD03FC8009E4788205
:100D0F00F2AD03AC02EC12021178A212039BE4FFC6
:100D1F00FE7DC87C4078A2E2FB08E2F908E2FA08FF
:100D2F00E2CBF8120106E4FBFAF9783F1200151234
:100D3F00024AAA06AB077C277D10AF03AE0212034F
:100D4F004B7821EFF27C277D10AF03AE0212034BDD
:100D5F007E037FE8CFCDCFCECCCE12034B7822EFE0
:100D6F00F27C037DE8AF03AE0212034B7E007F647B
:100D7F00CFCDCFCECCCE12034B7823EFF27C007DBC
:100D8F0064AF03AE0212034B7E007F0ACFCDCFCEEE
:100D9F00CCCE12034B7824EFF2AE02AF037C007D72
:080DAF000A12034B7825EDF256
:010DB7002219
:10154A00D3EF9400EE940040147D6E7C00ED1D7084
:0D155A00011CED4C70F7EF1F70E61E80E3E2
:011567002261
:1014B900C2A37B46AF031BEF70FAD2A3E4FB30A3B0
:1014C900117F017E0012154A0BEBD3940540EF7F83
:0414D90000227F016D
:0114DD0022EC
:0C1050001214B97F017E0012154A7FCCFB
:10105C00E4FBFAC2A378A3E22401F218E23400F212
:10106C00EF1392A3E4F2087406F278A208E2FD24CE
:10107C00FFF218E2FC34FFF2ED4C70EED2A3EFC39A
:0D108C0013FF0BBB00010AEB64084A70C69D
:011099002234
:1011EB007D087C00C2A30FBF0000D2A30FBF00007D
:1011FB000FBF0000A2A3E433C43333335480FBE9A5
:10120B00C3134BF97E007F04EF1FAA0670011E4A21
:0D121B0070F6ED1D70011CED4C70C9AF01A7
:0112280022A3
:080FF8001210507F4402105C4E
:0816C1001210507FBE02105C04
:1015D700E4FFFE120FF81216C11211EB78A1EFF219
:0915E7001211EBEFFEE2FDEDFF35
:0115F00022D8
:1015F100C0F9A4B0999282F880908883C6A1868EA2
:0A1601000102040810204080FF00E1
:10165100E4FEEF3392B3C2B4D2B4C2B4EF25E0FFDB
:051661000EEEB408EDDF
:011666002261
:10134000AC07EDB4031190160093FF121651EC9008
:1013500015F193547F800EED90160093FF121651F5
:10136000EC9015F193FF121651C2B5D2B5C2B52259
:10000E000202B6E86480F8E933E83360110460F068
:10001E00ED33EC337009E8FCE9FDEAFEEBFF220458
:10002E0060DED3EB9FEA9EE99DE8C2E78CF0C2F753
:10003E0095F0400CE8CCF8E9CDF9EACEFAEBCFFB1F
:10004E0012028185D0F05804700320D5B3E80470F5
:10005E00075002B2D50202C092D5EC0460F7E4CC90
:10006E00C0E0C398F8603B94186008400DD0E0FBE8
:10007E00020298E4FBFAC9FC8028E830E406E4C9E1
:10008E00FBE4CAFCE830E305E4C9CACBFCE854073C
:10009E006010F8C3E913F9EA13FAEB13FBEC13FC47
:1000AE00D8F130F52FC3E49CFCEF9BFFEE9AFEEDEA
:1000BE0099FDD0E0FBEF4E4D4C701222DB03020295
:1000CE00BDEC2CFCEF33FFEE33FEED33FDED30E7F0
:1000DE00EB020298EF2BFFEE3AFEED39FDD0E0FB7E
:1000EE0050130BBB00030202C0ED13FDEE13FEEF27
:0800FE0013FFEC13FC02029851
:10010600EC4D6011E8497017ED33EC3304600DE4F3
:10011600FCFFFEFD22E933E8330470F80202B61252
:10012600028158046009E4CC248150062850090253
:1001360002C02840030202BDC0E0EB4A7044B98009
:1001460006D0E0FB0202ACEF4E701CBD8008EBFF50
:10015600EAFEE9FD80EBE98DF0A4FEE5F00201EF91
:10016600E9CDF9EAFEEBFFEF89F0A4FCE5F0CE89D4
:10017600F0A42EFFE435F0CD89F0A42DFEE435F091
:100186008067EF4E7005BD80D780C3EF8BF0A4ACBF
:10019600F0EE8BF0A42CFCE435F0F8EF8AF0A42CFA
:1001A600E5F038FCE433CB8DF0A42CFCE5F03BF80D
:1001B600EE8AF0A42CFCE5F038F8E433CF89F0A4FD
:1001C6002CFCE5F038CF3400CE89F0A42FFFE5F003
:1001D6003EFEE433C98DF0A42EFEE5F039CD8AF05B
:1001E600A42FFFE5F03EFEE43DFD33D0E0FB5007D3
:1001F6000BBB000F0202C0EC2CFCEF33FFEE33FE0C
:06020600ED33FD02029839
:10020C0075F020800E75F010800575F0087D007E6D
:10021C00007F003392D530D503120381EC334010AC
:10022C00EF33FFEE33FEED33FDEC33FCD5F0ED2276
:0E023C00E5F0247EA2D513CC92E7CDCEFF22B2
:10024A00EDD2E7CD33EC3392D524814006E4FFFEAC
:10025A00FDFC22FCE4CFCECDCC24E0501174FF800B
:10026A00EDC3CC13CCCD13CDCE13CECF13CF0470A8
:07027A00F030D5DE02038124
:10028100E9D2E7C933E833F892D5EDD2E7CD33ECC3
:0702910033FC5002B2D5223C
:10029800EC30E7100FBF000C0EBE00080DBD0004C7
:1002A8000BEB6014A2D5EB13FCED92E7FD2274FF73
:1002B800FCFDFEFF22E480F8A2D574FF13FC7D80CC
:0302C800E480EFE0
:03000000020DB836
:0C0DB800787FE4F6D8FD758120020DFF65
:1002CB00BB010689828A83E0225002E722BBFE0231
:0902DB00E32289828A83E4932264
:1002E400EF8DF0A4A8F0CF8CF0A428CE8DF0A42E2E
:0202F400FE22E8
:1002F600BC000BBE0029EF8DF084FFADF022E4CCEC
:10030600F875F008EF2FFFEE33FEEC33FCEE9DECB4
:10031600984005FCEE9DFE0FD5F0E9E4CEFD22EDFA
:10032600F8F5F0EE8420D21CFEADF075F008EF2F44
:10033600FFED33FD4007985006D5F0F222C398FD35
:050346000FD5F0EA22D2
:10034B00C2D5EC30E709B2D5E4C39DFDE49CFCEECD
:10035B0030E715B2D5E4C39FFFE49EFE1202F6C34D
:10036B00E49DFDE49CFC80031202F630D507C3E448
:06037B009FFFE49EFE223C
:0E038100C3E49FFFE49EFEE49DFDE49CFC228D
:0C038F00ECF0A3EDF0A3EEF0A3EFF022E1
:0C039B00ECF208EDF208EEF208EFF2229E
:100DC4000212D7E493A3F8E493A34003F68001F25C
:100DD40008DFF48029E493A3F85407240CC8C33330
:100DE400C4540F4420C8834004F456800146F6DFFF
:100DF400E4800B0102040810204080901266E47E17
:100E0400019360BCA3FF543F30E509541FFEE493F3
:100E1400A360010ECF54C025E060A840B8E493A3BA
:100E2400FAE493A3F8E493A3C8C582C8CAC583CAE5
:100E3400F0A3C8C582C8CAC583CADFE9DEE780BE9D
:0112A000004D
:00000001FF
