:0C011500646B64686469666A3435340009
:1000DF000A08313233346464000000000A12646489
:0C00EF003433323100000000021C00001D
:1000030075984053877F438920758DF3758BF3D2A1
:0D0013008ED2ACD2AF1200B21200B280FB50
:0A012100C2998F993099FDC299220E
:0A012B007F0D1201217F0A0201215D
:0600B2007BFF7A017915C5
:1000B8008B1E8A1F8920AB1EAA1FA9201200FC6074
:1000C800130520E5207002051F14F91200FCFF1229
:0700D800012180E202012B6F
:03002300020135A2
:09013500309803C29832C29932DD
:03000000020026D5
:0C002600787FE4F6D8FD75812002006DA3
:1000FC00BB010689828A83E0225002E722BBFE0202
:09010C00E32289828A83E4932234
:10003200020003E493A3F8E493A34003F68001F2E1
:1000420008DFF48029E493A3F85407240CC8C333CF
:10005200C4540F4420C8834004F456800146F6DF9E
:10006200E4800B01020408102040809000DFE47E4F
:10007200019360BCA3FF543F30E509541FFEE49393
:10008200A360010ECF54C025E060A840B8E493A35A
:10009200FAE493A3F8E493A3C8C582C8CAC583CA85
:1000A200F0A3C8C582C8CAC583CADFE9DEE780BE3D
:0100FB000004
:00000001FF
