:1001280002180000041E0000000004100000000077
:10013800040800000000040C00000000041A00007D
:020148000000B5
:1000F100D2A0C2A17F007E007D007C0020A0FDE493
:10010100FBD2A1780112014BC2A130A00DEF240155
:10011100FFE43EFEE43DFDE43CFC0BBB18E3D2A151
:06012100ED6480FDC2A1A7
:0101270022B5
:05015E0012000380FE09
:030023000200B226
:1000B200C0E0C0F0C083C082C0D075D000C000C014
:0D00C20001C002C003C004C005C006C00795
:0700CF00AF99120019C2985D
:1000D600D007D006D005D004D003D002D001D0007E
:0B00E600D0D0D082D083D0F0D0E03228
:10000300759850758920758780758BF3758DF3D23C
:06001300ACD2AFD28E2238
:080019008F993099FDC2992274
:03000000020026D5
:0C002600787FE4F6D8FD75812102006DA2
:10014B00E8600FEFC333FFEE33FEED33FDEC33FC12
:03015B00D8F122B6
:1000320002015EE493A3F8E493A34003F68001F285
:1000420008DFF48029E493A3F85407240CC8C333CF
:10005200C4540F4420C8834004F456800146F6DF9E
:10006200E4800B0102040810204080900128E47E05
:10007200019360BCA3FF543F30E509541FFEE49393
:10008200A360010ECF54C025E060A840B8E493A35A
:10009200FAE493A3F8E493A3C8C582C8CAC583CA85
:1000A200F0A3C8C582C8CAC583CADFE9DEE780BE3D
:01014A0000B4
:00000001FF
